{
  "contractName": "NBA_gembller",
  "abi": [
    {
      "inputs": [],
      "payable": false,
      "stateMutability": "nonpayable",
      "type": "constructor"
    },
    {
      "constant": true,
      "inputs": [
        {
          "internalType": "uint256",
          "name": "",
          "type": "uint256"
        }
      ],
      "name": "userWhoWantToGambller",
      "outputs": [
        {
          "internalType": "string",
          "name": "firtsName",
          "type": "string"
        },
        {
          "internalType": "string",
          "name": "username",
          "type": "string"
        },
        {
          "internalType": "string",
          "name": "password",
          "type": "string"
        },
        {
          "internalType": "address",
          "name": "userAddress",
          "type": "address"
        }
      ],
      "payable": false,
      "stateMutability": "view",
      "type": "function"
    },
    {
      "constant": false,
      "inputs": [
        {
          "internalType": "string",
          "name": "_firtsName",
          "type": "string"
        },
        {
          "internalType": "string",
          "name": "_username",
          "type": "string"
        },
        {
          "internalType": "string",
          "name": "_password",
          "type": "string"
        }
      ],
      "name": "register",
      "outputs": [],
      "payable": false,
      "stateMutability": "nonpayable",
      "type": "function"
    },
    {
      "constant": true,
      "inputs": [
        {
          "internalType": "string",
          "name": "_username",
          "type": "string"
        },
        {
          "internalType": "string",
          "name": "_password",
          "type": "string"
        }
      ],
      "name": "login",
      "outputs": [
        {
          "internalType": "bool",
          "name": "",
          "type": "bool"
        }
      ],
      "payable": false,
      "stateMutability": "view",
      "type": "function"
    },
    {
      "constant": true,
      "inputs": [
        {
          "internalType": "address",
          "name": "_userAddress",
          "type": "address"
        }
      ],
      "name": "loginWithAddress",
      "outputs": [
        {
          "internalType": "bool",
          "name": "",
          "type": "bool"
        }
      ],
      "payable": false,
      "stateMutability": "view",
      "type": "function"
    },
    {
      "constant": false,
      "inputs": [
        {
          "internalType": "string",
          "name": "_playerName",
          "type": "string"
        },
        {
          "internalType": "uint256",
          "name": "_rebounds",
          "type": "uint256"
        },
        {
          "internalType": "uint256",
          "name": "_asists",
          "type": "uint256"
        },
        {
          "internalType": "uint256",
          "name": "_points",
          "type": "uint256"
        },
        {
          "internalType": "uint256",
          "name": "_blocks",
          "type": "uint256"
        },
        {
          "internalType": "uint256",
          "name": "_steals",
          "type": "uint256"
        }
      ],
      "name": "createPlayer",
      "outputs": [],
      "payable": false,
      "stateMutability": "nonpayable",
      "type": "function"
    },
    {
      "constant": false,
      "inputs": [
        {
          "internalType": "string",
          "name": "_username",
          "type": "string"
        },
        {
          "internalType": "string",
          "name": "_playerName",
          "type": "string"
        }
      ],
      "name": "addPlayerToUser",
      "outputs": [],
      "payable": false,
      "stateMutability": "nonpayable",
      "type": "function"
    },
    {
      "constant": false,
      "inputs": [
        {
          "internalType": "string",
          "name": "_username",
          "type": "string"
        },
        {
          "internalType": "uint256",
          "name": "_initialPrice",
          "type": "uint256"
        }
      ],
      "name": "addUserGambling",
      "outputs": [
        {
          "internalType": "bool",
          "name": "",
          "type": "bool"
        }
      ],
      "payable": false,
      "stateMutability": "nonpayable",
      "type": "function"
    },
    {
      "constant": false,
      "inputs": [
        {
          "internalType": "string",
          "name": "_username",
          "type": "string"
        }
      ],
      "name": "createBattle",
      "outputs": [],
      "payable": false,
      "stateMutability": "nonpayable",
      "type": "function"
    },
    {
      "constant": true,
      "inputs": [
        {
          "internalType": "uint256",
          "name": "_price",
          "type": "uint256"
        },
        {
          "internalType": "string",
          "name": "_username",
          "type": "string"
        }
      ],
      "name": "calculateGamblePriceWinner",
      "outputs": [
        {
          "internalType": "uint256",
          "name": "",
          "type": "uint256"
        }
      ],
      "payable": false,
      "stateMutability": "view",
      "type": "function"
    },
    {
      "constant": true,
      "inputs": [
        {
          "components": [
            {
              "internalType": "string",
              "name": "name",
              "type": "string"
            },
            {
              "internalType": "uint256",
              "name": "rebounds",
              "type": "uint256"
            },
            {
              "internalType": "uint256",
              "name": "asists",
              "type": "uint256"
            },
            {
              "internalType": "uint256",
              "name": "points",
              "type": "uint256"
            },
            {
              "internalType": "uint256",
              "name": "blocks",
              "type": "uint256"
            },
            {
              "internalType": "uint256",
              "name": "steals",
              "type": "uint256"
            }
          ],
          "internalType": "struct NBA_gembller.BPlayer",
          "name": "player",
          "type": "tuple"
        }
      ],
      "name": "calculataPlayerSum",
      "outputs": [
        {
          "internalType": "uint256",
          "name": "",
          "type": "uint256"
        }
      ],
      "payable": false,
      "stateMutability": "view",
      "type": "function"
    },
    {
      "constant": false,
      "inputs": [
        {
          "internalType": "uint256",
          "name": "gambllerNum",
          "type": "uint256"
        },
        {
          "internalType": "uint256",
          "name": "battleNum",
          "type": "uint256"
        },
        {
          "internalType": "uint256",
          "name": "rebounds",
          "type": "uint256"
        },
        {
          "internalType": "uint256",
          "name": "asists",
          "type": "uint256"
        },
        {
          "internalType": "uint256",
          "name": "points",
          "type": "uint256"
        },
        {
          "internalType": "uint256",
          "name": "blocks",
          "type": "uint256"
        },
        {
          "internalType": "uint256",
          "name": "steals",
          "type": "uint256"
        }
      ],
      "name": "calculateDayStatisticsOfPlayer",
      "outputs": [],
      "payable": false,
      "stateMutability": "nonpayable",
      "type": "function"
    },
    {
      "constant": true,
      "inputs": [
        {
          "internalType": "uint256",
          "name": "battleNum",
          "type": "uint256"
        }
      ],
      "name": "winner",
      "outputs": [
        {
          "internalType": "bool",
          "name": "",
          "type": "bool"
        },
        {
          "components": [
            {
              "internalType": "string",
              "name": "firtsName",
              "type": "string"
            },
            {
              "internalType": "string",
              "name": "username",
              "type": "string"
            },
            {
              "internalType": "string",
              "name": "password",
              "type": "string"
            },
            {
              "internalType": "address",
              "name": "userAddress",
              "type": "address"
            }
          ],
          "internalType": "struct NBA_gembller.User",
          "name": "",
          "type": "tuple"
        },
        {
          "internalType": "bool",
          "name": "",
          "type": "bool"
        },
        {
          "components": [
            {
              "internalType": "string",
              "name": "firtsName",
              "type": "string"
            },
            {
              "internalType": "string",
              "name": "username",
              "type": "string"
            },
            {
              "internalType": "string",
              "name": "password",
              "type": "string"
            },
            {
              "internalType": "address",
              "name": "userAddress",
              "type": "address"
            }
          ],
          "internalType": "struct NBA_gembller.User",
          "name": "",
          "type": "tuple"
        }
      ],
      "payable": false,
      "stateMutability": "view",
      "type": "function"
    },
    {
      "constant": false,
      "inputs": [
        {
          "internalType": "string",
          "name": "_playerName",
          "type": "string"
        },
        {
          "internalType": "uint256",
          "name": "_rebounds",
          "type": "uint256"
        },
        {
          "internalType": "uint256",
          "name": "_asists",
          "type": "uint256"
        },
        {
          "internalType": "uint256",
          "name": "_points",
          "type": "uint256"
        },
        {
          "internalType": "uint256",
          "name": "_blocks",
          "type": "uint256"
        },
        {
          "internalType": "uint256",
          "name": "_steals",
          "type": "uint256"
        }
      ],
      "name": "updateStatisticOfPlayer",
      "outputs": [],
      "payable": false,
      "stateMutability": "nonpayable",
      "type": "function"
    },
    {
      "constant": true,
      "inputs": [
        {
          "internalType": "string",
          "name": "_playername",
          "type": "string"
        }
      ],
      "name": "getPlayer",
      "outputs": [
        {
          "components": [
            {
              "internalType": "string",
              "name": "name",
              "type": "string"
            },
            {
              "internalType": "uint256",
              "name": "rebounds",
              "type": "uint256"
            },
            {
              "internalType": "uint256",
              "name": "asists",
              "type": "uint256"
            },
            {
              "internalType": "uint256",
              "name": "points",
              "type": "uint256"
            },
            {
              "internalType": "uint256",
              "name": "blocks",
              "type": "uint256"
            },
            {
              "internalType": "uint256",
              "name": "steals",
              "type": "uint256"
            }
          ],
          "internalType": "struct NBA_gembller.BPlayer",
          "name": "",
          "type": "tuple"
        }
      ],
      "payable": false,
      "stateMutability": "view",
      "type": "function"
    },
    {
      "constant": true,
      "inputs": [
        {
          "internalType": "string",
          "name": "_username",
          "type": "string"
        }
      ],
      "name": "getUserGambllerByUserName",
      "outputs": [
        {
          "components": [
            {
              "components": [
                {
                  "internalType": "string",
                  "name": "firtsName",
                  "type": "string"
                },
                {
                  "internalType": "string",
                  "name": "username",
                  "type": "string"
                },
                {
                  "internalType": "string",
                  "name": "password",
                  "type": "string"
                },
                {
                  "internalType": "address",
                  "name": "userAddress",
                  "type": "address"
                }
              ],
              "internalType": "struct NBA_gembller.User",
              "name": "user",
              "type": "tuple"
            },
            {
              "components": [
                {
                  "internalType": "string",
                  "name": "name",
                  "type": "string"
                },
                {
                  "internalType": "uint256",
                  "name": "rebounds",
                  "type": "uint256"
                },
                {
                  "internalType": "uint256",
                  "name": "asists",
                  "type": "uint256"
                },
                {
                  "internalType": "uint256",
                  "name": "points",
                  "type": "uint256"
                },
                {
                  "internalType": "uint256",
                  "name": "blocks",
                  "type": "uint256"
                },
                {
                  "internalType": "uint256",
                  "name": "steals",
                  "type": "uint256"
                }
              ],
              "internalType": "struct NBA_gembller.BPlayer[]",
              "name": "players",
              "type": "tuple[]"
            },
            {
              "internalType": "uint256",
              "name": "gambleAmount",
              "type": "uint256"
            },
            {
              "internalType": "uint256",
              "name": "initialPrice",
              "type": "uint256"
            },
            {
              "internalType": "bool",
              "name": "valid",
              "type": "bool"
            }
          ],
          "internalType": "struct NBA_gembller.UserGamble",
          "name": "",
          "type": "tuple"
        }
      ],
      "payable": false,
      "stateMutability": "view",
      "type": "function"
    },
    {
      "constant": true,
      "inputs": [
        {
          "internalType": "uint256",
          "name": "battleNum",
          "type": "uint256"
        }
      ],
      "name": "getGamblingBattle",
      "outputs": [
        {
          "components": [
            {
              "components": [
                {
                  "components": [
                    {
                      "internalType": "string",
                      "name": "firtsName",
                      "type": "string"
                    },
                    {
                      "internalType": "string",
                      "name": "username",
                      "type": "string"
                    },
                    {
                      "internalType": "string",
                      "name": "password",
                      "type": "string"
                    },
                    {
                      "internalType": "address",
                      "name": "userAddress",
                      "type": "address"
                    }
                  ],
                  "internalType": "struct NBA_gembller.User",
                  "name": "user",
                  "type": "tuple"
                },
                {
                  "components": [
                    {
                      "internalType": "string",
                      "name": "name",
                      "type": "string"
                    },
                    {
                      "internalType": "uint256",
                      "name": "rebounds",
                      "type": "uint256"
                    },
                    {
                      "internalType": "uint256",
                      "name": "asists",
                      "type": "uint256"
                    },
                    {
                      "internalType": "uint256",
                      "name": "points",
                      "type": "uint256"
                    },
                    {
                      "internalType": "uint256",
                      "name": "blocks",
                      "type": "uint256"
                    },
                    {
                      "internalType": "uint256",
                      "name": "steals",
                      "type": "uint256"
                    }
                  ],
                  "internalType": "struct NBA_gembller.BPlayer[]",
                  "name": "players",
                  "type": "tuple[]"
                },
                {
                  "internalType": "uint256",
                  "name": "gambleAmount",
                  "type": "uint256"
                },
                {
                  "internalType": "uint256",
                  "name": "initialPrice",
                  "type": "uint256"
                },
                {
                  "internalType": "bool",
                  "name": "valid",
                  "type": "bool"
                }
              ],
              "internalType": "struct NBA_gembller.UserGamble",
              "name": "userGamble1",
              "type": "tuple"
            },
            {
              "components": [
                {
                  "components": [
                    {
                      "internalType": "string",
                      "name": "firtsName",
                      "type": "string"
                    },
                    {
                      "internalType": "string",
                      "name": "username",
                      "type": "string"
                    },
                    {
                      "internalType": "string",
                      "name": "password",
                      "type": "string"
                    },
                    {
                      "internalType": "address",
                      "name": "userAddress",
                      "type": "address"
                    }
                  ],
                  "internalType": "struct NBA_gembller.User",
                  "name": "user",
                  "type": "tuple"
                },
                {
                  "components": [
                    {
                      "internalType": "string",
                      "name": "name",
                      "type": "string"
                    },
                    {
                      "internalType": "uint256",
                      "name": "rebounds",
                      "type": "uint256"
                    },
                    {
                      "internalType": "uint256",
                      "name": "asists",
                      "type": "uint256"
                    },
                    {
                      "internalType": "uint256",
                      "name": "points",
                      "type": "uint256"
                    },
                    {
                      "internalType": "uint256",
                      "name": "blocks",
                      "type": "uint256"
                    },
                    {
                      "internalType": "uint256",
                      "name": "steals",
                      "type": "uint256"
                    }
                  ],
                  "internalType": "struct NBA_gembller.BPlayer[]",
                  "name": "players",
                  "type": "tuple[]"
                },
                {
                  "internalType": "uint256",
                  "name": "gambleAmount",
                  "type": "uint256"
                },
                {
                  "internalType": "uint256",
                  "name": "initialPrice",
                  "type": "uint256"
                },
                {
                  "internalType": "bool",
                  "name": "valid",
                  "type": "bool"
                }
              ],
              "internalType": "struct NBA_gembller.UserGamble",
              "name": "userGamble2",
              "type": "tuple"
            },
            {
              "internalType": "uint256",
              "name": "scoreUserGamble1",
              "type": "uint256"
            },
            {
              "internalType": "uint256",
              "name": "scoreUserGamble2",
              "type": "uint256"
            }
          ],
          "internalType": "struct NBA_gembller.GamblingBattle",
          "name": "",
          "type": "tuple"
        }
      ],
      "payable": false,
      "stateMutability": "view",
      "type": "function"
    },
    {
      "constant": true,
      "inputs": [
        {
          "internalType": "address",
          "name": "_userAddress",
          "type": "address"
        }
      ],
      "name": "getUserNameByAddress",
      "outputs": [
        {
          "internalType": "string",
          "name": "",
          "type": "string"
        }
      ],
      "payable": false,
      "stateMutability": "view",
      "type": "function"
    },
    {
      "constant": true,
      "inputs": [
        {
          "internalType": "string",
          "name": "username",
          "type": "string"
        }
      ],
      "name": "getUserAddressByUsername",
      "outputs": [
        {
          "internalType": "address",
          "name": "userAddress",
          "type": "address"
        }
      ],
      "payable": false,
      "stateMutability": "view",
      "type": "function"
    }
  ],
  "bytecode": "0x60806040526002805534801561001457600080fd5b5060016000819055506000600b60070160006101000a81548160ff0219169083151502179055506000601360070160006101000a81548160ff0219169083151502179055506000601b60070160006101000a81548160ff0219169083151502179055506000600b600601819055506101f46013600601819055506103e8601b600601819055506155c480620000aa6000396000f3fe608060405234801561001057600080fd5b50600436106101165760003560e01c806355940c4f116100a2578063d01772ce11610071578063d01772ce1461032d578063d4ffd89d1461035d578063df9c43a41461038d578063dfda4a57146103bd578063e47c5e33146103d957610116565b806355940c4f1461028157806358467dbc1461029d5780636423e2d5146102cd5780639b45976b146102fd57610116565b80631cbeae5e116100e95780631cbeae5e146101b35780631f11b24f146101e65780632bc33d90146102165780632ca04522146102495780634cd08d031461026557610116565b806303b31cbd1461011b57806310fe472b1461014b5780631541b2c31461017b57806319343efb14610197575b600080fd5b610135600480360361013091908101906147ac565b610409565b6040516101429190615365565b60405180910390f35b61016560048036036101609190810190614783565b6107ff565b6040516101729190615265565b60405180910390f35b61019560048036036101909190810190614aa3565b6108e3565b005b6101b160048036036101ac9190810190614944565b610954565b005b6101cd60048036036101c89190810190614a26565b610a05565b6040516101dd9493929190615212565b60405180910390f35b61020060048036036101fb91908101906147ac565b61186f565b60405161020d9190615321565b60405180910390f35b610230600480360361022b9190810190614a26565b61197b565b6040516102409493929190615287565b60405180910390f35b610263600480360361025e91908101906147ac565b611ba0565b005b61027f600480360361027a9190810190614859565b6123e1565b005b61029b600480360361029691908101906147ed565b6126cc565b005b6102b760048036036102b291908101906147ed565b612877565b6040516102c491906151f7565b60405180910390f35b6102e760048036036102e29190810190614a26565b612baf565b6040516102f49190615343565b60405180910390f35b610317600480360361031291908101906148f0565b613388565b60405161032491906151f7565b60405180910390f35b610347600480360361034291908101906149e5565b613c72565b6040516103549190615387565b60405180910390f35b61037760048036036103729190810190614a4f565b613cac565b6040516103849190615387565b60405180910390f35b6103a760048036036103a29190810190614783565b613e07565b6040516103b491906151f7565b60405180910390f35b6103d760048036036103d29190810190614944565b6140ee565b005b6103f360048036036103ee91908101906147ac565b6141e1565b60405161040091906151dc565b60405180910390f35b61041161422c565b61041961422c565b60038360405161042991906151ae565b90815260200160405180910390206040518060a001604052908160008201604051806080016040529081600082018054600181600116156101000203166002900480601f0160208091040260200160405190810160405280929190818152602001828054600181600116156101000203166002900480156104eb5780601f106104c0576101008083540402835291602001916104eb565b820191906000526020600020905b8154815290600101906020018083116104ce57829003601f168201915b50505050508152602001600182018054600181600116156101000203166002900480601f01602080910402602001604051908101604052809291908181526020018280546001816001161561010002031660029004801561058d5780601f106105625761010080835404028352916020019161058d565b820191906000526020600020905b81548152906001019060200180831161057057829003601f168201915b50505050508152602001600282018054600181600116156101000203166002900480601f01602080910402602001604051908101604052809291908181526020018280546001816001161561010002031660029004801561062f5780601f106106045761010080835404028352916020019161062f565b820191906000526020600020905b81548152906001019060200180831161061257829003601f168201915b505050505081526020016003820160009054906101000a900473ffffffffffffffffffffffffffffffffffffffff1673ffffffffffffffffffffffffffffffffffffffff1673ffffffffffffffffffffffffffffffffffffffff1681525050815260200160048201805480602002602001604051908101604052809291908181526020016000905b828210156107bd57838290600052602060002090600602016040518060c0016040529081600082018054600181600116156101000203166002900480601f0160208091040260200160405190810160405280929190818152602001828054600181600116156101000203166002900480156107735780601f1061074857610100808354040283529160200191610773565b820191906000526020600020905b81548152906001019060200180831161075657829003601f168201915b5050505050815260200160018201548152602001600282015481526020016003820154815260200160048201548152602001600582015481525050815260200190600101906106b7565b50505050815260200160058201548152602001600682015481526020016007820160009054906101000a900460ff161515151581525050905080915050919050565b6060600660008373ffffffffffffffffffffffffffffffffffffffff1673ffffffffffffffffffffffffffffffffffffffff1681526020019081526020016000206001018054600181600116156101000203166002900480601f0160208091040260200160405190810160405280929190818152602001828054600181600116156101000203166002900480156108d75780601f106108ac576101008083540402835291602001916108d7565b820191906000526020600020905b8154815290600101906020018083116108ba57829003601f168201915b50505050509050919050565b600060076000888152602001908152602001600020905060006008830260078502600a87026005890260058b02010101019050600189141561093657808260100160008282540192505081905550610949565b8082601101600082825401925050819055505b505050505050505050565b61095c614263565b6040518060c001604052808881526020018781526020018681526020018581526020018481526020018381525090508060048860405161099c91906151ae565b908152602001604051809103902060008201518160000190805190602001906109c6929190614299565b506020820151816001015560408201518160020155606082015181600301556080820151816004015560a0820151816005015590505050505050505050565b6000610a0f614319565b6000610a19614319565b6000600760008781526020019081526020016000209050806011015481601001541115610ef45760018160000160000160008360080160000182604051806080016040529081600082018054600181600116156101000203166002900480601f016020809104026020016040519081016040528092919081815260200182805460018160011615610100020316600290048015610af75780601f10610acc57610100808354040283529160200191610af7565b820191906000526020600020905b815481529060010190602001808311610ada57829003601f168201915b50505050508152602001600182018054600181600116156101000203166002900480601f016020809104026020016040519081016040528092919081815260200182805460018160011615610100020316600290048015610b995780601f10610b6e57610100808354040283529160200191610b99565b820191906000526020600020905b815481529060010190602001808311610b7c57829003601f168201915b50505050508152602001600282018054600181600116156101000203166002900480601f016020809104026020016040519081016040528092919081815260200182805460018160011615610100020316600290048015610c3b5780601f10610c1057610100808354040283529160200191610c3b565b820191906000526020600020905b815481529060010190602001808311610c1e57829003601f168201915b505050505081526020016003820160009054906101000a900473ffffffffffffffffffffffffffffffffffffffff1673ffffffffffffffffffffffffffffffffffffffff1673ffffffffffffffffffffffffffffffffffffffff1681525050925080604051806080016040529081600082018054600181600116156101000203166002900480601f016020809104026020016040519081016040528092919081815260200182805460018160011615610100020316600290048015610d415780601f10610d1657610100808354040283529160200191610d41565b820191906000526020600020905b815481529060010190602001808311610d2457829003601f168201915b50505050508152602001600182018054600181600116156101000203166002900480601f016020809104026020016040519081016040528092919081815260200182805460018160011615610100020316600290048015610de35780601f10610db857610100808354040283529160200191610de3565b820191906000526020600020905b815481529060010190602001808311610dc657829003601f168201915b50505050508152602001600282018054600181600116156101000203166002900480601f016020809104026020016040519081016040528092919081815260200182805460018160011615610100020316600290048015610e855780601f10610e5a57610100808354040283529160200191610e85565b820191906000526020600020905b815481529060010190602001808311610e6857829003601f168201915b505050505081526020016003820160009054906101000a900473ffffffffffffffffffffffffffffffffffffffff1673ffffffffffffffffffffffffffffffffffffffff1673ffffffffffffffffffffffffffffffffffffffff16815250509050945094509450945050611868565b8060110154816010015410156113b85760008160000160000160018360080160000182604051806080016040529081600082018054600181600116156101000203166002900480601f016020809104026020016040519081016040528092919081815260200182805460018160011615610100020316600290048015610fbb5780601f10610f9057610100808354040283529160200191610fbb565b820191906000526020600020905b815481529060010190602001808311610f9e57829003601f168201915b50505050508152602001600182018054600181600116156101000203166002900480601f01602080910402602001604051908101604052809291908181526020018280546001816001161561010002031660029004801561105d5780601f106110325761010080835404028352916020019161105d565b820191906000526020600020905b81548152906001019060200180831161104057829003601f168201915b50505050508152602001600282018054600181600116156101000203166002900480601f0160208091040260200160405190810160405280929190818152602001828054600181600116156101000203166002900480156110ff5780601f106110d4576101008083540402835291602001916110ff565b820191906000526020600020905b8154815290600101906020018083116110e257829003601f168201915b505050505081526020016003820160009054906101000a900473ffffffffffffffffffffffffffffffffffffffff1673ffffffffffffffffffffffffffffffffffffffff1673ffffffffffffffffffffffffffffffffffffffff1681525050925080604051806080016040529081600082018054600181600116156101000203166002900480601f0160208091040260200160405190810160405280929190818152602001828054600181600116156101000203166002900480156112055780601f106111da57610100808354040283529160200191611205565b820191906000526020600020905b8154815290600101906020018083116111e857829003601f168201915b50505050508152602001600182018054600181600116156101000203166002900480601f0160208091040260200160405190810160405280929190818152602001828054600181600116156101000203166002900480156112a75780601f1061127c576101008083540402835291602001916112a7565b820191906000526020600020905b81548152906001019060200180831161128a57829003601f168201915b50505050508152602001600282018054600181600116156101000203166002900480601f0160208091040260200160405190810160405280929190818152602001828054600181600116156101000203166002900480156113495780601f1061131e57610100808354040283529160200191611349565b820191906000526020600020905b81548152906001019060200180831161132c57829003601f168201915b505050505081526020016003820160009054906101000a900473ffffffffffffffffffffffffffffffffffffffff1673ffffffffffffffffffffffffffffffffffffffff1673ffffffffffffffffffffffffffffffffffffffff16815250509050945094509450945050611868565b60008160000160000160008360080160000182604051806080016040529081600082018054600181600116156101000203166002900480601f01602080910402602001604051908101604052809291908181526020018280546001816001161561010002031660029004801561146f5780601f106114445761010080835404028352916020019161146f565b820191906000526020600020905b81548152906001019060200180831161145257829003601f168201915b50505050508152602001600182018054600181600116156101000203166002900480601f0160208091040260200160405190810160405280929190818152602001828054600181600116156101000203166002900480156115115780601f106114e657610100808354040283529160200191611511565b820191906000526020600020905b8154815290600101906020018083116114f457829003601f168201915b50505050508152602001600282018054600181600116156101000203166002900480601f0160208091040260200160405190810160405280929190818152602001828054600181600116156101000203166002900480156115b35780601f10611588576101008083540402835291602001916115b3565b820191906000526020600020905b81548152906001019060200180831161159657829003601f168201915b505050505081526020016003820160009054906101000a900473ffffffffffffffffffffffffffffffffffffffff1673ffffffffffffffffffffffffffffffffffffffff1673ffffffffffffffffffffffffffffffffffffffff1681525050925080604051806080016040529081600082018054600181600116156101000203166002900480601f0160208091040260200160405190810160405280929190818152602001828054600181600116156101000203166002900480156116b95780601f1061168e576101008083540402835291602001916116b9565b820191906000526020600020905b81548152906001019060200180831161169c57829003601f168201915b50505050508152602001600182018054600181600116156101000203166002900480601f01602080910402602001604051908101604052809291908181526020018280546001816001161561010002031660029004801561175b5780601f106117305761010080835404028352916020019161175b565b820191906000526020600020905b81548152906001019060200180831161173e57829003601f168201915b50505050508152602001600282018054600181600116156101000203166002900480601f0160208091040260200160405190810160405280929190818152602001828054600181600116156101000203166002900480156117fd5780601f106117d2576101008083540402835291602001916117fd565b820191906000526020600020905b8154815290600101906020018083116117e057829003601f168201915b505050505081526020016003820160009054906101000a900473ffffffffffffffffffffffffffffffffffffffff1673ffffffffffffffffffffffffffffffffffffffff1673ffffffffffffffffffffffffffffffffffffffff168152505090509450945094509450505b9193509193565b611877614263565b60048260405161188791906151ae565b90815260200160405180910390206040518060c0016040529081600082018054600181600116156101000203166002900480601f0160208091040260200160405190810160405280929190818152602001828054600181600116156101000203166002900480156119395780601f1061190e57610100808354040283529160200191611939565b820191906000526020600020905b81548152906001019060200180831161191c57829003601f168201915b50505050508152602001600182015481526020016002820154815260200160038201548152602001600482015481526020016005820154815250509050919050565b6001818154811061198857fe5b9060005260206000209060040201600091509050806000018054600181600116156101000203166002900480601f016020809104026020016040519081016040528092919081815260200182805460018160011615610100020316600290048015611a345780601f10611a0957610100808354040283529160200191611a34565b820191906000526020600020905b815481529060010190602001808311611a1757829003601f168201915b505050505090806001018054600181600116156101000203166002900480601f016020809104026020016040519081016040528092919081815260200182805460018160011615610100020316600290048015611ad25780601f10611aa757610100808354040283529160200191611ad2565b820191906000526020600020905b815481529060010190602001808311611ab557829003601f168201915b505050505090806002018054600181600116156101000203166002900480601f016020809104026020016040519081016040528092919081815260200182805460018160011615610100020316600290048015611b705780601f10611b4557610100808354040283529160200191611b70565b820191906000526020600020905b815481529060010190602001808311611b5357829003601f168201915b5050505050908060030160009054906101000a900473ffffffffffffffffffffffffffffffffffffffff16905084565b600381604051611bb091906151ae565b90815260200160405180910390206007600080548152602001908152602001600020600001600082018160000160008201816000019080546001816001161561010002031660029004611c04929190614357565b5060018201816001019080546001816001161561010002031660029004611c2c929190614357565b5060028201816002019080546001816001161561010002031660029004611c54929190614357565b506003820160009054906101000a900473ffffffffffffffffffffffffffffffffffffffff168160030160006101000a81548173ffffffffffffffffffffffffffffffffffffffff021916908373ffffffffffffffffffffffffffffffffffffffff16021790555050506004820181600401908054611cd49291906143de565b5060058201548160050155600682015481600601556007820160009054906101000a900460ff168160070160006101000a81548160ff02191690831515021790555090505060006007600080548152602001908152602001600020600001600601541415611f6757600b6007600080548152602001908152602001600020600801600082018160000160008201816000019080546001816001161561010002031660029004611d84929190614357565b5060018201816001019080546001816001161561010002031660029004611dac929190614357565b5060028201816002019080546001816001161561010002031660029004611dd4929190614357565b506003820160009054906101000a900473ffffffffffffffffffffffffffffffffffffffff168160030160006101000a81548173ffffffffffffffffffffffffffffffffffffffff021916908373ffffffffffffffffffffffffffffffffffffffff16021790555050506004820181600401908054611e549291906143de565b5060058201548160050155600682015481600601556007820160009054906101000a900460ff168160070160006101000a81548160ff0219169083151502179055509050506000600b60070160006101000a81548160ff021916908315150217905550600a81604051611ec791906151ae565b90815260200160405180910390206000549080600181540180825580915050906001820390600052602060002001600090919290919091505550600a600b600001600101604051611f1891906151c5565b90815260200160405180910390206000549080600181540180825580915050906001820390600052602060002001600090919290919091505550600160008082825401925050819055506123de565b6101f460076000805481526020019081526020016000206000016006015414156121b65760136007600080548152602001908152602001600020600801600082018160000160008201816000019080546001816001161561010002031660029004611fd3929190614357565b5060018201816001019080546001816001161561010002031660029004611ffb929190614357565b5060028201816002019080546001816001161561010002031660029004612023929190614357565b506003820160009054906101000a900473ffffffffffffffffffffffffffffffffffffffff168160030160006101000a81548173ffffffffffffffffffffffffffffffffffffffff021916908373ffffffffffffffffffffffffffffffffffffffff160217905550505060048201816004019080546120a39291906143de565b5060058201548160050155600682015481600601556007820160009054906101000a900460ff168160070160006101000a81548160ff0219169083151502179055509050506000600b60070160006101000a81548160ff021916908315150217905550600a8160405161211691906151ae565b90815260200160405180910390206000549080600181540180825580915050906001820390600052602060002001600090919290919091505550600a601360000160010160405161216791906151c5565b90815260200160405180910390206000549080600181540180825580915050906001820390600052602060002001600090919290919091505550600160008082825401925050819055506123dd565b601b60076000805481526020019081526020016000206008016000820181600001600082018160000190805460018160011615610100020316600290046121fe929190614357565b5060018201816001019080546001816001161561010002031660029004612226929190614357565b506002820181600201908054600181600116156101000203166002900461224e929190614357565b506003820160009054906101000a900473ffffffffffffffffffffffffffffffffffffffff168160030160006101000a81548173ffffffffffffffffffffffffffffffffffffffff021916908373ffffffffffffffffffffffffffffffffffffffff160217905550505060048201816004019080546122ce9291906143de565b5060058201548160050155600682015481600601556007820160009054906101000a900460ff168160070160006101000a81548160ff0219169083151502179055509050506000601b60070160006101000a81548160ff021916908315150217905550600a8160405161234191906151ae565b90815260200160405180910390206000549080600181540180825580915050906001820390600052602060002001600090919290919091505550600a601b60000160010160405161239291906151c5565b90815260200160405180910390206000549080600181540180825580915050906001820390600052602060002001600090919290919091505550600160008082825401925050819055505b5b50565b6123e9614319565b60405180608001604052808581526020018481526020018381526020013373ffffffffffffffffffffffffffffffffffffffff168152509050600881602001516040516124369190615197565b908152602001604051809103902060009054906101000a900460ff1615612492576040517f08c379a0000000000000000000000000000000000000000000000000000000008152600401612489906152e1565b60405180910390fd5b806005846040516124a391906151ae565b908152602001604051809103902060008201518160000190805190602001906124cd929190614299565b5060208201518160010190805190602001906124ea929190614299565b506040820151816002019080519060200190612507929190614299565b5060608201518160030160006101000a81548173ffffffffffffffffffffffffffffffffffffffff021916908373ffffffffffffffffffffffffffffffffffffffff16021790555090505080600660003373ffffffffffffffffffffffffffffffffffffffff1673ffffffffffffffffffffffffffffffffffffffff16815260200190815260200160002060008201518160000190805190602001906125ae929190614299565b5060208201518160010190805190602001906125cb929190614299565b5060408201518160020190805190602001906125e8929190614299565b5060608201518160030160006101000a81548173ffffffffffffffffffffffffffffffffffffffff021916908373ffffffffffffffffffffffffffffffffffffffff1602179055509050506001600882602001516040516126499190615197565b908152602001604051809103902060006101000a81548160ff0219169083151502179055506001600960003373ffffffffffffffffffffffffffffffffffffffff1673ffffffffffffffffffffffffffffffffffffffff16815260200190815260200160002060006101000a81548160ff02191690831515021790555050505050565b6126d4614263565b6004826040516126e491906151ae565b90815260200160405180910390206040518060c0016040529081600082018054600181600116156101000203166002900480601f0160208091040260200160405190810160405280929190818152602001828054600181600116156101000203166002900480156127965780601f1061276b57610100808354040283529160200191612796565b820191906000526020600020905b81548152906001019060200180831161277957829003601f168201915b505050505081526020016001820154815260200160028201548152602001600382015481526020016004820154815260200160058201548152505090506003836040516127e391906151ae565b90815260200160405180910390206004018190806001815401808255809150509060018203906000526020600020906006020160009091929091909150600082015181600001908051906020019061283c929190614299565b506020820151816001015560408201518160020155606082015181600301556080820151816004015560a08201518160050155505050505050565b6000612881614319565b60058460405161289191906151ae565b9081526020016040518091039020604051806080016040529081600082018054600181600116156101000203166002900480601f0160208091040260200160405190810160405280929190818152602001828054600181600116156101000203166002900480156129435780601f1061291857610100808354040283529160200191612943565b820191906000526020600020905b81548152906001019060200180831161292657829003601f168201915b50505050508152602001600182018054600181600116156101000203166002900480601f0160208091040260200160405190810160405280929190818152602001828054600181600116156101000203166002900480156129e55780601f106129ba576101008083540402835291602001916129e5565b820191906000526020600020905b8154815290600101906020018083116129c857829003601f168201915b50505050508152602001600282018054600181600116156101000203166002900480601f016020809104026020016040519081016040528092919081815260200182805460018160011615610100020316600290048015612a875780601f10612a5c57610100808354040283529160200191612a87565b820191906000526020600020905b815481529060010190602001808311612a6a57829003601f168201915b505050505081526020016003820160009054906101000a900473ffffffffffffffffffffffffffffffffffffffff1673ffffffffffffffffffffffffffffffffffffffff1673ffffffffffffffffffffffffffffffffffffffff1681525050905082604051602001612af991906151ae565b604051602081830303815290604052805190602001208160400151604051602001612b249190615197565b6040516020818303038152906040528051906020012014612b7a576040517f08c379a0000000000000000000000000000000000000000000000000000000008152600401612b7190615301565b60405180910390fd5b600884604051612b8a91906151ae565b908152602001604051809103902060009054906101000a900460ff1691505092915050565b612bb7614490565b612bbf614490565b60076000848152602001908152602001600020604051806080016040529081600082016040518060a001604052908160008201604051806080016040529081600082018054600181600116156101000203166002900480601f016020809104026020016040519081016040528092919081815260200182805460018160011615610100020316600290048015612c965780601f10612c6b57610100808354040283529160200191612c96565b820191906000526020600020905b815481529060010190602001808311612c7957829003601f168201915b50505050508152602001600182018054600181600116156101000203166002900480601f016020809104026020016040519081016040528092919081815260200182805460018160011615610100020316600290048015612d385780601f10612d0d57610100808354040283529160200191612d38565b820191906000526020600020905b815481529060010190602001808311612d1b57829003601f168201915b50505050508152602001600282018054600181600116156101000203166002900480601f016020809104026020016040519081016040528092919081815260200182805460018160011615610100020316600290048015612dda5780601f10612daf57610100808354040283529160200191612dda565b820191906000526020600020905b815481529060010190602001808311612dbd57829003601f168201915b505050505081526020016003820160009054906101000a900473ffffffffffffffffffffffffffffffffffffffff1673ffffffffffffffffffffffffffffffffffffffff1673ffffffffffffffffffffffffffffffffffffffff1681525050815260200160048201805480602002602001604051908101604052809291908181526020016000905b82821015612f6857838290600052602060002090600602016040518060c0016040529081600082018054600181600116156101000203166002900480601f016020809104026020016040519081016040528092919081815260200182805460018160011615610100020316600290048015612f1e5780601f10612ef357610100808354040283529160200191612f1e565b820191906000526020600020905b815481529060010190602001808311612f0157829003601f168201915b505050505081526020016001820154815260200160028201548152602001600382015481526020016004820154815260200160058201548152505081526020019060010190612e62565b50505050815260200160058201548152602001600682015481526020016007820160009054906101000a900460ff1615151515815250508152602001600882016040518060a001604052908160008201604051806080016040529081600082018054600181600116156101000203166002900480601f01602080910402602001604051908101604052809291908181526020018280546001816001161561010002031660029004801561305c5780601f106130315761010080835404028352916020019161305c565b820191906000526020600020905b81548152906001019060200180831161303f57829003601f168201915b50505050508152602001600182018054600181600116156101000203166002900480601f0160208091040260200160405190810160405280929190818152602001828054600181600116156101000203166002900480156130fe5780601f106130d3576101008083540402835291602001916130fe565b820191906000526020600020905b8154815290600101906020018083116130e157829003601f168201915b50505050508152602001600282018054600181600116156101000203166002900480601f0160208091040260200160405190810160405280929190818152602001828054600181600116156101000203166002900480156131a05780601f10613175576101008083540402835291602001916131a0565b820191906000526020600020905b81548152906001019060200180831161318357829003601f168201915b505050505081526020016003820160009054906101000a900473ffffffffffffffffffffffffffffffffffffffff1673ffffffffffffffffffffffffffffffffffffffff1673ffffffffffffffffffffffffffffffffffffffff1681525050815260200160048201805480602002602001604051908101604052809291908181526020016000905b8282101561332e57838290600052602060002090600602016040518060c0016040529081600082018054600181600116156101000203166002900480601f0160208091040260200160405190810160405280929190818152602001828054600181600116156101000203166002900480156132e45780601f106132b9576101008083540402835291602001916132e4565b820191906000526020600020905b8154815290600101906020018083116132c757829003601f168201915b505050505081526020016001820154815260200160028201548152602001600382015481526020016004820154815260200160058201548152505081526020019060010190613228565b50505050815260200160058201548152602001600682015481526020016007820160009054906101000a900460ff161515151581525050815260200160108201548152602001601182015481525050905080915050919050565b60008160038460405161339b91906151ae565b90815260200160405180910390206006018190555060016003846040516133c291906151ae565b908152602001604051809103902060070160006101000a81548160ff0219169083151502179055506133f2614319565b60058460405161340291906151ae565b9081526020016040518091039020604051806080016040529081600082018054600181600116156101000203166002900480601f0160208091040260200160405190810160405280929190818152602001828054600181600116156101000203166002900480156134b45780601f10613489576101008083540402835291602001916134b4565b820191906000526020600020905b81548152906001019060200180831161349757829003601f168201915b50505050508152602001600182018054600181600116156101000203166002900480601f0160208091040260200160405190810160405280929190818152602001828054600181600116156101000203166002900480156135565780601f1061352b57610100808354040283529160200191613556565b820191906000526020600020905b81548152906001019060200180831161353957829003601f168201915b50505050508152602001600282018054600181600116156101000203166002900480601f0160208091040260200160405190810160405280929190818152602001828054600181600116156101000203166002900480156135f85780601f106135cd576101008083540402835291602001916135f8565b820191906000526020600020905b8154815290600101906020018083116135db57829003601f168201915b505050505081526020016003820160009054906101000a900473ffffffffffffffffffffffffffffffffffffffff1673ffffffffffffffffffffffffffffffffffffffff1673ffffffffffffffffffffffffffffffffffffffff168152505090508060038560405161366a91906151ae565b90815260200160405180910390206000016000820151816000019080519060200190613697929190614299565b5060208201518160010190805190602001906136b4929190614299565b5060408201518160020190805190602001906136d1929190614299565b5060608201518160030160006101000a81548173ffffffffffffffffffffffffffffffffffffffff021916908373ffffffffffffffffffffffffffffffffffffffff1602179055509050506137268385613cac565b60038560405161373691906151ae565b908152602001604051809103902060050181905550600b6006015460038560405161376191906151ae565b908152602001604051809103902060060154141561390f5760001515600b60070160009054906101000a900460ff161515141561390a57600381602001516040516137ac9190615197565b9081526020016040518091039020600b6000820181600001600082018160000190805460018160011615610100020316600290046137eb929190614357565b5060018201816001019080546001816001161561010002031660029004613813929190614357565b506002820181600201908054600181600116156101000203166002900461383b929190614357565b506003820160009054906101000a900473ffffffffffffffffffffffffffffffffffffffff168160030160006101000a81548173ffffffffffffffffffffffffffffffffffffffff021916908373ffffffffffffffffffffffffffffffffffffffff160217905550505060048201816004019080546138bb9291906143de565b5060058201548160050155600682015481600601556007820160009054906101000a900460ff168160070160006101000a81548160ff0219169083151502179055509050506000915050613c6c565b613c66565b60136006015460038560405161392591906151ae565b9081526020016040518091039020600601541415613ad35760001515601360070160009054906101000a900460ff1615151415613ace57600381602001516040516139709190615197565b908152602001604051809103902060136000820181600001600082018160000190805460018160011615610100020316600290046139af929190614357565b50600182018160010190805460018160011615610100020316600290046139d7929190614357565b50600282018160020190805460018160011615610100020316600290046139ff929190614357565b506003820160009054906101000a900473ffffffffffffffffffffffffffffffffffffffff168160030160006101000a81548173ffffffffffffffffffffffffffffffffffffffff021916908373ffffffffffffffffffffffffffffffffffffffff16021790555050506004820181600401908054613a7f9291906143de565b5060058201548160050155600682015481600601556007820160009054906101000a900460ff168160070160006101000a81548160ff0219169083151502179055509050506000915050613c6c565b613c65565b60001515601b60070160009054906101000a900460ff1615151415613c645760038160200151604051613b069190615197565b9081526020016040518091039020601b600082018160000160008201816000019080546001816001161561010002031660029004613b45929190614357565b5060018201816001019080546001816001161561010002031660029004613b6d929190614357565b5060028201816002019080546001816001161561010002031660029004613b95929190614357565b506003820160009054906101000a900473ffffffffffffffffffffffffffffffffffffffff168160030160006101000a81548173ffffffffffffffffffffffffffffffffffffffff021916908373ffffffffffffffffffffffffffffffffffffffff16021790555050506004820181600401908054613c159291906143de565b5060058201548160050155600682015481600601556007820160009054906101000a900460ff168160070160006101000a81548160ff0219169083151502179055509050506000915050613c6c565b5b5b60019150505b92915050565b600080600a836040015102600f846080015102600f8560a00151026005866060015102600a87602001510201010101905080915050919050565b600080600383604051613cbf91906151ae565b90815260200160405180910390209050600080905060008090505b600254811015613df957613de8836004018281548110613cf657fe5b90600052602060002090600602016040518060c0016040529081600082018054600181600116156101000203166002900480601f016020809104026020016040519081016040528092919081815260200182805460018160011615610100020316600290048015613da85780601f10613d7d57610100808354040283529160200191613da8565b820191906000526020600020905b815481529060010190602001808311613d8b57829003601f168201915b5050505050815260200160018201548152602001600282015481526020016003820154815260200160048201548152602001600582015481525050613c72565b820191508080600101915050613cda565b508481019250505092915050565b6000613e11614319565b600660008473ffffffffffffffffffffffffffffffffffffffff1673ffffffffffffffffffffffffffffffffffffffff168152602001908152602001600020604051806080016040529081600082018054600181600116156101000203166002900480601f016020809104026020016040519081016040528092919081815260200182805460018160011615610100020316600290048015613ef45780601f10613ec957610100808354040283529160200191613ef4565b820191906000526020600020905b815481529060010190602001808311613ed757829003601f168201915b50505050508152602001600182018054600181600116156101000203166002900480601f016020809104026020016040519081016040528092919081815260200182805460018160011615610100020316600290048015613f965780601f10613f6b57610100808354040283529160200191613f96565b820191906000526020600020905b815481529060010190602001808311613f7957829003601f168201915b50505050508152602001600282018054600181600116156101000203166002900480601f0160208091040260200160405190810160405280929190818152602001828054600181600116156101000203166002900480156140385780601f1061400d57610100808354040283529160200191614038565b820191906000526020600020905b81548152906001019060200180831161401b57829003601f168201915b505050505081526020016003820160009054906101000a900473ffffffffffffffffffffffffffffffffffffffff1673ffffffffffffffffffffffffffffffffffffffff1673ffffffffffffffffffffffffffffffffffffffff16815250509050600960008473ffffffffffffffffffffffffffffffffffffffff1673ffffffffffffffffffffffffffffffffffffffff16815260200190815260200160002060009054906101000a900460ff16915050919050565b846004876040516140ff91906151ae565b9081526020016040518091039020600101600082825401925050819055508360048760405161412e91906151ae565b9081526020016040518091039020600201600082825401925050819055508260048760405161415d91906151ae565b9081526020016040518091039020600301600082825401925050819055508160048760405161418c91906151ae565b908152602001604051809103902060040160008282540192505081905550806004876040516141bb91906151ae565b908152602001604051809103902060050160008282540192505081905550505050505050565b60006005826040516141f391906151ae565b908152602001604051809103902060030160009054906101000a900473ffffffffffffffffffffffffffffffffffffffff169050919050565b6040518060a0016040528061423f6144c4565b81526020016060815260200160008152602001600081526020016000151581525090565b6040518060c001604052806060815260200160008152602001600081526020016000815260200160008152602001600081525090565b828054600181600116156101000203166002900490600052602060002090601f016020900481019282601f106142da57805160ff1916838001178555614308565b82800160010185558215614308579182015b828111156143075782518255916020019190600101906142ec565b5b5090506143159190614502565b5090565b6040518060800160405280606081526020016060815260200160608152602001600073ffffffffffffffffffffffffffffffffffffffff1681525090565b828054600181600116156101000203166002900490600052602060002090601f016020900481019282601f1061439057805485556143cd565b828001600101855582156143cd57600052602060002091601f016020900482015b828111156143cc5782548255916001019190600101906143b1565b5b5090506143da9190614502565b5090565b82805482825590600052602060002090600602810192821561447f5760005260206000209160060282015b8281111561447e5782826000820181600001908054600181600116156101000203166002900461443a929190614357565b506001820154816001015560028201548160020155600382015481600301556004820154816004015560058201548160050155505091600601919060060190614409565b5b50905061448c9190614527565b5090565b60405180608001604052806144a361457e565b81526020016144b061457e565b815260200160008152602001600081525090565b6040518060800160405280606081526020016060815260200160608152602001600073ffffffffffffffffffffffffffffffffffffffff1681525090565b61452491905b80821115614520576000816000905550600101614508565b5090565b90565b61457b91905b80821115614577576000808201600061454691906145b5565b600182016000905560028201600090556003820160009055600482016000905560058201600090555060060161452d565b5090565b90565b6040518060a001604052806145916144c4565b81526020016060815260200160008152602001600081526020016000151581525090565b50805460018160011615610100020316600290046000825580601f106145db57506145fa565b601f0160209004906000526020600020908101906145f99190614502565b5b50565b60008135905061460c81615553565b92915050565b600082601f83011261462357600080fd5b8135614636614631826153cf565b6153a2565b9150808252602083016020830185838301111561465257600080fd5b61465d838284615500565b50505092915050565b600082601f83011261467757600080fd5b813561468a614685826153fb565b6153a2565b915080825260208301602083018583830111156146a657600080fd5b6146b1838284615500565b50505092915050565b600060c082840312156146cc57600080fd5b6146d660c06153a2565b9050600082013567ffffffffffffffff8111156146f257600080fd5b6146fe84828501614612565b60008301525060206147128482850161476e565b60208301525060406147268482850161476e565b604083015250606061473a8482850161476e565b606083015250608061474e8482850161476e565b60808301525060a06147628482850161476e565b60a08301525092915050565b60008135905061477d8161556a565b92915050565b60006020828403121561479557600080fd5b60006147a3848285016145fd565b91505092915050565b6000602082840312156147be57600080fd5b600082013567ffffffffffffffff8111156147d857600080fd5b6147e484828501614666565b91505092915050565b6000806040838503121561480057600080fd5b600083013567ffffffffffffffff81111561481a57600080fd5b61482685828601614666565b925050602083013567ffffffffffffffff81111561484357600080fd5b61484f85828601614666565b9150509250929050565b60008060006060848603121561486e57600080fd5b600084013567ffffffffffffffff81111561488857600080fd5b61489486828701614666565b935050602084013567ffffffffffffffff8111156148b157600080fd5b6148bd86828701614666565b925050604084013567ffffffffffffffff8111156148da57600080fd5b6148e686828701614666565b9150509250925092565b6000806040838503121561490357600080fd5b600083013567ffffffffffffffff81111561491d57600080fd5b61492985828601614666565b925050602061493a8582860161476e565b9150509250929050565b60008060008060008060c0878903121561495d57600080fd5b600087013567ffffffffffffffff81111561497757600080fd5b61498389828a01614666565b965050602061499489828a0161476e565b95505060406149a589828a0161476e565b94505060606149b689828a0161476e565b93505060806149c789828a0161476e565b92505060a06149d889828a0161476e565b9150509295509295509295565b6000602082840312156149f757600080fd5b600082013567ffffffffffffffff811115614a1157600080fd5b614a1d848285016146ba565b91505092915050565b600060208284031215614a3857600080fd5b6000614a468482850161476e565b91505092915050565b60008060408385031215614a6257600080fd5b6000614a708582860161476e565b925050602083013567ffffffffffffffff811115614a8d57600080fd5b614a9985828601614666565b9150509250929050565b600080600080600080600060e0888a031215614abe57600080fd5b6000614acc8a828b0161476e565b9750506020614add8a828b0161476e565b9650506040614aee8a828b0161476e565b9550506060614aff8a828b0161476e565b9450506080614b108a828b0161476e565b93505060a0614b218a828b0161476e565b92505060c0614b328a828b0161476e565b91505092959891949750929550565b6000614b4d8383614eaa565b905092915050565b614b5e816154b8565b82525050565b614b6d816154b8565b82525050565b6000614b7e8261544c565b614b88818561547a565b935083602082028501614b9a85615427565b8060005b85811015614bd65784840389528151614bb78582614b41565b9450614bc28361546d565b925060208a01995050600181019050614b9e565b50829750879550505050505092915050565b614bf1816154ca565b82525050565b614c00816154ca565b82525050565b6000614c1182615462565b614c1b818561549c565b9350614c2b81856020860161550f565b614c3481615542565b840191505092915050565b6000614c4a82615462565b614c5481856154ad565b9350614c6481856020860161550f565b80840191505092915050565b6000614c7b82615457565b614c85818561548b565b9350614c9581856020860161550f565b614c9e81615542565b840191505092915050565b6000614cb482615457565b614cbe818561549c565b9350614cce81856020860161550f565b614cd781615542565b840191505092915050565b6000614ced82615457565b614cf781856154ad565b9350614d0781856020860161550f565b80840191505092915050565b600081546001811660008114614d305760018114614d5557614d99565b607f6002830416614d4181876154ad565b955060ff1983168652808601935050614d99565b60028204614d6381876154ad565b9550614d6e85615437565b60005b82811015614d9057815481890152600182019150602081019050614d71565b82880195505050505b505092915050565b6000614dae60148361549c565b91507f7573657220616c6c7265616479206578736973740000000000000000000000006000830152602082019050919050565b6000614dee60188361549c565b91507f70617373776f7264206973206e6f7420636f72726563742000000000000000006000830152602082019050919050565b600060c0830160008301518482036000860152614e3e8282614c70565b9150506020830151614e536020860182615179565b506040830151614e666040860182615179565b506060830151614e796060860182615179565b506080830151614e8c6080860182615179565b5060a0830151614e9f60a0860182615179565b508091505092915050565b600060c0830160008301518482036000860152614ec78282614c70565b9150506020830151614edc6020860182615179565b506040830151614eef6040860182615179565b506060830151614f026060860182615179565b506080830151614f156080860182615179565b5060a0830151614f2860a0860182615179565b508091505092915050565b60006080830160008301518482036000860152614f50828261501a565b91505060208301518482036020860152614f6a828261501a565b9150506040830151614f7f6040860182615179565b506060830151614f926060860182615179565b508091505092915050565b600060a0830160008301518482036000860152614fba8282615108565b91505060208301518482036020860152614fd48282614b73565b9150506040830151614fe96040860182615179565b506060830151614ffc6060860182615179565b50608083015161500f6080860182614be8565b508091505092915050565b600060a08301600083015184820360008601526150378282615108565b915050602083015184820360208601526150518282614b73565b91505060408301516150666040860182615179565b5060608301516150796060860182615179565b50608083015161508c6080860182614be8565b508091505092915050565b600060808301600083015184820360008601526150b48282614c70565b915050602083015184820360208601526150ce8282614c70565b915050604083015184820360408601526150e88282614c70565b91505060608301516150fd6060860182614b55565b508091505092915050565b600060808301600083015184820360008601526151258282614c70565b9150506020830151848203602086015261513f8282614c70565b915050604083015184820360408601526151598282614c70565b915050606083015161516e6060860182614b55565b508091505092915050565b615182816154f6565b82525050565b615191816154f6565b82525050565b60006151a38284614ce2565b915081905092915050565b60006151ba8284614c3f565b915081905092915050565b60006151d18284614d13565b915081905092915050565b60006020820190506151f16000830184614b64565b92915050565b600060208201905061520c6000830184614bf7565b92915050565b60006080820190506152276000830187614bf7565b81810360208301526152398186615097565b90506152486040830185614bf7565b818103606083015261525a8184615097565b905095945050505050565b6000602082019050818103600083015261527f8184614c06565b905092915050565b600060808201905081810360008301526152a18187614ca9565b905081810360208301526152b58186614ca9565b905081810360408301526152c98185614ca9565b90506152d86060830184614b64565b95945050505050565b600060208201905081810360008301526152fa81614da1565b9050919050565b6000602082019050818103600083015261531a81614de1565b9050919050565b6000602082019050818103600083015261533b8184614e21565b905092915050565b6000602082019050818103600083015261535d8184614f33565b905092915050565b6000602082019050818103600083015261537f8184614f9d565b905092915050565b600060208201905061539c6000830184615188565b92915050565b6000604051905081810181811067ffffffffffffffff821117156153c557600080fd5b8060405250919050565b600067ffffffffffffffff8211156153e657600080fd5b601f19601f8301169050602081019050919050565b600067ffffffffffffffff82111561541257600080fd5b601f19601f8301169050602081019050919050565b6000819050602082019050919050565b60008190508160005260206000209050919050565b600081519050919050565b600081519050919050565b600081519050919050565b6000602082019050919050565b600082825260208201905092915050565b600082825260208201905092915050565b600082825260208201905092915050565b600081905092915050565b60006154c3826154d6565b9050919050565b60008115159050919050565b600073ffffffffffffffffffffffffffffffffffffffff82169050919050565b6000819050919050565b82818337600083830152505050565b60005b8381101561552d578082015181840152602081019050615512565b8381111561553c576000848401525b50505050565b6000601f19601f8301169050919050565b61555c816154b8565b811461556757600080fd5b50565b615573816154f6565b811461557e57600080fd5b5056fea365627a7a7231582007f045676d06539866980b5bf87bd941657f6035f24308c66bdc4fc143f98de06c6578706572696d656e74616cf564736f6c63430005100040",
  "source": "// SPDX-License-Identifier: MIT\r\npragma solidity >=0.4.0 < 0.8.0;\r\npragma experimental ABIEncoderV2;\r\n\r\ncontract NBA_gembller{\r\n    struct User{\r\n        string firtsName;\r\n        string username;\r\n        string password;\r\n        address userAddress;\r\n    }\r\n    \r\n struct BPlayer{\r\n      string name;\r\n      uint rebounds;\r\n      uint asists;\r\n      uint points;\r\n      uint blocks;\r\n      uint steals;\r\n\r\n    }\r\n    \r\n    \r\n  struct  UserGamble{\r\n        User user;\r\n        BPlayer []  players;\r\n        uint gambleAmount; \r\n        uint initialPrice;\r\n        bool valid;\r\n    }\r\n    \r\n   \r\n    struct GamblingBattle{\r\n        UserGamble userGamble1;\r\n        UserGamble userGamble2;\r\n        uint scoreUserGamble1;\r\n        uint scoreUserGamble2;\r\n    }\r\n\r\n      uint GamblingBattleNum;\r\n      User [] public userWhoWantToGambller;\r\n      uint  numberOfPlayers=2;\r\n      mapping(string => UserGamble)  userGambles;\r\n       mapping(string => BPlayer)  players;\r\n      mapping(string => User) usersMapping;\r\n      mapping(address => User) usersAddress;\r\n\r\n      mapping(uint => GamblingBattle) gamblingBattles;\r\n      mapping(string => bool) userExists;\r\n      mapping(address => bool) userExistsWithAddress;\r\n      mapping(string=>uint[]) userNameToBattle;\r\n      UserGamble userWaits_0;\r\n      UserGamble userWaits_500;\r\n      UserGamble userWaits_1000;\r\n    \r\n\r\n\r\n      constructor() public {    \r\n        GamblingBattleNum=1;\r\n        userWaits_0.valid=false;\r\n        userWaits_500.valid=false;\r\n        userWaits_1000.valid=false;\r\n        userWaits_0.initialPrice=0;\r\n        userWaits_500.initialPrice=500;\r\n        userWaits_1000.initialPrice=1000;\r\n      } \r\n       function register(string memory _firtsName,string  memory _username,string  memory _password) public  {\r\n        User memory _user=User(_firtsName,_username,_password,msg.sender);\r\n        require(!userExists[_user.username],\"user allready exsist\");\r\n        usersMapping[_username]=_user;\r\n        usersAddress[msg.sender]=_user;\r\n        userExists[_user.username] = true; \r\n        userExistsWithAddress[msg.sender]=true; \r\n        }\r\n\r\n      //return true if the user exsist and the password is correct \r\n      function login(string memory _username,string memory _password) public view returns (bool)  {\r\n         User memory _user=usersMapping[_username];\r\n         require(keccak256(abi.encodePacked((_user.password))) == keccak256(abi.encodePacked((_password))),\"password is not correct \");\r\n         return userExists[_username];\r\n         \r\n        }\r\n\r\n        function loginWithAddress(address _userAddress) public view returns (bool)  {\r\n         User memory _user=usersAddress[_userAddress];\r\n         return userExistsWithAddress[_userAddress];\r\n         \r\n        }\r\n          \r\n    function createPlayer( string memory _playerName,\r\n    uint _rebounds,uint _asists,uint _points ,uint _blocks,uint _steals) public {\r\n      BPlayer memory _player=BPlayer(_playerName,_rebounds,_asists,_points,_blocks,_steals);\r\n      players[_playerName]=_player;\r\n    }\r\n\r\n\r\n    function addPlayerToUser(string memory _username,string memory  _playerName) public \r\n      {\r\n       BPlayer memory _player=players[_playerName];\r\n      userGambles[_username].players.push(_player);\r\n\r\n      }\r\n    function addUserGambling(string memory _username,uint _initialPrice) public  returns(bool)  {   \r\n         \r\n\r\n          userGambles[_username].initialPrice=_initialPrice;\r\n          userGambles[_username].valid=true;\r\n          User memory _user=usersMapping[_username];\r\n          userGambles[_username].user=_user;\r\n          userGambles[_username].gambleAmount=calculateGamblePriceWinner(_initialPrice, _username);       \r\n\r\n          if(userGambles[_username].initialPrice==userWaits_0.initialPrice){\r\n               if (userWaits_0.valid==false){\r\n                userWaits_0=userGambles[_user.username];\r\n               return false;\r\n               }    \r\n          }else if(userGambles[_username].initialPrice==userWaits_500.initialPrice){\r\n            if (userWaits_500.valid==false){\r\n               userWaits_500=userGambles[_user.username];\r\n               return false;\r\n            }\r\n          }else{\r\n            if (userWaits_1000.valid==false){\r\n               userWaits_1000=userGambles[_user.username];\r\n               return false;\r\n             }\r\n          }\r\n\r\n        return true;\r\n     }\r\n    \r\n\r\n      function createBattle(string memory _username)public  {    \r\n        gamblingBattles[GamblingBattleNum].userGamble1= userGambles[_username];  //get the userGamble1\r\n      \r\n        if ( gamblingBattles[GamblingBattleNum].userGamble1.initialPrice==0){\r\n        gamblingBattles[GamblingBattleNum].userGamble2= userWaits_0;//get the usergamble2\r\n        userWaits_0.valid=false;\r\n        userNameToBattle[_username].push(GamblingBattleNum);\r\n        userNameToBattle[userWaits_0.user.username].push(GamblingBattleNum);\r\n        GamblingBattleNum+=1;\r\n        \r\n        }else if(gamblingBattles[GamblingBattleNum].userGamble1.initialPrice==500){\r\n        gamblingBattles[GamblingBattleNum].userGamble2= userWaits_500;//get the usergamble2   \r\n        userWaits_0.valid=false;\r\n        userNameToBattle[_username].push(GamblingBattleNum);\r\n        userNameToBattle[userWaits_500.user.username].push(GamblingBattleNum);\r\n        GamblingBattleNum+=1;\r\n\r\n        }else{\r\n          gamblingBattles[GamblingBattleNum].userGamble2= userWaits_1000;//get the usergamble2\r\n          userWaits_1000.valid=false;\r\n          userNameToBattle[_username].push(GamblingBattleNum);\r\n          userNameToBattle[userWaits_1000.user.username].push(GamblingBattleNum);\r\n          GamblingBattleNum+=1;\r\n        }\r\n        \r\n      }\r\n\r\n      \r\n    function calculateGamblePriceWinner(uint _price,string memory _username)public view returns(uint){\r\n      UserGamble storage _userGamble=userGambles[_username];\r\n       uint sum=0;\r\n      //check if there is length function of the array\r\n     \r\n      for (uint i=0;i<numberOfPlayers;i++){\r\n       sum+=calculataPlayerSum(_userGamble.players[i]);\r\n      }      \r\n      return sum+_price; \r\n    }\r\n    \r\n\r\n    function calculataPlayerSum(BPlayer memory player) public view returns(uint)\r\n    {\r\n    \r\n       uint priceOfPlayer=player.rebounds*10+player.points*5+player.steals*15+player.blocks*15\r\n       +player.asists*10;\r\n       return priceOfPlayer;\r\n    }\r\n          \r\n      \r\n      function calculateDayStatisticsOfPlayer(uint gambllerNum,uint battleNum,uint rebounds,uint asists,uint points ,\r\n      uint blocks,uint steals) public \r\n      {\r\n        GamblingBattle storage  battle = gamblingBattles[battleNum];\r\n        uint score= rebounds*5+asists *5 +points *10 +blocks* 7+steals *8;\r\n        if (gambllerNum==1){\r\n          battle.scoreUserGamble1+=score; \r\n        }else{\r\n           battle.scoreUserGamble2+=score; \r\n        }\r\n      }\r\n      \r\n\r\n\r\n      function winner(uint battleNum) public view returns(bool,User memory,bool,User memory)\r\n      {\r\n        GamblingBattle storage  battle = gamblingBattles[battleNum];\r\n         if(battle.scoreUserGamble1>battle.scoreUserGamble2){\r\n           return (true,battle.userGamble1.user,false,battle.userGamble2.user);\r\n         }else if(battle.scoreUserGamble1< battle.scoreUserGamble2){\r\n            return (false,battle.userGamble1.user,true,battle.userGamble2.user);\r\n         }\r\n           return (false,battle.userGamble1.user,false,battle.userGamble2.user);     \r\n       }\r\n\r\n\r\n     function updateStatisticOfPlayer(string memory _playerName,\r\n    uint _rebounds,uint _asists,uint _points ,uint _blocks,uint _steals) public {\r\n     \r\n      players[_playerName].rebounds+=_rebounds;\r\n      players[_playerName].asists+=_asists;\r\n      players[_playerName].points+=_points;\r\n      players[_playerName].blocks+=_blocks;\r\n      players[_playerName].steals+=_steals;\r\n      \r\n    }\r\n   \r\n\r\n\r\n   \r\n    //------just for test-----\r\n    \r\n    function getPlayer(string  memory _playername) public view returns(BPlayer memory ){\r\n     return players[_playername];\r\n    }\r\n     function getUserGambllerByUserName(string memory _username)public view returns(UserGamble memory){\r\n\r\n           UserGamble memory _userGamble= userGambles[_username];\r\n           return _userGamble;\r\n         \r\n    }\r\n     function getGamblingBattle(uint  battleNum)public view returns(GamblingBattle memory){\r\n        \r\n        //uint[] memory gamblingNumbers=userNameToBattle[username];\r\n        //GamblingBattle[] memory battles=new GamblingBattle[](gamblingNumbers.length);\r\n        //for (uint i=0;i<gamblingNumbers.length;i++){\r\n         GamblingBattle memory battle=gamblingBattles[battleNum];\r\n        \r\n        return battle;\r\n      }\r\n       \r\n      function getUserNameByAddress(address  _userAddress )public view returns(string memory)\r\n      {\r\n        return usersAddress[_userAddress].username;\r\n      }\r\n      function getUserAddressByUsername(string memory username) public view returns(address userAddress){\r\n        return usersMapping[username].userAddress;\r\n      }\r\n\r\n}",
  "sourcePath": "C:/blockchain frontend new/contracts/NBA_gembller.sol",
  "compiler": {
    "name": "solc",
    "version": "0.5.16+commit.9c3226ce.Emscripten.clang"
  },
  "schemaVersion": "3.3.4",
  "updatedAt": "2021-03-14T14:31:22.795Z",
  "devdoc": {
    "methods": {}
  },
  "userdoc": {
    "methods": {}
  }
}