{
  "contractName": "NBA_gembller",
  "abi": [
    {
      "inputs": [],
      "payable": false,
      "stateMutability": "nonpayable",
      "type": "constructor"
    },
    {
      "constant": true,
      "inputs": [
        {
          "internalType": "uint256",
          "name": "",
          "type": "uint256"
        }
      ],
      "name": "userWhoWantToGambller",
      "outputs": [
        {
          "internalType": "string",
          "name": "firtsName",
          "type": "string"
        },
        {
          "internalType": "string",
          "name": "username",
          "type": "string"
        },
        {
          "internalType": "string",
          "name": "password",
          "type": "string"
        },
        {
          "internalType": "address",
          "name": "userAddress",
          "type": "address"
        }
      ],
      "payable": false,
      "stateMutability": "view",
      "type": "function"
    },
    {
      "constant": false,
      "inputs": [
        {
          "internalType": "string",
          "name": "_firtsName",
          "type": "string"
        },
        {
          "internalType": "string",
          "name": "_username",
          "type": "string"
        },
        {
          "internalType": "string",
          "name": "_password",
          "type": "string"
        }
      ],
      "name": "register",
      "outputs": [],
      "payable": false,
      "stateMutability": "nonpayable",
      "type": "function"
    },
    {
      "constant": true,
      "inputs": [
        {
          "internalType": "string",
          "name": "_username",
          "type": "string"
        },
        {
          "internalType": "string",
          "name": "_password",
          "type": "string"
        }
      ],
      "name": "login",
      "outputs": [
        {
          "internalType": "bool",
          "name": "",
          "type": "bool"
        }
      ],
      "payable": false,
      "stateMutability": "view",
      "type": "function"
    },
    {
      "constant": true,
      "inputs": [
        {
          "internalType": "address",
          "name": "_userAddress",
          "type": "address"
        }
      ],
      "name": "loginWithAddress",
      "outputs": [
        {
          "internalType": "bool",
          "name": "",
          "type": "bool"
        }
      ],
      "payable": false,
      "stateMutability": "view",
      "type": "function"
    },
    {
      "constant": false,
      "inputs": [
        {
          "internalType": "string",
          "name": "_playerName",
          "type": "string"
        },
        {
          "internalType": "uint256",
          "name": "_rebounds",
          "type": "uint256"
        },
        {
          "internalType": "uint256",
          "name": "_asists",
          "type": "uint256"
        },
        {
          "internalType": "uint256",
          "name": "_points",
          "type": "uint256"
        },
        {
          "internalType": "uint256",
          "name": "_blocks",
          "type": "uint256"
        },
        {
          "internalType": "uint256",
          "name": "_steals",
          "type": "uint256"
        }
      ],
      "name": "createPlayer",
      "outputs": [],
      "payable": false,
      "stateMutability": "nonpayable",
      "type": "function"
    },
    {
      "constant": false,
      "inputs": [
        {
          "internalType": "string",
          "name": "_username",
          "type": "string"
        },
        {
          "internalType": "string",
          "name": "_playerName",
          "type": "string"
        }
      ],
      "name": "addPlayerToUser",
      "outputs": [],
      "payable": false,
      "stateMutability": "nonpayable",
      "type": "function"
    },
    {
      "constant": false,
      "inputs": [
        {
          "internalType": "string",
          "name": "_username",
          "type": "string"
        },
        {
          "internalType": "uint256",
          "name": "_initialPrice",
          "type": "uint256"
        }
      ],
      "name": "addUserGambling",
      "outputs": [
        {
          "internalType": "bool",
          "name": "status",
          "type": "bool"
        }
      ],
      "payable": false,
      "stateMutability": "nonpayable",
      "type": "function"
    },
    {
      "constant": false,
      "inputs": [
        {
          "internalType": "string",
          "name": "_username",
          "type": "string"
        }
      ],
      "name": "createBattle",
      "outputs": [],
      "payable": false,
      "stateMutability": "nonpayable",
      "type": "function"
    },
    {
      "constant": true,
      "inputs": [
        {
          "internalType": "uint256",
          "name": "_price",
          "type": "uint256"
        },
        {
          "internalType": "string",
          "name": "_username",
          "type": "string"
        }
      ],
      "name": "calculateGamblePriceWinner",
      "outputs": [
        {
          "internalType": "uint256",
          "name": "",
          "type": "uint256"
        }
      ],
      "payable": false,
      "stateMutability": "view",
      "type": "function"
    },
    {
      "constant": true,
      "inputs": [
        {
          "components": [
            {
              "internalType": "string",
              "name": "name",
              "type": "string"
            },
            {
              "internalType": "uint256",
              "name": "rebounds",
              "type": "uint256"
            },
            {
              "internalType": "uint256",
              "name": "asists",
              "type": "uint256"
            },
            {
              "internalType": "uint256",
              "name": "points",
              "type": "uint256"
            },
            {
              "internalType": "uint256",
              "name": "blocks",
              "type": "uint256"
            },
            {
              "internalType": "uint256",
              "name": "steals",
              "type": "uint256"
            }
          ],
          "internalType": "struct NBA_gembller.BPlayer",
          "name": "player",
          "type": "tuple"
        }
      ],
      "name": "calculataPlayerSum",
      "outputs": [
        {
          "internalType": "uint256",
          "name": "",
          "type": "uint256"
        }
      ],
      "payable": false,
      "stateMutability": "view",
      "type": "function"
    },
    {
      "constant": false,
      "inputs": [
        {
          "internalType": "uint256",
          "name": "gambllerNum",
          "type": "uint256"
        },
        {
          "internalType": "uint256",
          "name": "battleNum",
          "type": "uint256"
        },
        {
          "internalType": "uint256",
          "name": "rebounds",
          "type": "uint256"
        },
        {
          "internalType": "uint256",
          "name": "asists",
          "type": "uint256"
        },
        {
          "internalType": "uint256",
          "name": "points",
          "type": "uint256"
        },
        {
          "internalType": "uint256",
          "name": "blocks",
          "type": "uint256"
        },
        {
          "internalType": "uint256",
          "name": "steals",
          "type": "uint256"
        }
      ],
      "name": "calculateDayStatisticsOfPlayer",
      "outputs": [],
      "payable": false,
      "stateMutability": "nonpayable",
      "type": "function"
    },
    {
      "constant": false,
      "inputs": [
        {
          "internalType": "uint256",
          "name": "battleNum",
          "type": "uint256"
        }
      ],
      "name": "winner",
      "outputs": [
        {
          "internalType": "bool",
          "name": "",
          "type": "bool"
        },
        {
          "components": [
            {
              "internalType": "string",
              "name": "firtsName",
              "type": "string"
            },
            {
              "internalType": "string",
              "name": "username",
              "type": "string"
            },
            {
              "internalType": "string",
              "name": "password",
              "type": "string"
            },
            {
              "internalType": "address",
              "name": "userAddress",
              "type": "address"
            }
          ],
          "internalType": "struct NBA_gembller.User",
          "name": "",
          "type": "tuple"
        },
        {
          "internalType": "bool",
          "name": "",
          "type": "bool"
        },
        {
          "components": [
            {
              "internalType": "string",
              "name": "firtsName",
              "type": "string"
            },
            {
              "internalType": "string",
              "name": "username",
              "type": "string"
            },
            {
              "internalType": "string",
              "name": "password",
              "type": "string"
            },
            {
              "internalType": "address",
              "name": "userAddress",
              "type": "address"
            }
          ],
          "internalType": "struct NBA_gembller.User",
          "name": "",
          "type": "tuple"
        }
      ],
      "payable": false,
      "stateMutability": "nonpayable",
      "type": "function"
    },
    {
      "constant": false,
      "inputs": [
        {
          "internalType": "string",
          "name": "_playerName",
          "type": "string"
        },
        {
          "internalType": "uint256",
          "name": "_rebounds",
          "type": "uint256"
        },
        {
          "internalType": "uint256",
          "name": "_asists",
          "type": "uint256"
        },
        {
          "internalType": "uint256",
          "name": "_points",
          "type": "uint256"
        },
        {
          "internalType": "uint256",
          "name": "_blocks",
          "type": "uint256"
        },
        {
          "internalType": "uint256",
          "name": "_steals",
          "type": "uint256"
        }
      ],
      "name": "updateStatisticOfPlayer",
      "outputs": [],
      "payable": false,
      "stateMutability": "nonpayable",
      "type": "function"
    },
    {
      "constant": false,
      "inputs": [
        {
          "internalType": "string",
          "name": "username",
          "type": "string"
        }
      ],
      "name": "getBattleNumbers",
      "outputs": [
        {
          "internalType": "uint256[]",
          "name": "",
          "type": "uint256[]"
        }
      ],
      "payable": false,
      "stateMutability": "nonpayable",
      "type": "function"
    },
    {
      "constant": true,
      "inputs": [
        {
          "internalType": "string",
          "name": "_playername",
          "type": "string"
        }
      ],
      "name": "getPlayer",
      "outputs": [
        {
          "components": [
            {
              "internalType": "string",
              "name": "name",
              "type": "string"
            },
            {
              "internalType": "uint256",
              "name": "rebounds",
              "type": "uint256"
            },
            {
              "internalType": "uint256",
              "name": "asists",
              "type": "uint256"
            },
            {
              "internalType": "uint256",
              "name": "points",
              "type": "uint256"
            },
            {
              "internalType": "uint256",
              "name": "blocks",
              "type": "uint256"
            },
            {
              "internalType": "uint256",
              "name": "steals",
              "type": "uint256"
            }
          ],
          "internalType": "struct NBA_gembller.BPlayer",
          "name": "",
          "type": "tuple"
        }
      ],
      "payable": false,
      "stateMutability": "view",
      "type": "function"
    },
    {
      "constant": true,
      "inputs": [
        {
          "internalType": "string",
          "name": "_username",
          "type": "string"
        }
      ],
      "name": "getUserGambllerByUserName",
      "outputs": [
        {
          "components": [
            {
              "components": [
                {
                  "internalType": "string",
                  "name": "firtsName",
                  "type": "string"
                },
                {
                  "internalType": "string",
                  "name": "username",
                  "type": "string"
                },
                {
                  "internalType": "string",
                  "name": "password",
                  "type": "string"
                },
                {
                  "internalType": "address",
                  "name": "userAddress",
                  "type": "address"
                }
              ],
              "internalType": "struct NBA_gembller.User",
              "name": "user",
              "type": "tuple"
            },
            {
              "components": [
                {
                  "internalType": "string",
                  "name": "name",
                  "type": "string"
                },
                {
                  "internalType": "uint256",
                  "name": "rebounds",
                  "type": "uint256"
                },
                {
                  "internalType": "uint256",
                  "name": "asists",
                  "type": "uint256"
                },
                {
                  "internalType": "uint256",
                  "name": "points",
                  "type": "uint256"
                },
                {
                  "internalType": "uint256",
                  "name": "blocks",
                  "type": "uint256"
                },
                {
                  "internalType": "uint256",
                  "name": "steals",
                  "type": "uint256"
                }
              ],
              "internalType": "struct NBA_gembller.BPlayer[]",
              "name": "players",
              "type": "tuple[]"
            },
            {
              "internalType": "uint256",
              "name": "gambleAmount",
              "type": "uint256"
            },
            {
              "internalType": "uint256",
              "name": "initialPrice",
              "type": "uint256"
            },
            {
              "internalType": "bool",
              "name": "valid",
              "type": "bool"
            }
          ],
          "internalType": "struct NBA_gembller.UserGamble",
          "name": "",
          "type": "tuple"
        }
      ],
      "payable": false,
      "stateMutability": "view",
      "type": "function"
    },
    {
      "constant": true,
      "inputs": [
        {
          "internalType": "uint256",
          "name": "battleNum",
          "type": "uint256"
        }
      ],
      "name": "getGamblingBattle",
      "outputs": [
        {
          "components": [
            {
              "components": [
                {
                  "components": [
                    {
                      "internalType": "string",
                      "name": "firtsName",
                      "type": "string"
                    },
                    {
                      "internalType": "string",
                      "name": "username",
                      "type": "string"
                    },
                    {
                      "internalType": "string",
                      "name": "password",
                      "type": "string"
                    },
                    {
                      "internalType": "address",
                      "name": "userAddress",
                      "type": "address"
                    }
                  ],
                  "internalType": "struct NBA_gembller.User",
                  "name": "user",
                  "type": "tuple"
                },
                {
                  "components": [
                    {
                      "internalType": "string",
                      "name": "name",
                      "type": "string"
                    },
                    {
                      "internalType": "uint256",
                      "name": "rebounds",
                      "type": "uint256"
                    },
                    {
                      "internalType": "uint256",
                      "name": "asists",
                      "type": "uint256"
                    },
                    {
                      "internalType": "uint256",
                      "name": "points",
                      "type": "uint256"
                    },
                    {
                      "internalType": "uint256",
                      "name": "blocks",
                      "type": "uint256"
                    },
                    {
                      "internalType": "uint256",
                      "name": "steals",
                      "type": "uint256"
                    }
                  ],
                  "internalType": "struct NBA_gembller.BPlayer[]",
                  "name": "players",
                  "type": "tuple[]"
                },
                {
                  "internalType": "uint256",
                  "name": "gambleAmount",
                  "type": "uint256"
                },
                {
                  "internalType": "uint256",
                  "name": "initialPrice",
                  "type": "uint256"
                },
                {
                  "internalType": "bool",
                  "name": "valid",
                  "type": "bool"
                }
              ],
              "internalType": "struct NBA_gembller.UserGamble",
              "name": "userGamble1",
              "type": "tuple"
            },
            {
              "components": [
                {
                  "components": [
                    {
                      "internalType": "string",
                      "name": "firtsName",
                      "type": "string"
                    },
                    {
                      "internalType": "string",
                      "name": "username",
                      "type": "string"
                    },
                    {
                      "internalType": "string",
                      "name": "password",
                      "type": "string"
                    },
                    {
                      "internalType": "address",
                      "name": "userAddress",
                      "type": "address"
                    }
                  ],
                  "internalType": "struct NBA_gembller.User",
                  "name": "user",
                  "type": "tuple"
                },
                {
                  "components": [
                    {
                      "internalType": "string",
                      "name": "name",
                      "type": "string"
                    },
                    {
                      "internalType": "uint256",
                      "name": "rebounds",
                      "type": "uint256"
                    },
                    {
                      "internalType": "uint256",
                      "name": "asists",
                      "type": "uint256"
                    },
                    {
                      "internalType": "uint256",
                      "name": "points",
                      "type": "uint256"
                    },
                    {
                      "internalType": "uint256",
                      "name": "blocks",
                      "type": "uint256"
                    },
                    {
                      "internalType": "uint256",
                      "name": "steals",
                      "type": "uint256"
                    }
                  ],
                  "internalType": "struct NBA_gembller.BPlayer[]",
                  "name": "players",
                  "type": "tuple[]"
                },
                {
                  "internalType": "uint256",
                  "name": "gambleAmount",
                  "type": "uint256"
                },
                {
                  "internalType": "uint256",
                  "name": "initialPrice",
                  "type": "uint256"
                },
                {
                  "internalType": "bool",
                  "name": "valid",
                  "type": "bool"
                }
              ],
              "internalType": "struct NBA_gembller.UserGamble",
              "name": "userGamble2",
              "type": "tuple"
            },
            {
              "internalType": "uint256",
              "name": "scoreUserGamble1",
              "type": "uint256"
            },
            {
              "internalType": "uint256",
              "name": "scoreUserGamble2",
              "type": "uint256"
            }
          ],
          "internalType": "struct NBA_gembller.GamblingBattle",
          "name": "",
          "type": "tuple"
        }
      ],
      "payable": false,
      "stateMutability": "view",
      "type": "function"
    },
    {
      "constant": true,
      "inputs": [
        {
          "internalType": "address",
          "name": "_userAddress",
          "type": "address"
        }
      ],
      "name": "getUserNameByAddress",
      "outputs": [
        {
          "internalType": "string",
          "name": "",
          "type": "string"
        }
      ],
      "payable": false,
      "stateMutability": "view",
      "type": "function"
    },
    {
      "constant": true,
      "inputs": [
        {
          "internalType": "string",
          "name": "username",
          "type": "string"
        }
      ],
      "name": "getUserAddressByUsername",
      "outputs": [
        {
          "internalType": "address",
          "name": "userAddress",
          "type": "address"
        }
      ],
      "payable": false,
      "stateMutability": "view",
      "type": "function"
    }
  ],
  "bytecode": "0x6080604052600260035534801561001557600080fd5b506001808190555060008060006101000a81548160ff0219169083151502179055506000600c600601819055506101f46014600601819055506103e8601c60060181905550615792806200006a6000396000f3fe608060405234801561001057600080fd5b50600436106101215760003560e01c80634cd08d03116100ad578063d01772ce11610071578063d01772ce14610368578063d4ffd89d14610398578063df9c43a4146103c8578063dfda4a57146103f8578063e47c5e331461041457610121565b80634cd08d03146102a057806355940c4f146102bc57806358467dbc146102d85780636423e2d5146103085780639b45976b1461033857610121565b80631cbeae5e116100f45780631cbeae5e146101be5780631f11b24f146101f15780632bc33d90146102215780632ca045221461025457806337edf7f01461027057610121565b806303b31cbd1461012657806310fe472b146101565780631541b2c31461018657806319343efb146101a2575b600080fd5b610140600480360361013b91908101906148a9565b610444565b60405161014d91906154fa565b60405180910390f35b610170600480360361016b9190810190614880565b61083a565b60405161017d91906153fa565b60405180910390f35b6101a0600480360361019b9190810190614ba0565b61091e565b005b6101bc60048036036101b79190810190614a41565b61098f565b005b6101d860048036036101d39190810190614b23565b610a40565b6040516101e894939291906153a7565b60405180910390f35b61020b600480360361020691908101906148a9565b6118d0565b60405161021891906154b6565b60405180910390f35b61023b60048036036102369190810190614b23565b6119dc565b60405161024b949392919061541c565b60405180910390f35b61026e600480360361026991908101906148a9565b611c01565b005b61028a600480360361028591908101906148a9565b61243c565b604051610297919061536a565b60405180910390f35b6102ba60048036036102b59190810190614956565b6124b2565b005b6102d660048036036102d191908101906148ea565b61279d565b005b6102f260048036036102ed91908101906148ea565b612948565b6040516102ff919061538c565b60405180910390f35b610322600480360361031d9190810190614b23565b612c80565b60405161032f91906154d8565b60405180910390f35b610352600480360361034d91908101906149ed565b613459565b60405161035f919061538c565b60405180910390f35b610382600480360361037d9190810190614ae2565b613d4b565b60405161038f919061551c565b60405180910390f35b6103b260048036036103ad9190810190614b4c565b613d85565b6040516103bf919061551c565b60405180910390f35b6103e260048036036103dd9190810190614880565b613ee0565b6040516103ef919061538c565b60405180910390f35b610412600480360361040d9190810190614a41565b6141c7565b005b61042e600480360361042991908101906148a9565b6142ba565b60405161043b919061534f565b60405180910390f35b61044c614305565b610454614305565b6004836040516104649190615321565b90815260200160405180910390206040518060a001604052908160008201604051806080016040529081600082018054600181600116156101000203166002900480601f0160208091040260200160405190810160405280929190818152602001828054600181600116156101000203166002900480156105265780601f106104fb57610100808354040283529160200191610526565b820191906000526020600020905b81548152906001019060200180831161050957829003601f168201915b50505050508152602001600182018054600181600116156101000203166002900480601f0160208091040260200160405190810160405280929190818152602001828054600181600116156101000203166002900480156105c85780601f1061059d576101008083540402835291602001916105c8565b820191906000526020600020905b8154815290600101906020018083116105ab57829003601f168201915b50505050508152602001600282018054600181600116156101000203166002900480601f01602080910402602001604051908101604052809291908181526020018280546001816001161561010002031660029004801561066a5780601f1061063f5761010080835404028352916020019161066a565b820191906000526020600020905b81548152906001019060200180831161064d57829003601f168201915b505050505081526020016003820160009054906101000a900473ffffffffffffffffffffffffffffffffffffffff1673ffffffffffffffffffffffffffffffffffffffff1673ffffffffffffffffffffffffffffffffffffffff1681525050815260200160048201805480602002602001604051908101604052809291908181526020016000905b828210156107f857838290600052602060002090600602016040518060c0016040529081600082018054600181600116156101000203166002900480601f0160208091040260200160405190810160405280929190818152602001828054600181600116156101000203166002900480156107ae5780601f10610783576101008083540402835291602001916107ae565b820191906000526020600020905b81548152906001019060200180831161079157829003601f168201915b5050505050815260200160018201548152602001600282015481526020016003820154815260200160048201548152602001600582015481525050815260200190600101906106f2565b50505050815260200160058201548152602001600682015481526020016007820160009054906101000a900460ff161515151581525050905080915050919050565b6060600760008373ffffffffffffffffffffffffffffffffffffffff1673ffffffffffffffffffffffffffffffffffffffff1681526020019081526020016000206001018054600181600116156101000203166002900480601f0160208091040260200160405190810160405280929190818152602001828054600181600116156101000203166002900480156109125780601f106108e757610100808354040283529160200191610912565b820191906000526020600020905b8154815290600101906020018083116108f557829003601f168201915b50505050509050919050565b600060086000888152602001908152602001600020905060006008830260078502600a87026005890260058b02010101019050600189141561097157808260100160008282540192505081905550610984565b8082601101600082825401925050819055505b505050505050505050565b61099761433c565b6040518060c00160405280888152602001878152602001868152602001858152602001848152602001838152509050806005886040516109d79190615321565b90815260200160405180910390206000820151816000019080519060200190610a01929190614372565b506020820151816001015560408201518160020155606082015181600301556080820151816004015560a0820151816005015590505050505050505050565b6000610a4a6143f2565b6000610a546143f2565b6000600860008781526020019081526020016000209050806000016004016000610a7e9190614430565b806008016004016000610a919190614430565b806011015481601001541115610f555760018160000160000160008360080160000182604051806080016040529081600082018054600181600116156101000203166002900480601f016020809104026020016040519081016040528092919081815260200182805460018160011615610100020316600290048015610b585780601f10610b2d57610100808354040283529160200191610b58565b820191906000526020600020905b815481529060010190602001808311610b3b57829003601f168201915b50505050508152602001600182018054600181600116156101000203166002900480601f016020809104026020016040519081016040528092919081815260200182805460018160011615610100020316600290048015610bfa5780601f10610bcf57610100808354040283529160200191610bfa565b820191906000526020600020905b815481529060010190602001808311610bdd57829003601f168201915b50505050508152602001600282018054600181600116156101000203166002900480601f016020809104026020016040519081016040528092919081815260200182805460018160011615610100020316600290048015610c9c5780601f10610c7157610100808354040283529160200191610c9c565b820191906000526020600020905b815481529060010190602001808311610c7f57829003601f168201915b505050505081526020016003820160009054906101000a900473ffffffffffffffffffffffffffffffffffffffff1673ffffffffffffffffffffffffffffffffffffffff1673ffffffffffffffffffffffffffffffffffffffff1681525050925080604051806080016040529081600082018054600181600116156101000203166002900480601f016020809104026020016040519081016040528092919081815260200182805460018160011615610100020316600290048015610da25780601f10610d7757610100808354040283529160200191610da2565b820191906000526020600020905b815481529060010190602001808311610d8557829003601f168201915b50505050508152602001600182018054600181600116156101000203166002900480601f016020809104026020016040519081016040528092919081815260200182805460018160011615610100020316600290048015610e445780601f10610e1957610100808354040283529160200191610e44565b820191906000526020600020905b815481529060010190602001808311610e2757829003601f168201915b50505050508152602001600282018054600181600116156101000203166002900480601f016020809104026020016040519081016040528092919081815260200182805460018160011615610100020316600290048015610ee65780601f10610ebb57610100808354040283529160200191610ee6565b820191906000526020600020905b815481529060010190602001808311610ec957829003601f168201915b505050505081526020016003820160009054906101000a900473ffffffffffffffffffffffffffffffffffffffff1673ffffffffffffffffffffffffffffffffffffffff1673ffffffffffffffffffffffffffffffffffffffff168152505090509450945094509450506118c9565b8060110154816010015410156114195760008160000160000160018360080160000182604051806080016040529081600082018054600181600116156101000203166002900480601f01602080910402602001604051908101604052809291908181526020018280546001816001161561010002031660029004801561101c5780601f10610ff15761010080835404028352916020019161101c565b820191906000526020600020905b815481529060010190602001808311610fff57829003601f168201915b50505050508152602001600182018054600181600116156101000203166002900480601f0160208091040260200160405190810160405280929190818152602001828054600181600116156101000203166002900480156110be5780601f10611093576101008083540402835291602001916110be565b820191906000526020600020905b8154815290600101906020018083116110a157829003601f168201915b50505050508152602001600282018054600181600116156101000203166002900480601f0160208091040260200160405190810160405280929190818152602001828054600181600116156101000203166002900480156111605780601f1061113557610100808354040283529160200191611160565b820191906000526020600020905b81548152906001019060200180831161114357829003601f168201915b505050505081526020016003820160009054906101000a900473ffffffffffffffffffffffffffffffffffffffff1673ffffffffffffffffffffffffffffffffffffffff1673ffffffffffffffffffffffffffffffffffffffff1681525050925080604051806080016040529081600082018054600181600116156101000203166002900480601f0160208091040260200160405190810160405280929190818152602001828054600181600116156101000203166002900480156112665780601f1061123b57610100808354040283529160200191611266565b820191906000526020600020905b81548152906001019060200180831161124957829003601f168201915b50505050508152602001600182018054600181600116156101000203166002900480601f0160208091040260200160405190810160405280929190818152602001828054600181600116156101000203166002900480156113085780601f106112dd57610100808354040283529160200191611308565b820191906000526020600020905b8154815290600101906020018083116112eb57829003601f168201915b50505050508152602001600282018054600181600116156101000203166002900480601f0160208091040260200160405190810160405280929190818152602001828054600181600116156101000203166002900480156113aa5780601f1061137f576101008083540402835291602001916113aa565b820191906000526020600020905b81548152906001019060200180831161138d57829003601f168201915b505050505081526020016003820160009054906101000a900473ffffffffffffffffffffffffffffffffffffffff1673ffffffffffffffffffffffffffffffffffffffff1673ffffffffffffffffffffffffffffffffffffffff168152505090509450945094509450506118c9565b60008160000160000160008360080160000182604051806080016040529081600082018054600181600116156101000203166002900480601f0160208091040260200160405190810160405280929190818152602001828054600181600116156101000203166002900480156114d05780601f106114a5576101008083540402835291602001916114d0565b820191906000526020600020905b8154815290600101906020018083116114b357829003601f168201915b50505050508152602001600182018054600181600116156101000203166002900480601f0160208091040260200160405190810160405280929190818152602001828054600181600116156101000203166002900480156115725780601f1061154757610100808354040283529160200191611572565b820191906000526020600020905b81548152906001019060200180831161155557829003601f168201915b50505050508152602001600282018054600181600116156101000203166002900480601f0160208091040260200160405190810160405280929190818152602001828054600181600116156101000203166002900480156116145780601f106115e957610100808354040283529160200191611614565b820191906000526020600020905b8154815290600101906020018083116115f757829003601f168201915b505050505081526020016003820160009054906101000a900473ffffffffffffffffffffffffffffffffffffffff1673ffffffffffffffffffffffffffffffffffffffff1673ffffffffffffffffffffffffffffffffffffffff1681525050925080604051806080016040529081600082018054600181600116156101000203166002900480601f01602080910402602001604051908101604052809291908181526020018280546001816001161561010002031660029004801561171a5780601f106116ef5761010080835404028352916020019161171a565b820191906000526020600020905b8154815290600101906020018083116116fd57829003601f168201915b50505050508152602001600182018054600181600116156101000203166002900480601f0160208091040260200160405190810160405280929190818152602001828054600181600116156101000203166002900480156117bc5780601f10611791576101008083540402835291602001916117bc565b820191906000526020600020905b81548152906001019060200180831161179f57829003601f168201915b50505050508152602001600282018054600181600116156101000203166002900480601f01602080910402602001604051908101604052809291908181526020018280546001816001161561010002031660029004801561185e5780601f106118335761010080835404028352916020019161185e565b820191906000526020600020905b81548152906001019060200180831161184157829003601f168201915b505050505081526020016003820160009054906101000a900473ffffffffffffffffffffffffffffffffffffffff1673ffffffffffffffffffffffffffffffffffffffff1673ffffffffffffffffffffffffffffffffffffffff168152505090509450945094509450505b9193509193565b6118d861433c565b6005826040516118e89190615321565b90815260200160405180910390206040518060c0016040529081600082018054600181600116156101000203166002900480601f01602080910402602001604051908101604052809291908181526020018280546001816001161561010002031660029004801561199a5780601f1061196f5761010080835404028352916020019161199a565b820191906000526020600020905b81548152906001019060200180831161197d57829003601f168201915b50505050508152602001600182015481526020016002820154815260200160038201548152602001600482015481526020016005820154815250509050919050565b600281815481106119e957fe5b9060005260206000209060040201600091509050806000018054600181600116156101000203166002900480601f016020809104026020016040519081016040528092919081815260200182805460018160011615610100020316600290048015611a955780601f10611a6a57610100808354040283529160200191611a95565b820191906000526020600020905b815481529060010190602001808311611a7857829003601f168201915b505050505090806001018054600181600116156101000203166002900480601f016020809104026020016040519081016040528092919081815260200182805460018160011615610100020316600290048015611b335780601f10611b0857610100808354040283529160200191611b33565b820191906000526020600020905b815481529060010190602001808311611b1657829003601f168201915b505050505090806002018054600181600116156101000203166002900480601f016020809104026020016040519081016040528092919081815260200182805460018160011615610100020316600290048015611bd15780601f10611ba657610100808354040283529160200191611bd1565b820191906000526020600020905b815481529060010190602001808311611bb457829003601f168201915b5050505050908060030160009054906101000a900473ffffffffffffffffffffffffffffffffffffffff16905084565b600481604051611c119190615321565b9081526020016040518091039020600860006001548152602001908152602001600020600001600082018160000160008201816000019080546001816001161561010002031660029004611c66929190614454565b5060018201816001019080546001816001161561010002031660029004611c8e929190614454565b5060028201816002019080546001816001161561010002031660029004611cb6929190614454565b506003820160009054906101000a900473ffffffffffffffffffffffffffffffffffffffff168160030160006101000a81548173ffffffffffffffffffffffffffffffffffffffff021916908373ffffffffffffffffffffffffffffffffffffffff16021790555050506004820181600401908054611d369291906144db565b5060058201548160050155600682015481600601556007820160009054906101000a900460ff168160070160006101000a81548160ff0219169083151502179055509050506000600860006001548152602001908152602001600020600001600601541415611fc757600c600860006001548152602001908152602001600020600801600082018160000160008201816000019080546001816001161561010002031660029004611de8929190614454565b5060018201816001019080546001816001161561010002031660029004611e10929190614454565b5060028201816002019080546001816001161561010002031660029004611e38929190614454565b506003820160009054906101000a900473ffffffffffffffffffffffffffffffffffffffff168160030160006101000a81548173ffffffffffffffffffffffffffffffffffffffff021916908373ffffffffffffffffffffffffffffffffffffffff16021790555050506004820181600401908054611eb89291906144db565b5060058201548160050155600682015481600601556007820160009054906101000a900460ff168160070160006101000a81548160ff02191690831515021790555090505060008060006101000a81548160ff021916908315150217905550600b81604051611f279190615321565b90815260200160405180910390206001549080600181540180825580915050906001820390600052602060002001600090919290919091505550600b600c600001600101604051611f789190615338565b9081526020016040518091039020600154908060018154018082558091505090600182039060005260206000200160009091929091909150555060018060008282540192505081905550612439565b6101f4600860006001548152602001908152602001600020600001600601541415612214576014600860006001548152602001908152602001600020600801600082018160000160008201816000019080546001816001161561010002031660029004612035929190614454565b506001820181600101908054600181600116156101000203166002900461205d929190614454565b5060028201816002019080546001816001161561010002031660029004612085929190614454565b506003820160009054906101000a900473ffffffffffffffffffffffffffffffffffffffff168160030160006101000a81548173ffffffffffffffffffffffffffffffffffffffff021916908373ffffffffffffffffffffffffffffffffffffffff160217905550505060048201816004019080546121059291906144db565b5060058201548160050155600682015481600601556007820160009054906101000a900460ff168160070160006101000a81548160ff02191690831515021790555090505060008060006101000a81548160ff021916908315150217905550600b816040516121749190615321565b90815260200160405180910390206001549080600181540180825580915050906001820390600052602060002001600090919290919091505550600b60146000016001016040516121c59190615338565b9081526020016040518091039020600154908060018154018082558091505090600182039060005260206000200160009091929091909150555060018060008282540192505081905550612438565b601c60086000600154815260200190815260200160002060080160008201816000016000820181600001908054600181600116156101000203166002900461225d929190614454565b5060018201816001019080546001816001161561010002031660029004612285929190614454565b50600282018160020190805460018160011615610100020316600290046122ad929190614454565b506003820160009054906101000a900473ffffffffffffffffffffffffffffffffffffffff168160030160006101000a81548173ffffffffffffffffffffffffffffffffffffffff021916908373ffffffffffffffffffffffffffffffffffffffff1602179055505050600482018160040190805461232d9291906144db565b5060058201548160050155600682015481600601556007820160009054906101000a900460ff168160070160006101000a81548160ff02191690831515021790555090505060008060006101000a81548160ff021916908315150217905550600b8160405161239c9190615321565b90815260200160405180910390206001549080600181540180825580915050906001820390600052602060002001600090919290919091505550600b601c6000016001016040516123ed9190615338565b90815260200160405180910390206001549080600181540180825580915050906001820390600052602060002001600090919290919091505550600180600082825401925050819055505b5b50565b6060600b8260405161244e9190615321565b90815260200160405180910390208054806020026020016040519081016040528092919081815260200182805480156124a657602002820191906000526020600020905b815481526020019060010190808311612492575b50505050509050919050565b6124ba6143f2565b60405180608001604052808581526020018481526020018381526020013373ffffffffffffffffffffffffffffffffffffffff16815250905060098160200151604051612507919061530a565b908152602001604051809103902060009054906101000a900460ff1615612563576040517f08c379a000000000000000000000000000000000000000000000000000000000815260040161255a90615476565b60405180910390fd5b806006846040516125749190615321565b9081526020016040518091039020600082015181600001908051906020019061259e929190614372565b5060208201518160010190805190602001906125bb929190614372565b5060408201518160020190805190602001906125d8929190614372565b5060608201518160030160006101000a81548173ffffffffffffffffffffffffffffffffffffffff021916908373ffffffffffffffffffffffffffffffffffffffff16021790555090505080600760003373ffffffffffffffffffffffffffffffffffffffff1673ffffffffffffffffffffffffffffffffffffffff168152602001908152602001600020600082015181600001908051906020019061267f929190614372565b50602082015181600101908051906020019061269c929190614372565b5060408201518160020190805190602001906126b9929190614372565b5060608201518160030160006101000a81548173ffffffffffffffffffffffffffffffffffffffff021916908373ffffffffffffffffffffffffffffffffffffffff16021790555090505060016009826020015160405161271a919061530a565b908152602001604051809103902060006101000a81548160ff0219169083151502179055506001600a60003373ffffffffffffffffffffffffffffffffffffffff1673ffffffffffffffffffffffffffffffffffffffff16815260200190815260200160002060006101000a81548160ff02191690831515021790555050505050565b6127a561433c565b6005826040516127b59190615321565b90815260200160405180910390206040518060c0016040529081600082018054600181600116156101000203166002900480601f0160208091040260200160405190810160405280929190818152602001828054600181600116156101000203166002900480156128675780601f1061283c57610100808354040283529160200191612867565b820191906000526020600020905b81548152906001019060200180831161284a57829003601f168201915b505050505081526020016001820154815260200160028201548152602001600382015481526020016004820154815260200160058201548152505090506004836040516128b49190615321565b90815260200160405180910390206004018190806001815401808255809150509060018203906000526020600020906006020160009091929091909150600082015181600001908051906020019061290d929190614372565b506020820151816001015560408201518160020155606082015181600301556080820151816004015560a08201518160050155505050505050565b60006129526143f2565b6006846040516129629190615321565b9081526020016040518091039020604051806080016040529081600082018054600181600116156101000203166002900480601f016020809104026020016040519081016040528092919081815260200182805460018160011615610100020316600290048015612a145780601f106129e957610100808354040283529160200191612a14565b820191906000526020600020905b8154815290600101906020018083116129f757829003601f168201915b50505050508152602001600182018054600181600116156101000203166002900480601f016020809104026020016040519081016040528092919081815260200182805460018160011615610100020316600290048015612ab65780601f10612a8b57610100808354040283529160200191612ab6565b820191906000526020600020905b815481529060010190602001808311612a9957829003601f168201915b50505050508152602001600282018054600181600116156101000203166002900480601f016020809104026020016040519081016040528092919081815260200182805460018160011615610100020316600290048015612b585780601f10612b2d57610100808354040283529160200191612b58565b820191906000526020600020905b815481529060010190602001808311612b3b57829003601f168201915b505050505081526020016003820160009054906101000a900473ffffffffffffffffffffffffffffffffffffffff1673ffffffffffffffffffffffffffffffffffffffff1673ffffffffffffffffffffffffffffffffffffffff1681525050905082604051602001612bca9190615321565b604051602081830303815290604052805190602001208160400151604051602001612bf5919061530a565b6040516020818303038152906040528051906020012014612c4b576040517f08c379a0000000000000000000000000000000000000000000000000000000008152600401612c4290615496565b60405180910390fd5b600984604051612c5b9190615321565b908152602001604051809103902060009054906101000a900460ff1691505092915050565b612c8861458d565b612c9061458d565b60086000848152602001908152602001600020604051806080016040529081600082016040518060a001604052908160008201604051806080016040529081600082018054600181600116156101000203166002900480601f016020809104026020016040519081016040528092919081815260200182805460018160011615610100020316600290048015612d675780601f10612d3c57610100808354040283529160200191612d67565b820191906000526020600020905b815481529060010190602001808311612d4a57829003601f168201915b50505050508152602001600182018054600181600116156101000203166002900480601f016020809104026020016040519081016040528092919081815260200182805460018160011615610100020316600290048015612e095780601f10612dde57610100808354040283529160200191612e09565b820191906000526020600020905b815481529060010190602001808311612dec57829003601f168201915b50505050508152602001600282018054600181600116156101000203166002900480601f016020809104026020016040519081016040528092919081815260200182805460018160011615610100020316600290048015612eab5780601f10612e8057610100808354040283529160200191612eab565b820191906000526020600020905b815481529060010190602001808311612e8e57829003601f168201915b505050505081526020016003820160009054906101000a900473ffffffffffffffffffffffffffffffffffffffff1673ffffffffffffffffffffffffffffffffffffffff1673ffffffffffffffffffffffffffffffffffffffff1681525050815260200160048201805480602002602001604051908101604052809291908181526020016000905b8282101561303957838290600052602060002090600602016040518060c0016040529081600082018054600181600116156101000203166002900480601f016020809104026020016040519081016040528092919081815260200182805460018160011615610100020316600290048015612fef5780601f10612fc457610100808354040283529160200191612fef565b820191906000526020600020905b815481529060010190602001808311612fd257829003601f168201915b505050505081526020016001820154815260200160028201548152602001600382015481526020016004820154815260200160058201548152505081526020019060010190612f33565b50505050815260200160058201548152602001600682015481526020016007820160009054906101000a900460ff1615151515815250508152602001600882016040518060a001604052908160008201604051806080016040529081600082018054600181600116156101000203166002900480601f01602080910402602001604051908101604052809291908181526020018280546001816001161561010002031660029004801561312d5780601f106131025761010080835404028352916020019161312d565b820191906000526020600020905b81548152906001019060200180831161311057829003601f168201915b50505050508152602001600182018054600181600116156101000203166002900480601f0160208091040260200160405190810160405280929190818152602001828054600181600116156101000203166002900480156131cf5780601f106131a4576101008083540402835291602001916131cf565b820191906000526020600020905b8154815290600101906020018083116131b257829003601f168201915b50505050508152602001600282018054600181600116156101000203166002900480601f0160208091040260200160405190810160405280929190818152602001828054600181600116156101000203166002900480156132715780601f1061324657610100808354040283529160200191613271565b820191906000526020600020905b81548152906001019060200180831161325457829003601f168201915b505050505081526020016003820160009054906101000a900473ffffffffffffffffffffffffffffffffffffffff1673ffffffffffffffffffffffffffffffffffffffff1673ffffffffffffffffffffffffffffffffffffffff1681525050815260200160048201805480602002602001604051908101604052809291908181526020016000905b828210156133ff57838290600052602060002090600602016040518060c0016040529081600082018054600181600116156101000203166002900480601f0160208091040260200160405190810160405280929190818152602001828054600181600116156101000203166002900480156133b55780601f1061338a576101008083540402835291602001916133b5565b820191906000526020600020905b81548152906001019060200180831161339857829003601f168201915b5050505050815260200160018201548152602001600282015481526020016003820154815260200160048201548152602001600582015481525050815260200190600101906132f9565b50505050815260200160058201548152602001600682015481526020016007820160009054906101000a900460ff161515151581525050815260200160108201548152602001601182015481525050905080915050919050565b60008160048460405161346c9190615321565b9081526020016040518091039020600601819055506134896143f2565b6006846040516134999190615321565b9081526020016040518091039020604051806080016040529081600082018054600181600116156101000203166002900480601f01602080910402602001604051908101604052809291908181526020018280546001816001161561010002031660029004801561354b5780601f106135205761010080835404028352916020019161354b565b820191906000526020600020905b81548152906001019060200180831161352e57829003601f168201915b50505050508152602001600182018054600181600116156101000203166002900480601f0160208091040260200160405190810160405280929190818152602001828054600181600116156101000203166002900480156135ed5780601f106135c2576101008083540402835291602001916135ed565b820191906000526020600020905b8154815290600101906020018083116135d057829003601f168201915b50505050508152602001600282018054600181600116156101000203166002900480601f01602080910402602001604051908101604052809291908181526020018280546001816001161561010002031660029004801561368f5780601f106136645761010080835404028352916020019161368f565b820191906000526020600020905b81548152906001019060200180831161367257829003601f168201915b505050505081526020016003820160009054906101000a900473ffffffffffffffffffffffffffffffffffffffff1673ffffffffffffffffffffffffffffffffffffffff1673ffffffffffffffffffffffffffffffffffffffff16815250509050806004856040516137019190615321565b9081526020016040518091039020600001600082015181600001908051906020019061372e929190614372565b50602082015181600101908051906020019061374b929190614372565b506040820151816002019080519060200190613768929190614372565b5060608201518160030160006101000a81548173ffffffffffffffffffffffffffffffffffffffff021916908373ffffffffffffffffffffffffffffffffffffffff1602179055509050506137bd8385613d85565b6004856040516137cd9190615321565b908152602001604051809103902060050181905550600c600601546004856040516137f89190615321565b90815260200160405180910390206006015414156139bc57600015156000809054906101000a900460ff16151514156139b7576004816020015160405161383f919061530a565b9081526020016040518091039020600c60008201816000016000820181600001908054600181600116156101000203166002900461387e929190614454565b50600182018160010190805460018160011615610100020316600290046138a6929190614454565b50600282018160020190805460018160011615610100020316600290046138ce929190614454565b506003820160009054906101000a900473ffffffffffffffffffffffffffffffffffffffff168160030160006101000a81548173ffffffffffffffffffffffffffffffffffffffff021916908373ffffffffffffffffffffffffffffffffffffffff1602179055505050600482018160040190805461394e9291906144db565b5060058201548160050155600682015481600601556007820160009054906101000a900460ff168160070160006101000a81548160ff02191690831515021790555090505060016000806101000a81548160ff0219169083151502179055506000915050613d45565b613d3f565b6014600601546004856040516139d29190615321565b9081526020016040518091039020600601541415613b9657600015156000809054906101000a900460ff1615151415613b915760048160200151604051613a19919061530a565b90815260200160405180910390206014600082018160000160008201816000019080546001816001161561010002031660029004613a58929190614454565b5060018201816001019080546001816001161561010002031660029004613a80929190614454565b5060028201816002019080546001816001161561010002031660029004613aa8929190614454565b506003820160009054906101000a900473ffffffffffffffffffffffffffffffffffffffff168160030160006101000a81548173ffffffffffffffffffffffffffffffffffffffff021916908373ffffffffffffffffffffffffffffffffffffffff16021790555050506004820181600401908054613b289291906144db565b5060058201548160050155600682015481600601556007820160009054906101000a900460ff168160070160006101000a81548160ff02191690831515021790555090505060016000806101000a81548160ff0219169083151502179055506000915050613d45565b613d3e565b600015156000809054906101000a900460ff1615151415613d3d5760048160200151604051613bc5919061530a565b9081526020016040518091039020601c600082018160000160008201816000019080546001816001161561010002031660029004613c04929190614454565b5060018201816001019080546001816001161561010002031660029004613c2c929190614454565b5060028201816002019080546001816001161561010002031660029004613c54929190614454565b506003820160009054906101000a900473ffffffffffffffffffffffffffffffffffffffff168160030160006101000a81548173ffffffffffffffffffffffffffffffffffffffff021916908373ffffffffffffffffffffffffffffffffffffffff16021790555050506004820181600401908054613cd49291906144db565b5060058201548160050155600682015481600601556007820160009054906101000a900460ff168160070160006101000a81548160ff02191690831515021790555090505060016000806101000a81548160ff0219169083151502179055506000915050613d45565b5b5b60019150505b92915050565b600080600a836040015102600f846080015102600f8560a00151026005866060015102600a87602001510201010101905080915050919050565b600080600483604051613d989190615321565b90815260200160405180910390209050600080905060008090505b600354811015613ed257613ec1836004018281548110613dcf57fe5b90600052602060002090600602016040518060c0016040529081600082018054600181600116156101000203166002900480601f016020809104026020016040519081016040528092919081815260200182805460018160011615610100020316600290048015613e815780601f10613e5657610100808354040283529160200191613e81565b820191906000526020600020905b815481529060010190602001808311613e6457829003601f168201915b5050505050815260200160018201548152602001600282015481526020016003820154815260200160048201548152602001600582015481525050613d4b565b820191508080600101915050613db3565b508481019250505092915050565b6000613eea6143f2565b600760008473ffffffffffffffffffffffffffffffffffffffff1673ffffffffffffffffffffffffffffffffffffffff168152602001908152602001600020604051806080016040529081600082018054600181600116156101000203166002900480601f016020809104026020016040519081016040528092919081815260200182805460018160011615610100020316600290048015613fcd5780601f10613fa257610100808354040283529160200191613fcd565b820191906000526020600020905b815481529060010190602001808311613fb057829003601f168201915b50505050508152602001600182018054600181600116156101000203166002900480601f01602080910402602001604051908101604052809291908181526020018280546001816001161561010002031660029004801561406f5780601f106140445761010080835404028352916020019161406f565b820191906000526020600020905b81548152906001019060200180831161405257829003601f168201915b50505050508152602001600282018054600181600116156101000203166002900480601f0160208091040260200160405190810160405280929190818152602001828054600181600116156101000203166002900480156141115780601f106140e657610100808354040283529160200191614111565b820191906000526020600020905b8154815290600101906020018083116140f457829003601f168201915b505050505081526020016003820160009054906101000a900473ffffffffffffffffffffffffffffffffffffffff1673ffffffffffffffffffffffffffffffffffffffff1673ffffffffffffffffffffffffffffffffffffffff16815250509050600a60008473ffffffffffffffffffffffffffffffffffffffff1673ffffffffffffffffffffffffffffffffffffffff16815260200190815260200160002060009054906101000a900460ff16915050919050565b846005876040516141d89190615321565b908152602001604051809103902060010160008282540192505081905550836005876040516142079190615321565b908152602001604051809103902060020160008282540192505081905550826005876040516142369190615321565b908152602001604051809103902060030160008282540192505081905550816005876040516142659190615321565b908152602001604051809103902060040160008282540192505081905550806005876040516142949190615321565b908152602001604051809103902060050160008282540192505081905550505050505050565b60006006826040516142cc9190615321565b908152602001604051809103902060030160009054906101000a900473ffffffffffffffffffffffffffffffffffffffff169050919050565b6040518060a001604052806143186145c1565b81526020016060815260200160008152602001600081526020016000151581525090565b6040518060c001604052806060815260200160008152602001600081526020016000815260200160008152602001600081525090565b828054600181600116156101000203166002900490600052602060002090601f016020900481019282601f106143b357805160ff19168380011785556143e1565b828001600101855582156143e1579182015b828111156143e05782518255916020019190600101906143c5565b5b5090506143ee91906145ff565b5090565b6040518060800160405280606081526020016060815260200160608152602001600073ffffffffffffffffffffffffffffffffffffffff1681525090565b50805460008255600602906000526020600020908101906144519190614624565b50565b828054600181600116156101000203166002900490600052602060002090601f016020900481019282601f1061448d57805485556144ca565b828001600101855582156144ca57600052602060002091601f016020900482015b828111156144c95782548255916001019190600101906144ae565b5b5090506144d791906145ff565b5090565b82805482825590600052602060002090600602810192821561457c5760005260206000209160060282015b8281111561457b57828260008201816000019080546001816001161561010002031660029004614537929190614454565b506001820154816001015560028201548160020155600382015481600301556004820154816004015560058201548160050155505091600601919060060190614506565b5b5090506145899190614624565b5090565b60405180608001604052806145a061467b565b81526020016145ad61467b565b815260200160008152602001600081525090565b6040518060800160405280606081526020016060815260200160608152602001600073ffffffffffffffffffffffffffffffffffffffff1681525090565b61462191905b8082111561461d576000816000905550600101614605565b5090565b90565b61467891905b80821115614674576000808201600061464391906146b2565b600182016000905560028201600090556003820160009055600482016000905560058201600090555060060161462a565b5090565b90565b6040518060a0016040528061468e6145c1565b81526020016060815260200160008152602001600081526020016000151581525090565b50805460018160011615610100020316600290046000825580601f106146d857506146f7565b601f0160209004906000526020600020908101906146f691906145ff565b5b50565b60008135905061470981615721565b92915050565b600082601f83011261472057600080fd5b813561473361472e82615564565b615537565b9150808252602083016020830185838301111561474f57600080fd5b61475a8382846156ce565b50505092915050565b600082601f83011261477457600080fd5b813561478761478282615590565b615537565b915080825260208301602083018583830111156147a357600080fd5b6147ae8382846156ce565b50505092915050565b600060c082840312156147c957600080fd5b6147d360c0615537565b9050600082013567ffffffffffffffff8111156147ef57600080fd5b6147fb8482850161470f565b600083015250602061480f8482850161486b565b60208301525060406148238482850161486b565b60408301525060606148378482850161486b565b606083015250608061484b8482850161486b565b60808301525060a061485f8482850161486b565b60a08301525092915050565b60008135905061487a81615738565b92915050565b60006020828403121561489257600080fd5b60006148a0848285016146fa565b91505092915050565b6000602082840312156148bb57600080fd5b600082013567ffffffffffffffff8111156148d557600080fd5b6148e184828501614763565b91505092915050565b600080604083850312156148fd57600080fd5b600083013567ffffffffffffffff81111561491757600080fd5b61492385828601614763565b925050602083013567ffffffffffffffff81111561494057600080fd5b61494c85828601614763565b9150509250929050565b60008060006060848603121561496b57600080fd5b600084013567ffffffffffffffff81111561498557600080fd5b61499186828701614763565b935050602084013567ffffffffffffffff8111156149ae57600080fd5b6149ba86828701614763565b925050604084013567ffffffffffffffff8111156149d757600080fd5b6149e386828701614763565b9150509250925092565b60008060408385031215614a0057600080fd5b600083013567ffffffffffffffff811115614a1a57600080fd5b614a2685828601614763565b9250506020614a378582860161486b565b9150509250929050565b60008060008060008060c08789031215614a5a57600080fd5b600087013567ffffffffffffffff811115614a7457600080fd5b614a8089828a01614763565b9650506020614a9189828a0161486b565b9550506040614aa289828a0161486b565b9450506060614ab389828a0161486b565b9350506080614ac489828a0161486b565b92505060a0614ad589828a0161486b565b9150509295509295509295565b600060208284031215614af457600080fd5b600082013567ffffffffffffffff811115614b0e57600080fd5b614b1a848285016147b7565b91505092915050565b600060208284031215614b3557600080fd5b6000614b438482850161486b565b91505092915050565b60008060408385031215614b5f57600080fd5b6000614b6d8582860161486b565b925050602083013567ffffffffffffffff811115614b8a57600080fd5b614b9685828601614763565b9150509250929050565b600080600080600080600060e0888a031215614bbb57600080fd5b6000614bc98a828b0161486b565b9750506020614bda8a828b0161486b565b9650506040614beb8a828b0161486b565b9550506060614bfc8a828b0161486b565b9450506080614c0d8a828b0161486b565b93505060a0614c1e8a828b0161486b565b92505060c0614c2f8a828b0161486b565b91505092959891949750929550565b6000614c4a838361501d565b905092915050565b6000614c5e83836152ec565b60208301905092915050565b614c7381615686565b82525050565b614c8281615686565b82525050565b6000614c93826155f1565b614c9d8185615637565b935083602082028501614caf856155bc565b8060005b85811015614ceb5784840389528151614ccc8582614c3e565b9450614cd78361561d565b925060208a01995050600181019050614cb3565b50829750879550505050505092915050565b6000614d08826155fc565b614d128185615648565b9350614d1d836155cc565b8060005b83811015614d4e578151614d358882614c52565b9750614d408361562a565b925050600181019050614d21565b5085935050505092915050565b614d6481615698565b82525050565b614d7381615698565b82525050565b6000614d8482615612565b614d8e818561566a565b9350614d9e8185602086016156dd565b614da781615710565b840191505092915050565b6000614dbd82615612565b614dc7818561567b565b9350614dd78185602086016156dd565b80840191505092915050565b6000614dee82615607565b614df88185615659565b9350614e088185602086016156dd565b614e1181615710565b840191505092915050565b6000614e2782615607565b614e31818561566a565b9350614e418185602086016156dd565b614e4a81615710565b840191505092915050565b6000614e6082615607565b614e6a818561567b565b9350614e7a8185602086016156dd565b80840191505092915050565b600081546001811660008114614ea35760018114614ec857614f0c565b607f6002830416614eb4818761567b565b955060ff1983168652808601935050614f0c565b60028204614ed6818761567b565b9550614ee1856155dc565b60005b82811015614f0357815481890152600182019150602081019050614ee4565b82880195505050505b505092915050565b6000614f2160148361566a565b91507f7573657220616c6c7265616479206578736973740000000000000000000000006000830152602082019050919050565b6000614f6160188361566a565b91507f70617373776f7264206973206e6f7420636f72726563742000000000000000006000830152602082019050919050565b600060c0830160008301518482036000860152614fb18282614de3565b9150506020830151614fc660208601826152ec565b506040830151614fd960408601826152ec565b506060830151614fec60608601826152ec565b506080830151614fff60808601826152ec565b5060a083015161501260a08601826152ec565b508091505092915050565b600060c083016000830151848203600086015261503a8282614de3565b915050602083015161504f60208601826152ec565b50604083015161506260408601826152ec565b50606083015161507560608601826152ec565b50608083015161508860808601826152ec565b5060a083015161509b60a08601826152ec565b508091505092915050565b600060808301600083015184820360008601526150c3828261518d565b915050602083015184820360208601526150dd828261518d565b91505060408301516150f260408601826152ec565b50606083015161510560608601826152ec565b508091505092915050565b600060a083016000830151848203600086015261512d828261527b565b915050602083015184820360208601526151478282614c88565b915050604083015161515c60408601826152ec565b50606083015161516f60608601826152ec565b5060808301516151826080860182614d5b565b508091505092915050565b600060a08301600083015184820360008601526151aa828261527b565b915050602083015184820360208601526151c48282614c88565b91505060408301516151d960408601826152ec565b5060608301516151ec60608601826152ec565b5060808301516151ff6080860182614d5b565b508091505092915050565b600060808301600083015184820360008601526152278282614de3565b915050602083015184820360208601526152418282614de3565b9150506040830151848203604086015261525b8282614de3565b91505060608301516152706060860182614c6a565b508091505092915050565b600060808301600083015184820360008601526152988282614de3565b915050602083015184820360208601526152b28282614de3565b915050604083015184820360408601526152cc8282614de3565b91505060608301516152e16060860182614c6a565b508091505092915050565b6152f5816156c4565b82525050565b615304816156c4565b82525050565b60006153168284614e55565b915081905092915050565b600061532d8284614db2565b915081905092915050565b60006153448284614e86565b915081905092915050565b60006020820190506153646000830184614c79565b92915050565b600060208201905081810360008301526153848184614cfd565b905092915050565b60006020820190506153a16000830184614d6a565b92915050565b60006080820190506153bc6000830187614d6a565b81810360208301526153ce818661520a565b90506153dd6040830185614d6a565b81810360608301526153ef818461520a565b905095945050505050565b600060208201905081810360008301526154148184614d79565b905092915050565b600060808201905081810360008301526154368187614e1c565b9050818103602083015261544a8186614e1c565b9050818103604083015261545e8185614e1c565b905061546d6060830184614c79565b95945050505050565b6000602082019050818103600083015261548f81614f14565b9050919050565b600060208201905081810360008301526154af81614f54565b9050919050565b600060208201905081810360008301526154d08184614f94565b905092915050565b600060208201905081810360008301526154f281846150a6565b905092915050565b600060208201905081810360008301526155148184615110565b905092915050565b600060208201905061553160008301846152fb565b92915050565b6000604051905081810181811067ffffffffffffffff8211171561555a57600080fd5b8060405250919050565b600067ffffffffffffffff82111561557b57600080fd5b601f19601f8301169050602081019050919050565b600067ffffffffffffffff8211156155a757600080fd5b601f19601f8301169050602081019050919050565b6000819050602082019050919050565b6000819050602082019050919050565b60008190508160005260206000209050919050565b600081519050919050565b600081519050919050565b600081519050919050565b600081519050919050565b6000602082019050919050565b6000602082019050919050565b600082825260208201905092915050565b600082825260208201905092915050565b600082825260208201905092915050565b600082825260208201905092915050565b600081905092915050565b6000615691826156a4565b9050919050565b60008115159050919050565b600073ffffffffffffffffffffffffffffffffffffffff82169050919050565b6000819050919050565b82818337600083830152505050565b60005b838110156156fb5780820151818401526020810190506156e0565b8381111561570a576000848401525b50505050565b6000601f19601f8301169050919050565b61572a81615686565b811461573557600080fd5b50565b615741816156c4565b811461574c57600080fd5b5056fea365627a7a72315820bb45b0e44bab4be9f152fc9421705d2a6a665686ad8395d6a913f206aa2d755b6c6578706572696d656e74616cf564736f6c63430005100040",
  "source": "// SPDX-License-Identifier: MIT\r\npragma solidity >=0.4.0 < 0.8.0;\r\npragma experimental ABIEncoderV2;\r\n\r\ncontract NBA_gembller{\r\n    struct User{\r\n        string firtsName;\r\n        string username;\r\n        string password;\r\n        address userAddress;\r\n    }\r\n    \r\n struct BPlayer{\r\n      string name;\r\n      uint rebounds;\r\n      uint asists;\r\n      uint points;\r\n      uint blocks;\r\n      uint steals;\r\n\r\n    }\r\n    \r\n    \r\n  struct  UserGamble{\r\n        User user;\r\n        BPlayer []  players;\r\n        uint gambleAmount; \r\n        uint initialPrice;\r\n        bool valid;\r\n    }\r\n    \r\n   \r\n    struct GamblingBattle{\r\n        UserGamble userGamble1;\r\n        UserGamble userGamble2;\r\n        uint scoreUserGamble1;\r\n        uint scoreUserGamble2;\r\n    }\r\n      \r\n      bool isSecondGambller;\r\n      uint GamblingBattleNum;\r\n      User [] public userWhoWantToGambller;\r\n      uint  numberOfPlayers=2;\r\n      mapping(string => UserGamble)  userGambles;\r\n       mapping(string => BPlayer)  players;\r\n      mapping(string => User) usersMapping;\r\n      mapping(address => User) usersAddress;\r\n\r\n      mapping(uint => GamblingBattle) gamblingBattles;\r\n      mapping(string => bool) userExists;\r\n      mapping(address => bool) userExistsWithAddress;\r\n      mapping(string=>uint[]) userNameToBattle;\r\n      UserGamble userWaits_0;\r\n      UserGamble userWaits_500;\r\n      UserGamble userWaits_1000;\r\n    \r\n\r\n\r\n      constructor() public {\r\n\r\n        GamblingBattleNum=1;\r\n        isSecondGambller=false;\r\n        userWaits_0.initialPrice=0;\r\n        userWaits_500.initialPrice=500;\r\n        userWaits_1000.initialPrice=1000;\r\n      } \r\n       function register(string memory _firtsName,string  memory _username,string  memory _password) public  {\r\n        User memory _user=User(_firtsName,_username,_password,msg.sender);\r\n        require(!userExists[_user.username],\"user allready exsist\");\r\n        usersMapping[_username]=_user;\r\n        usersAddress[msg.sender]=_user;\r\n        userExists[_user.username] = true; \r\n        userExistsWithAddress[msg.sender]=true; \r\n        }\r\n\r\n      //return true if the user exsist and the password is correct \r\n      function login(string memory _username,string memory _password) public view returns (bool)  {\r\n         User memory _user=usersMapping[_username];\r\n         require(keccak256(abi.encodePacked((_user.password))) == keccak256(abi.encodePacked((_password))),\"password is not correct \");\r\n         return userExists[_username];\r\n         \r\n        }\r\n\r\n        function loginWithAddress(address _userAddress) public view returns (bool)  {\r\n         User memory _user=usersAddress[_userAddress];\r\n         return userExistsWithAddress[_userAddress];\r\n         \r\n        }\r\n          \r\n    function createPlayer( string memory _playerName,\r\n    uint _rebounds,uint _asists,uint _points ,uint _blocks,uint _steals) public {\r\n      BPlayer memory _player=BPlayer(_playerName,_rebounds,_asists,_points,_blocks,_steals);\r\n      players[_playerName]=_player;\r\n    }\r\n\r\n\r\n    function addPlayerToUser(string memory _username,string memory  _playerName) public \r\n      {\r\n      // require(userGambles[_username].players.length < 5,\"only 5 players is possible \");\r\n       BPlayer memory _player=players[_playerName];\r\n      userGambles[_username].players.push(_player);\r\n\r\n      }\r\n    function addUserGambling(string memory _username,uint _initialPrice) public  returns(bool status)  {   \r\n          userGambles[_username].initialPrice=_initialPrice;\r\n          User memory _user=usersMapping[_username];\r\n          userGambles[_username].user=_user;\r\n          userGambles[_username].gambleAmount=calculateGamblePriceWinner(_initialPrice, _username);       \r\n\r\n          if(userGambles[_username].initialPrice==userWaits_0.initialPrice){\r\n               if (isSecondGambller==false){\r\n                userWaits_0=userGambles[_user.username];\r\n               isSecondGambller=true;\r\n                return false;\r\n               }    \r\n          }else if(userGambles[_username].initialPrice==userWaits_500.initialPrice){\r\n            if (isSecondGambller==false){\r\n               userWaits_500=userGambles[_user.username];\r\n               isSecondGambller=true;\r\n               return false;\r\n            }\r\n          }else{\r\n            if (isSecondGambller==false){\r\n               userWaits_1000=userGambles[_user.username];\r\n               isSecondGambller=true;\r\n               return false;\r\n             }\r\n          }\r\n\r\n        return true;\r\n     }\r\n    \r\n\r\n      function createBattle(string memory _username)public  {    \r\n        gamblingBattles[GamblingBattleNum].userGamble1= userGambles[_username];  //get the userGamble1\r\n      \r\n        if ( gamblingBattles[GamblingBattleNum].userGamble1.initialPrice==0){\r\n        gamblingBattles[GamblingBattleNum].userGamble2= userWaits_0;//get the usergamble2\r\n        isSecondGambller=false;\r\n        userNameToBattle[_username].push(GamblingBattleNum);\r\n        userNameToBattle[userWaits_0.user.username].push(GamblingBattleNum);\r\n        GamblingBattleNum+=1;\r\n        \r\n        }else if(gamblingBattles[GamblingBattleNum].userGamble1.initialPrice==500){\r\n        gamblingBattles[GamblingBattleNum].userGamble2= userWaits_500;//get the usergamble2   \r\n        isSecondGambller=false;\r\n        userNameToBattle[_username].push(GamblingBattleNum);\r\n        userNameToBattle[userWaits_500.user.username].push(GamblingBattleNum);\r\n        GamblingBattleNum+=1;\r\n\r\n\r\n        }else{\r\n          gamblingBattles[GamblingBattleNum].userGamble2= userWaits_1000;//get the usergamble2\r\n           isSecondGambller=false;\r\n          userNameToBattle[_username].push(GamblingBattleNum);\r\n          userNameToBattle[userWaits_1000.user.username].push(GamblingBattleNum);\r\n          GamblingBattleNum+=1;\r\n        }\r\n        \r\n      }\r\n\r\n      \r\n    function calculateGamblePriceWinner(uint _price,string memory _username)public view returns(uint){\r\n      UserGamble storage _userGamble=userGambles[_username];\r\n       uint sum=0;\r\n      //check if there is length function of the array\r\n     \r\n      for (uint i=0;i<numberOfPlayers;i++){\r\n       sum+=calculataPlayerSum(_userGamble.players[i]);\r\n      }      \r\n      return sum+_price; \r\n    }\r\n    \r\n\r\n    function calculataPlayerSum(BPlayer memory player) public view returns(uint)\r\n    {\r\n    \r\n       uint priceOfPlayer=player.rebounds*10+player.points*5+player.steals*15+player.blocks*15\r\n       +player.asists*10;\r\n       return priceOfPlayer;\r\n    }\r\n          \r\n      \r\n      function calculateDayStatisticsOfPlayer(uint gambllerNum,uint battleNum,uint rebounds,uint asists,uint points ,\r\n      uint blocks,uint steals) public \r\n      {\r\n        GamblingBattle storage  battle = gamblingBattles[battleNum];\r\n        uint score= rebounds*5+asists *5 +points *10 +blocks* 7+steals *8;\r\n        if (gambllerNum==1){\r\n          battle.scoreUserGamble1+=score; \r\n        }else{\r\n           battle.scoreUserGamble2+=score; \r\n        }\r\n      }\r\n      \r\n\r\n\r\n      function winner(uint battleNum) public  returns(bool,User memory,bool,User memory)\r\n      {\r\n        GamblingBattle storage  battle = gamblingBattles[battleNum];\r\n         delete battle.userGamble1.players;\r\n         delete battle.userGamble2.players;\r\n         if(battle.scoreUserGamble1>battle.scoreUserGamble2){  \r\n           return (true,battle.userGamble1.user,false,battle.userGamble2.user);\r\n         }else if(battle.scoreUserGamble1< battle.scoreUserGamble2){\r\n            \r\n            return (false,battle.userGamble1.user,true,battle.userGamble2.user);\r\n         }\r\n           return (false,battle.userGamble1.user,false,battle.userGamble2.user);    \r\n\r\n       }\r\n\r\n     function updateStatisticOfPlayer(string memory _playerName,\r\n    uint _rebounds,uint _asists,uint _points ,uint _blocks,uint _steals) public {\r\n     \r\n      players[_playerName].rebounds+=_rebounds;\r\n      players[_playerName].asists+=_asists;\r\n      players[_playerName].points+=_points;\r\n      players[_playerName].blocks+=_blocks;\r\n      players[_playerName].steals+=_steals;\r\n      \r\n    }\r\n   \r\n   function getBattleNumbers(string memory username) public returns(uint [] memory){\r\n     return userNameToBattle[username];\r\n   }\r\n\r\n\r\n   \r\n    //------just for test-----\r\n    \r\n    function getPlayer(string  memory _playername) public view returns(BPlayer memory ){\r\n     return players[_playername];\r\n    }\r\n     function getUserGambllerByUserName(string memory _username)public view returns(UserGamble memory){\r\n\r\n           UserGamble memory _userGamble= userGambles[_username];\r\n           return _userGamble;\r\n         \r\n    }\r\n     function getGamblingBattle(uint  battleNum)public view returns(GamblingBattle memory){\r\n        \r\n        //uint[] memory gamblingNumbers=userNameToBattle[username];\r\n        //GamblingBattle[] memory battles=new GamblingBattle[](gamblingNumbers.length);\r\n        //for (uint i=0;i<gamblingNumbers.length;i++){\r\n         GamblingBattle memory battle=gamblingBattles[battleNum];\r\n        \r\n        return battle;\r\n      }\r\n       \r\n      function getUserNameByAddress(address  _userAddress )public view returns(string memory)\r\n      {\r\n        return usersAddress[_userAddress].username;\r\n      }\r\n      function getUserAddressByUsername(string memory username) public view returns(address userAddress){\r\n        return usersMapping[username].userAddress;\r\n      }\r\n      \r\n     \r\n\r\n\r\n}",
  "sourcePath": "C:/BlockChain_Project1/BlockChain2/contracts/NBA_gembller.sol",
  "compiler": {
    "name": "solc",
    "version": "0.5.16+commit.9c3226ce.Emscripten.clang"
  },
  "schemaVersion": "3.3.4",
  "updatedAt": "2021-03-14T18:24:25.662Z",
  "devdoc": {
    "methods": {}
  },
  "userdoc": {
    "methods": {}
  }
}