{
  "contractName": "NBA_gembller",
  "abi": [
    {
      "inputs": [],
      "payable": false,
      "stateMutability": "nonpayable",
      "type": "constructor"
    },
    {
      "constant": true,
      "inputs": [
        {
          "internalType": "uint256",
          "name": "",
          "type": "uint256"
        }
      ],
      "name": "userWhoWantToGambller",
      "outputs": [
        {
          "internalType": "string",
          "name": "firtsName",
          "type": "string"
        },
        {
          "internalType": "string",
          "name": "username",
          "type": "string"
        },
        {
          "internalType": "string",
          "name": "password",
          "type": "string"
        }
      ],
      "payable": false,
      "stateMutability": "view",
      "type": "function"
    },
    {
      "constant": true,
      "inputs": [
        {
          "internalType": "string",
          "name": "_username",
          "type": "string"
        },
        {
          "internalType": "string",
          "name": "_password",
          "type": "string"
        }
      ],
      "name": "login",
      "outputs": [
        {
          "internalType": "bool",
          "name": "",
          "type": "bool"
        }
      ],
      "payable": false,
      "stateMutability": "view",
      "type": "function"
    },
    {
      "constant": false,
      "inputs": [
        {
          "internalType": "string",
          "name": "firtsName",
          "type": "string"
        },
        {
          "internalType": "string",
          "name": "username",
          "type": "string"
        },
        {
          "internalType": "string",
          "name": "password",
          "type": "string"
        }
      ],
      "name": "register",
      "outputs": [],
      "payable": false,
      "stateMutability": "nonpayable",
      "type": "function"
    },
    {
      "constant": false,
      "inputs": [
        {
          "internalType": "string",
          "name": "_playerName",
          "type": "string"
        },
        {
          "internalType": "uint256",
          "name": "_rebounds",
          "type": "uint256"
        },
        {
          "internalType": "uint256",
          "name": "_asists",
          "type": "uint256"
        },
        {
          "internalType": "uint256",
          "name": "_points",
          "type": "uint256"
        },
        {
          "internalType": "uint256",
          "name": "_blocks",
          "type": "uint256"
        },
        {
          "internalType": "uint256",
          "name": "_steals",
          "type": "uint256"
        }
      ],
      "name": "createPlayer",
      "outputs": [],
      "payable": false,
      "stateMutability": "nonpayable",
      "type": "function"
    },
    {
      "constant": false,
      "inputs": [
        {
          "internalType": "string",
          "name": "_username",
          "type": "string"
        },
        {
          "internalType": "string",
          "name": "_playerName",
          "type": "string"
        }
      ],
      "name": "addPlayerToUser",
      "outputs": [],
      "payable": false,
      "stateMutability": "nonpayable",
      "type": "function"
    },
    {
      "constant": false,
      "inputs": [
        {
          "internalType": "string",
          "name": "_username",
          "type": "string"
        },
        {
          "internalType": "uint256",
          "name": "_initialPrice",
          "type": "uint256"
        }
      ],
      "name": "addUserGambling",
      "outputs": [],
      "payable": false,
      "stateMutability": "nonpayable",
      "type": "function"
    },
    {
      "constant": false,
      "inputs": [
        {
          "internalType": "string",
          "name": "userName",
          "type": "string"
        }
      ],
      "name": "createBattle",
      "outputs": [],
      "payable": false,
      "stateMutability": "nonpayable",
      "type": "function"
    },
    {
      "constant": true,
      "inputs": [
        {
          "internalType": "uint256",
          "name": "_price",
          "type": "uint256"
        },
        {
          "internalType": "string",
          "name": "_username",
          "type": "string"
        }
      ],
      "name": "calculateGamblePriceWinner",
      "outputs": [
        {
          "internalType": "uint256",
          "name": "",
          "type": "uint256"
        }
      ],
      "payable": false,
      "stateMutability": "view",
      "type": "function"
    },
    {
      "constant": true,
      "inputs": [
        {
          "components": [
            {
              "internalType": "string",
              "name": "name",
              "type": "string"
            },
            {
              "internalType": "uint256",
              "name": "rebounds",
              "type": "uint256"
            },
            {
              "internalType": "uint256",
              "name": "asists",
              "type": "uint256"
            },
            {
              "internalType": "uint256",
              "name": "points",
              "type": "uint256"
            },
            {
              "internalType": "uint256",
              "name": "blocks",
              "type": "uint256"
            },
            {
              "internalType": "uint256",
              "name": "steals",
              "type": "uint256"
            }
          ],
          "internalType": "struct NBA_gembller.BPlayer",
          "name": "player",
          "type": "tuple"
        }
      ],
      "name": "calculataPlayerSum",
      "outputs": [
        {
          "internalType": "uint256",
          "name": "",
          "type": "uint256"
        }
      ],
      "payable": false,
      "stateMutability": "view",
      "type": "function"
    },
    {
      "constant": false,
      "inputs": [
        {
          "internalType": "uint256",
          "name": "gambllerNum",
          "type": "uint256"
        },
        {
          "internalType": "uint256",
          "name": "battleNum",
          "type": "uint256"
        },
        {
          "internalType": "uint256",
          "name": "rebounds",
          "type": "uint256"
        },
        {
          "internalType": "uint256",
          "name": "asists",
          "type": "uint256"
        },
        {
          "internalType": "uint256",
          "name": "points",
          "type": "uint256"
        },
        {
          "internalType": "uint256",
          "name": "blocks",
          "type": "uint256"
        },
        {
          "internalType": "uint256",
          "name": "steals",
          "type": "uint256"
        }
      ],
      "name": "calculateDayStatisticsOfPlayer",
      "outputs": [],
      "payable": false,
      "stateMutability": "nonpayable",
      "type": "function"
    },
    {
      "constant": true,
      "inputs": [
        {
          "internalType": "uint256",
          "name": "battleNum",
          "type": "uint256"
        }
      ],
      "name": "winner",
      "outputs": [
        {
          "components": [
            {
              "components": [
                {
                  "internalType": "string",
                  "name": "firtsName",
                  "type": "string"
                },
                {
                  "internalType": "string",
                  "name": "username",
                  "type": "string"
                },
                {
                  "internalType": "string",
                  "name": "password",
                  "type": "string"
                }
              ],
              "internalType": "struct NBA_gembller.User",
              "name": "user",
              "type": "tuple"
            },
            {
              "components": [
                {
                  "internalType": "string",
                  "name": "name",
                  "type": "string"
                },
                {
                  "internalType": "uint256",
                  "name": "rebounds",
                  "type": "uint256"
                },
                {
                  "internalType": "uint256",
                  "name": "asists",
                  "type": "uint256"
                },
                {
                  "internalType": "uint256",
                  "name": "points",
                  "type": "uint256"
                },
                {
                  "internalType": "uint256",
                  "name": "blocks",
                  "type": "uint256"
                },
                {
                  "internalType": "uint256",
                  "name": "steals",
                  "type": "uint256"
                }
              ],
              "internalType": "struct NBA_gembller.BPlayer[]",
              "name": "players",
              "type": "tuple[]"
            },
            {
              "internalType": "uint256",
              "name": "gambleAmount",
              "type": "uint256"
            },
            {
              "internalType": "uint256",
              "name": "initialPrice",
              "type": "uint256"
            },
            {
              "internalType": "bool",
              "name": "valid",
              "type": "bool"
            }
          ],
          "internalType": "struct NBA_gembller.UserGamble",
          "name": "",
          "type": "tuple"
        },
        {
          "internalType": "bool",
          "name": "",
          "type": "bool"
        },
        {
          "components": [
            {
              "components": [
                {
                  "internalType": "string",
                  "name": "firtsName",
                  "type": "string"
                },
                {
                  "internalType": "string",
                  "name": "username",
                  "type": "string"
                },
                {
                  "internalType": "string",
                  "name": "password",
                  "type": "string"
                }
              ],
              "internalType": "struct NBA_gembller.User",
              "name": "user",
              "type": "tuple"
            },
            {
              "components": [
                {
                  "internalType": "string",
                  "name": "name",
                  "type": "string"
                },
                {
                  "internalType": "uint256",
                  "name": "rebounds",
                  "type": "uint256"
                },
                {
                  "internalType": "uint256",
                  "name": "asists",
                  "type": "uint256"
                },
                {
                  "internalType": "uint256",
                  "name": "points",
                  "type": "uint256"
                },
                {
                  "internalType": "uint256",
                  "name": "blocks",
                  "type": "uint256"
                },
                {
                  "internalType": "uint256",
                  "name": "steals",
                  "type": "uint256"
                }
              ],
              "internalType": "struct NBA_gembller.BPlayer[]",
              "name": "players",
              "type": "tuple[]"
            },
            {
              "internalType": "uint256",
              "name": "gambleAmount",
              "type": "uint256"
            },
            {
              "internalType": "uint256",
              "name": "initialPrice",
              "type": "uint256"
            },
            {
              "internalType": "bool",
              "name": "valid",
              "type": "bool"
            }
          ],
          "internalType": "struct NBA_gembller.UserGamble",
          "name": "",
          "type": "tuple"
        },
        {
          "internalType": "bool",
          "name": "",
          "type": "bool"
        }
      ],
      "payable": false,
      "stateMutability": "view",
      "type": "function"
    },
    {
      "constant": false,
      "inputs": [
        {
          "internalType": "string",
          "name": "_playerName",
          "type": "string"
        },
        {
          "internalType": "uint256",
          "name": "_rebounds",
          "type": "uint256"
        },
        {
          "internalType": "uint256",
          "name": "_asists",
          "type": "uint256"
        },
        {
          "internalType": "uint256",
          "name": "_points",
          "type": "uint256"
        },
        {
          "internalType": "uint256",
          "name": "_blocks",
          "type": "uint256"
        },
        {
          "internalType": "uint256",
          "name": "_steals",
          "type": "uint256"
        },
        {
          "internalType": "uint256",
          "name": "_price",
          "type": "uint256"
        }
      ],
      "name": "updateStatisticOfPlayer",
      "outputs": [],
      "payable": false,
      "stateMutability": "nonpayable",
      "type": "function"
    },
    {
      "constant": true,
      "inputs": [
        {
          "internalType": "string",
          "name": "_playername",
          "type": "string"
        }
      ],
      "name": "getPlayer",
      "outputs": [
        {
          "components": [
            {
              "internalType": "string",
              "name": "name",
              "type": "string"
            },
            {
              "internalType": "uint256",
              "name": "rebounds",
              "type": "uint256"
            },
            {
              "internalType": "uint256",
              "name": "asists",
              "type": "uint256"
            },
            {
              "internalType": "uint256",
              "name": "points",
              "type": "uint256"
            },
            {
              "internalType": "uint256",
              "name": "blocks",
              "type": "uint256"
            },
            {
              "internalType": "uint256",
              "name": "steals",
              "type": "uint256"
            }
          ],
          "internalType": "struct NBA_gembller.BPlayer",
          "name": "",
          "type": "tuple"
        }
      ],
      "payable": false,
      "stateMutability": "view",
      "type": "function"
    },
    {
      "constant": true,
      "inputs": [
        {
          "internalType": "string",
          "name": "_username",
          "type": "string"
        }
      ],
      "name": "getUserGambllerByUserName",
      "outputs": [
        {
          "components": [
            {
              "components": [
                {
                  "internalType": "string",
                  "name": "firtsName",
                  "type": "string"
                },
                {
                  "internalType": "string",
                  "name": "username",
                  "type": "string"
                },
                {
                  "internalType": "string",
                  "name": "password",
                  "type": "string"
                }
              ],
              "internalType": "struct NBA_gembller.User",
              "name": "user",
              "type": "tuple"
            },
            {
              "components": [
                {
                  "internalType": "string",
                  "name": "name",
                  "type": "string"
                },
                {
                  "internalType": "uint256",
                  "name": "rebounds",
                  "type": "uint256"
                },
                {
                  "internalType": "uint256",
                  "name": "asists",
                  "type": "uint256"
                },
                {
                  "internalType": "uint256",
                  "name": "points",
                  "type": "uint256"
                },
                {
                  "internalType": "uint256",
                  "name": "blocks",
                  "type": "uint256"
                },
                {
                  "internalType": "uint256",
                  "name": "steals",
                  "type": "uint256"
                }
              ],
              "internalType": "struct NBA_gembller.BPlayer[]",
              "name": "players",
              "type": "tuple[]"
            },
            {
              "internalType": "uint256",
              "name": "gambleAmount",
              "type": "uint256"
            },
            {
              "internalType": "uint256",
              "name": "initialPrice",
              "type": "uint256"
            },
            {
              "internalType": "bool",
              "name": "valid",
              "type": "bool"
            }
          ],
          "internalType": "struct NBA_gembller.UserGamble",
          "name": "",
          "type": "tuple"
        }
      ],
      "payable": false,
      "stateMutability": "view",
      "type": "function"
    },
    {
      "constant": true,
      "inputs": [
        {
          "internalType": "string",
          "name": "username",
          "type": "string"
        }
      ],
      "name": "getGamblingBattle",
      "outputs": [
        {
          "components": [
            {
              "components": [
                {
                  "components": [
                    {
                      "internalType": "string",
                      "name": "firtsName",
                      "type": "string"
                    },
                    {
                      "internalType": "string",
                      "name": "username",
                      "type": "string"
                    },
                    {
                      "internalType": "string",
                      "name": "password",
                      "type": "string"
                    }
                  ],
                  "internalType": "struct NBA_gembller.User",
                  "name": "user",
                  "type": "tuple"
                },
                {
                  "components": [
                    {
                      "internalType": "string",
                      "name": "name",
                      "type": "string"
                    },
                    {
                      "internalType": "uint256",
                      "name": "rebounds",
                      "type": "uint256"
                    },
                    {
                      "internalType": "uint256",
                      "name": "asists",
                      "type": "uint256"
                    },
                    {
                      "internalType": "uint256",
                      "name": "points",
                      "type": "uint256"
                    },
                    {
                      "internalType": "uint256",
                      "name": "blocks",
                      "type": "uint256"
                    },
                    {
                      "internalType": "uint256",
                      "name": "steals",
                      "type": "uint256"
                    }
                  ],
                  "internalType": "struct NBA_gembller.BPlayer[]",
                  "name": "players",
                  "type": "tuple[]"
                },
                {
                  "internalType": "uint256",
                  "name": "gambleAmount",
                  "type": "uint256"
                },
                {
                  "internalType": "uint256",
                  "name": "initialPrice",
                  "type": "uint256"
                },
                {
                  "internalType": "bool",
                  "name": "valid",
                  "type": "bool"
                }
              ],
              "internalType": "struct NBA_gembller.UserGamble",
              "name": "userGamble1",
              "type": "tuple"
            },
            {
              "components": [
                {
                  "components": [
                    {
                      "internalType": "string",
                      "name": "firtsName",
                      "type": "string"
                    },
                    {
                      "internalType": "string",
                      "name": "username",
                      "type": "string"
                    },
                    {
                      "internalType": "string",
                      "name": "password",
                      "type": "string"
                    }
                  ],
                  "internalType": "struct NBA_gembller.User",
                  "name": "user",
                  "type": "tuple"
                },
                {
                  "components": [
                    {
                      "internalType": "string",
                      "name": "name",
                      "type": "string"
                    },
                    {
                      "internalType": "uint256",
                      "name": "rebounds",
                      "type": "uint256"
                    },
                    {
                      "internalType": "uint256",
                      "name": "asists",
                      "type": "uint256"
                    },
                    {
                      "internalType": "uint256",
                      "name": "points",
                      "type": "uint256"
                    },
                    {
                      "internalType": "uint256",
                      "name": "blocks",
                      "type": "uint256"
                    },
                    {
                      "internalType": "uint256",
                      "name": "steals",
                      "type": "uint256"
                    }
                  ],
                  "internalType": "struct NBA_gembller.BPlayer[]",
                  "name": "players",
                  "type": "tuple[]"
                },
                {
                  "internalType": "uint256",
                  "name": "gambleAmount",
                  "type": "uint256"
                },
                {
                  "internalType": "uint256",
                  "name": "initialPrice",
                  "type": "uint256"
                },
                {
                  "internalType": "bool",
                  "name": "valid",
                  "type": "bool"
                }
              ],
              "internalType": "struct NBA_gembller.UserGamble",
              "name": "userGamble2",
              "type": "tuple"
            },
            {
              "internalType": "uint256",
              "name": "scoreUserGamble1",
              "type": "uint256"
            },
            {
              "internalType": "uint256",
              "name": "scoreUserGamble2",
              "type": "uint256"
            }
          ],
          "internalType": "struct NBA_gembller.GamblingBattle[]",
          "name": "",
          "type": "tuple[]"
        }
      ],
      "payable": false,
      "stateMutability": "view",
      "type": "function"
    }
  ],
  "bytecode": "0x60806040526002805534801561001457600080fd5b50600080819055506000600960060160006101000a81548160ff0219169083151502179055506000601060060160006101000a81548160ff0219169083151502179055506000601760060160006101000a81548160ff02191690831515021790555060006009600501819055506101f46010600501819055506103e8601760050181905550615199806100a86000396000f3fe608060405234801561001057600080fd5b50600436106100f55760003560e01c80634cd08d03116100975780639b45976b116100665780639b45976b14610297578063d01772ce146102b3578063d4ffd89d146102e3578063e2d7f71e14610313576100f5565b80634cd08d031461021357806352be27031461022f57806355940c4f1461024b57806358467dbc14610267576100f5565b80631cbeae5e116100d35780631cbeae5e146101625780631f11b24f146101955780632bc33d90146101c55780632ca04522146101f7576100f5565b806303b31cbd146100fa5780631541b2c31461012a57806319343efb14610146575b600080fd5b610114600480360361010f9190810190614378565b610343565b6040516101219190614ef7565b60405180910390f35b610144600480360361013f9190810190614725565b6106e3565b005b610160600480360361015b9190810190614510565b610754565b005b61017c600480360361017791908101906146a8565b610805565b60405161018c9493929190614f19565b60405180910390f35b6101af60048036036101aa9190810190614378565b611d1c565b6040516101bc9190614ed5565b60405180910390f35b6101df60048036036101da91908101906146a8565b611e28565b6040516101ee93929190614e49565b60405180910390f35b610211600480360361020c9190810190614378565b612027565b005b61022d60048036036102289190810190614425565b6126cc565b005b610249600480360361024491908101906145b1565b61281b565b005b610265600480360361026091908101906143b9565b61290f565b005b610281600480360361027c91908101906143b9565b612aba565b60405161028e9190614e2e565b60405180910390f35b6102b160048036036102ac91908101906144bc565b612d9c565b005b6102cd60048036036102c89190810190614667565b6134c6565b6040516102da9190614f6c565b60405180910390f35b6102fd60048036036102f891908101906146d1565b613500565b60405161030a9190614f6c565b60405180910390f35b61032d60048036036103289190810190614378565b61365b565b60405161033a9190614e0c565b60405180910390f35b61034b613e70565b610353613e70565b6003836040516103639190614dde565b90815260200160405180910390206040518060a001604052908160008201604051806060016040529081600082018054600181600116156101000203166002900480601f0160208091040260200160405190810160405280929190818152602001828054600181600116156101000203166002900480156104255780601f106103fa57610100808354040283529160200191610425565b820191906000526020600020905b81548152906001019060200180831161040857829003601f168201915b50505050508152602001600182018054600181600116156101000203166002900480601f0160208091040260200160405190810160405280929190818152602001828054600181600116156101000203166002900480156104c75780601f1061049c576101008083540402835291602001916104c7565b820191906000526020600020905b8154815290600101906020018083116104aa57829003601f168201915b50505050508152602001600282018054600181600116156101000203166002900480601f0160208091040260200160405190810160405280929190818152602001828054600181600116156101000203166002900480156105695780601f1061053e57610100808354040283529160200191610569565b820191906000526020600020905b81548152906001019060200180831161054c57829003601f168201915b505050505081525050815260200160038201805480602002602001604051908101604052809291908181526020016000905b828210156106a157838290600052602060002090600602016040518060c0016040529081600082018054600181600116156101000203166002900480601f0160208091040260200160405190810160405280929190818152602001828054600181600116156101000203166002900480156106575780601f1061062c57610100808354040283529160200191610657565b820191906000526020600020905b81548152906001019060200180831161063a57829003601f168201915b50505050508152602001600182015481526020016002820154815260200160038201548152602001600482015481526020016005820154815250508152602001906001019061059b565b50505050815260200160048201548152602001600582015481526020016006820160009054906101000a900460ff161515151581525050905080915050919050565b600060066000888152602001908152602001600020905060006008830260078502600a87026005890260058b020101010190506001891415610736578082600e0160008282540192505081905550610749565b8082600f01600082825401925050819055505b505050505050505050565b61075c613ea7565b6040518060c001604052808881526020018781526020018681526020018581526020018481526020018381525090508060048860405161079c9190614dde565b908152602001604051809103902060008201518160000190805190602001906107c6929190613edd565b506020820151816001015560408201518160020155606082015181600301556080820151816004015560a0820151816005015590505050505050505050565b61080d613e70565b6000610817613e70565b60008060066000878152602001908152602001600020905080600f015481600e01541115610f2d57806000016001826007016000836040518060a001604052908160008201604051806060016040529081600082018054600181600116156101000203166002900480601f0160208091040260200160405190810160405280929190818152602001828054600181600116156101000203166002900480156109005780601f106108d557610100808354040283529160200191610900565b820191906000526020600020905b8154815290600101906020018083116108e357829003601f168201915b50505050508152602001600182018054600181600116156101000203166002900480601f0160208091040260200160405190810160405280929190818152602001828054600181600116156101000203166002900480156109a25780601f10610977576101008083540402835291602001916109a2565b820191906000526020600020905b81548152906001019060200180831161098557829003601f168201915b50505050508152602001600282018054600181600116156101000203166002900480601f016020809104026020016040519081016040528092919081815260200182805460018160011615610100020316600290048015610a445780601f10610a1957610100808354040283529160200191610a44565b820191906000526020600020905b815481529060010190602001808311610a2757829003601f168201915b505050505081525050815260200160038201805480602002602001604051908101604052809291908181526020016000905b82821015610b7c57838290600052602060002090600602016040518060c0016040529081600082018054600181600116156101000203166002900480601f016020809104026020016040519081016040528092919081815260200182805460018160011615610100020316600290048015610b325780601f10610b0757610100808354040283529160200191610b32565b820191906000526020600020905b815481529060010190602001808311610b1557829003601f168201915b505050505081526020016001820154815260200160028201548152602001600382015481526020016004820154815260200160058201548152505081526020019060010190610a76565b50505050815260200160048201548152602001600582015481526020016006820160009054906101000a900460ff1615151515815250509350816040518060a001604052908160008201604051806060016040529081600082018054600181600116156101000203166002900480601f016020809104026020016040519081016040528092919081815260200182805460018160011615610100020316600290048015610c6a5780601f10610c3f57610100808354040283529160200191610c6a565b820191906000526020600020905b815481529060010190602001808311610c4d57829003601f168201915b50505050508152602001600182018054600181600116156101000203166002900480601f016020809104026020016040519081016040528092919081815260200182805460018160011615610100020316600290048015610d0c5780601f10610ce157610100808354040283529160200191610d0c565b820191906000526020600020905b815481529060010190602001808311610cef57829003601f168201915b50505050508152602001600282018054600181600116156101000203166002900480601f016020809104026020016040519081016040528092919081815260200182805460018160011615610100020316600290048015610dae5780601f10610d8357610100808354040283529160200191610dae565b820191906000526020600020905b815481529060010190602001808311610d9157829003601f168201915b505050505081525050815260200160038201805480602002602001604051908101604052809291908181526020016000905b82821015610ee657838290600052602060002090600602016040518060c0016040529081600082018054600181600116156101000203166002900480601f016020809104026020016040519081016040528092919081815260200182805460018160011615610100020316600290048015610e9c5780601f10610e7157610100808354040283529160200191610e9c565b820191906000526020600020905b815481529060010190602001808311610e7f57829003601f168201915b505050505081526020016001820154815260200160028201548152602001600382015481526020016004820154815260200160058201548152505081526020019060010190610de0565b50505050815260200160048201548152602001600582015481526020016006820160009054906101000a900460ff1615151515815250509150945094509450945050611d15565b80600f015481600e0154101561162b57806000016000826007016001836040518060a001604052908160008201604051806060016040529081600082018054600181600116156101000203166002900480601f016020809104026020016040519081016040528092919081815260200182805460018160011615610100020316600290048015610ffe5780601f10610fd357610100808354040283529160200191610ffe565b820191906000526020600020905b815481529060010190602001808311610fe157829003601f168201915b50505050508152602001600182018054600181600116156101000203166002900480601f0160208091040260200160405190810160405280929190818152602001828054600181600116156101000203166002900480156110a05780601f10611075576101008083540402835291602001916110a0565b820191906000526020600020905b81548152906001019060200180831161108357829003601f168201915b50505050508152602001600282018054600181600116156101000203166002900480601f0160208091040260200160405190810160405280929190818152602001828054600181600116156101000203166002900480156111425780601f1061111757610100808354040283529160200191611142565b820191906000526020600020905b81548152906001019060200180831161112557829003601f168201915b505050505081525050815260200160038201805480602002602001604051908101604052809291908181526020016000905b8282101561127a57838290600052602060002090600602016040518060c0016040529081600082018054600181600116156101000203166002900480601f0160208091040260200160405190810160405280929190818152602001828054600181600116156101000203166002900480156112305780601f1061120557610100808354040283529160200191611230565b820191906000526020600020905b81548152906001019060200180831161121357829003601f168201915b505050505081526020016001820154815260200160028201548152602001600382015481526020016004820154815260200160058201548152505081526020019060010190611174565b50505050815260200160048201548152602001600582015481526020016006820160009054906101000a900460ff1615151515815250509350816040518060a001604052908160008201604051806060016040529081600082018054600181600116156101000203166002900480601f0160208091040260200160405190810160405280929190818152602001828054600181600116156101000203166002900480156113685780601f1061133d57610100808354040283529160200191611368565b820191906000526020600020905b81548152906001019060200180831161134b57829003601f168201915b50505050508152602001600182018054600181600116156101000203166002900480601f01602080910402602001604051908101604052809291908181526020018280546001816001161561010002031660029004801561140a5780601f106113df5761010080835404028352916020019161140a565b820191906000526020600020905b8154815290600101906020018083116113ed57829003601f168201915b50505050508152602001600282018054600181600116156101000203166002900480601f0160208091040260200160405190810160405280929190818152602001828054600181600116156101000203166002900480156114ac5780601f10611481576101008083540402835291602001916114ac565b820191906000526020600020905b81548152906001019060200180831161148f57829003601f168201915b505050505081525050815260200160038201805480602002602001604051908101604052809291908181526020016000905b828210156115e457838290600052602060002090600602016040518060c0016040529081600082018054600181600116156101000203166002900480601f01602080910402602001604051908101604052809291908181526020018280546001816001161561010002031660029004801561159a5780601f1061156f5761010080835404028352916020019161159a565b820191906000526020600020905b81548152906001019060200180831161157d57829003601f168201915b5050505050815260200160018201548152602001600282015481526020016003820154815260200160048201548152602001600582015481525050815260200190600101906114de565b50505050815260200160048201548152602001600582015481526020016006820160009054906101000a900460ff1615151515815250509150945094509450945050611d15565b806000016000826007016000836040518060a001604052908160008201604051806060016040529081600082018054600181600116156101000203166002900480601f0160208091040260200160405190810160405280929190818152602001828054600181600116156101000203166002900480156116ec5780601f106116c1576101008083540402835291602001916116ec565b820191906000526020600020905b8154815290600101906020018083116116cf57829003601f168201915b50505050508152602001600182018054600181600116156101000203166002900480601f01602080910402602001604051908101604052809291908181526020018280546001816001161561010002031660029004801561178e5780601f106117635761010080835404028352916020019161178e565b820191906000526020600020905b81548152906001019060200180831161177157829003601f168201915b50505050508152602001600282018054600181600116156101000203166002900480601f0160208091040260200160405190810160405280929190818152602001828054600181600116156101000203166002900480156118305780601f1061180557610100808354040283529160200191611830565b820191906000526020600020905b81548152906001019060200180831161181357829003601f168201915b505050505081525050815260200160038201805480602002602001604051908101604052809291908181526020016000905b8282101561196857838290600052602060002090600602016040518060c0016040529081600082018054600181600116156101000203166002900480601f01602080910402602001604051908101604052809291908181526020018280546001816001161561010002031660029004801561191e5780601f106118f35761010080835404028352916020019161191e565b820191906000526020600020905b81548152906001019060200180831161190157829003601f168201915b505050505081526020016001820154815260200160028201548152602001600382015481526020016004820154815260200160058201548152505081526020019060010190611862565b50505050815260200160048201548152602001600582015481526020016006820160009054906101000a900460ff1615151515815250509350816040518060a001604052908160008201604051806060016040529081600082018054600181600116156101000203166002900480601f016020809104026020016040519081016040528092919081815260200182805460018160011615610100020316600290048015611a565780601f10611a2b57610100808354040283529160200191611a56565b820191906000526020600020905b815481529060010190602001808311611a3957829003601f168201915b50505050508152602001600182018054600181600116156101000203166002900480601f016020809104026020016040519081016040528092919081815260200182805460018160011615610100020316600290048015611af85780601f10611acd57610100808354040283529160200191611af8565b820191906000526020600020905b815481529060010190602001808311611adb57829003601f168201915b50505050508152602001600282018054600181600116156101000203166002900480601f016020809104026020016040519081016040528092919081815260200182805460018160011615610100020316600290048015611b9a5780601f10611b6f57610100808354040283529160200191611b9a565b820191906000526020600020905b815481529060010190602001808311611b7d57829003601f168201915b505050505081525050815260200160038201805480602002602001604051908101604052809291908181526020016000905b82821015611cd257838290600052602060002090600602016040518060c0016040529081600082018054600181600116156101000203166002900480601f016020809104026020016040519081016040528092919081815260200182805460018160011615610100020316600290048015611c885780601f10611c5d57610100808354040283529160200191611c88565b820191906000526020600020905b815481529060010190602001808311611c6b57829003601f168201915b505050505081526020016001820154815260200160028201548152602001600382015481526020016004820154815260200160058201548152505081526020019060010190611bcc565b50505050815260200160048201548152602001600582015481526020016006820160009054906101000a900460ff16151515158152505091509450945094509450505b9193509193565b611d24613ea7565b600482604051611d349190614dde565b90815260200160405180910390206040518060c0016040529081600082018054600181600116156101000203166002900480601f016020809104026020016040519081016040528092919081815260200182805460018160011615610100020316600290048015611de65780601f10611dbb57610100808354040283529160200191611de6565b820191906000526020600020905b815481529060010190602001808311611dc957829003601f168201915b50505050508152602001600182015481526020016002820154815260200160038201548152602001600482015481526020016005820154815250509050919050565b60018181548110611e3557fe5b9060005260206000209060030201600091509050806000018054600181600116156101000203166002900480601f016020809104026020016040519081016040528092919081815260200182805460018160011615610100020316600290048015611ee15780601f10611eb657610100808354040283529160200191611ee1565b820191906000526020600020905b815481529060010190602001808311611ec457829003601f168201915b505050505090806001018054600181600116156101000203166002900480601f016020809104026020016040519081016040528092919081815260200182805460018160011615610100020316600290048015611f7f5780601f10611f5457610100808354040283529160200191611f7f565b820191906000526020600020905b815481529060010190602001808311611f6257829003601f168201915b505050505090806002018054600181600116156101000203166002900480601f01602080910402602001604051908101604052809291908181526020018280546001816001161561010002031660029004801561201d5780601f10611ff25761010080835404028352916020019161201d565b820191906000526020600020905b81548152906001019060200180831161200057829003601f168201915b5050505050905083565b6003816040516120379190614dde565b9081526020016040518091039020600660008054815260200190815260200160002060000160008201816000016000820181600001908054600181600116156101000203166002900461208b929190613f5d565b50600182018160010190805460018160011615610100020316600290046120b3929190613f5d565b50600282018160020190805460018160011615610100020316600290046120db929190613f5d565b50505060038201816003019080546120f4929190613fe4565b5060048201548160040155600582015481600501556006820160009054906101000a900460ff168160060160006101000a81548160ff0219169083151502179055509050506000600660008054815260200190815260200160002060000160050154141561232057600960066000805481526020019081526020016000206007016000820181600001600082018160000190805460018160011615610100020316600290046121a4929190613f5d565b50600182018160010190805460018160011615610100020316600290046121cc929190613f5d565b50600282018160020190805460018160011615610100020316600290046121f4929190613f5d565b505050600382018160030190805461220d929190613fe4565b5060048201548160040155600582015481600501556006820160009054906101000a900460ff168160060160006101000a81548160ff0219169083151502179055509050506000600960060160006101000a81548160ff0219169083151502179055506008816040516122809190614dde565b90815260200160405180910390206000549080600181540180825580915050906001820390600052602060002001600090919290919091505550600860096000016001016040516122d19190614df5565b90815260200160405180910390206000549080600181540180825580915050906001820390600052602060002001600090919290919091505550600160008082825401925050819055506126c9565b6101f46006600080548152602001908152602001600020600001600501541415612508576010600660008054815260200190815260200160002060070160008201816000016000820181600001908054600181600116156101000203166002900461238c929190613f5d565b50600182018160010190805460018160011615610100020316600290046123b4929190613f5d565b50600282018160020190805460018160011615610100020316600290046123dc929190613f5d565b50505060038201816003019080546123f5929190613fe4565b5060048201548160040155600582015481600501556006820160009054906101000a900460ff168160060160006101000a81548160ff0219169083151502179055509050506000600960060160006101000a81548160ff0219169083151502179055506008816040516124689190614dde565b90815260200160405180910390206000549080600181540180825580915050906001820390600052602060002001600090919290919091505550600860106000016001016040516124b99190614df5565b90815260200160405180910390206000549080600181540180825580915050906001820390600052602060002001600090919290919091505550600160008082825401925050819055506126c8565b60176006600080548152602001908152602001600020600701600082018160000160008201816000019080546001816001161561010002031660029004612550929190613f5d565b5060018201816001019080546001816001161561010002031660029004612578929190613f5d565b50600282018160020190805460018160011615610100020316600290046125a0929190613f5d565b50505060038201816003019080546125b9929190613fe4565b5060048201548160040155600582015481600501556006820160009054906101000a900460ff168160060160006101000a81548160ff0219169083151502179055509050506000601760060160006101000a81548160ff02191690831515021790555060088160405161262c9190614dde565b908152602001604051809103902060005490806001815401808255809150509060018203906000526020600020016000909192909190915055506008601760000160010160405161267d9190614df5565b90815260200160405180910390206000549080600181540180825580915050906001820390600052602060002001600090919290919091505550600160008082825401925050819055505b5b50565b6126d4614096565b6040518060600160405280858152602001848152602001838152509050600781602001516040516127059190614dc7565b908152602001604051809103902060009054906101000a900460ff1615612761576040517f08c379a000000000000000000000000000000000000000000000000000000000815260040161275890614e95565b60405180910390fd5b806005846040516127729190614dde565b9081526020016040518091039020600082015181600001908051906020019061279c929190613edd565b5060208201518160010190805190602001906127b9929190613edd565b5060408201518160020190805190602001906127d6929190613edd565b509050506001600782602001516040516127f09190614dc7565b908152602001604051809103902060006101000a81548160ff02191690831515021790555050505050565b8560048860405161282c9190614dde565b9081526020016040518091039020600101600082825401925050819055508460048860405161285b9190614dde565b9081526020016040518091039020600201600082825401925050819055508360048860405161288a9190614dde565b908152602001604051809103902060030160008282540192505081905550826004886040516128b99190614dde565b908152602001604051809103902060040160008282540192505081905550816004886040516128e89190614dde565b90815260200160405180910390206005016000828254019250508190555050505050505050565b612917613ea7565b6004826040516129279190614dde565b90815260200160405180910390206040518060c0016040529081600082018054600181600116156101000203166002900480601f0160208091040260200160405190810160405280929190818152602001828054600181600116156101000203166002900480156129d95780601f106129ae576101008083540402835291602001916129d9565b820191906000526020600020905b8154815290600101906020018083116129bc57829003601f168201915b50505050508152602001600182015481526020016002820154815260200160038201548152602001600482015481526020016005820154815250509050600383604051612a269190614dde565b908152602001604051809103902060030181908060018154018082558091505090600182039060005260206000209060060201600090919290919091506000820151816000019080519060200190612a7f929190613edd565b506020820151816001015560408201518160020155606082015181600301556080820151816004015560a08201518160050155505050505050565b6000612ac4614096565b600584604051612ad49190614dde565b9081526020016040518091039020604051806060016040529081600082018054600181600116156101000203166002900480601f016020809104026020016040519081016040528092919081815260200182805460018160011615610100020316600290048015612b865780601f10612b5b57610100808354040283529160200191612b86565b820191906000526020600020905b815481529060010190602001808311612b6957829003601f168201915b50505050508152602001600182018054600181600116156101000203166002900480601f016020809104026020016040519081016040528092919081815260200182805460018160011615610100020316600290048015612c285780601f10612bfd57610100808354040283529160200191612c28565b820191906000526020600020905b815481529060010190602001808311612c0b57829003601f168201915b50505050508152602001600282018054600181600116156101000203166002900480601f016020809104026020016040519081016040528092919081815260200182805460018160011615610100020316600290048015612cca5780601f10612c9f57610100808354040283529160200191612cca565b820191906000526020600020905b815481529060010190602001808311612cad57829003601f168201915b505050505081525050905082604051602001612ce69190614dde565b604051602081830303815290604052805190602001208160400151604051602001612d119190614dc7565b6040516020818303038152906040528051906020012014612d67576040517f08c379a0000000000000000000000000000000000000000000000000000000008152600401612d5e90614eb5565b60405180910390fd5b600784604051612d779190614dde565b908152602001604051809103902060009054906101000a900460ff1691505092915050565b80600383604051612dad9190614dde565b9081526020016040518091039020600501819055506001600383604051612dd49190614dde565b908152602001604051809103902060060160006101000a81548160ff021916908315150217905550612e04614096565b600583604051612e149190614dde565b9081526020016040518091039020604051806060016040529081600082018054600181600116156101000203166002900480601f016020809104026020016040519081016040528092919081815260200182805460018160011615610100020316600290048015612ec65780601f10612e9b57610100808354040283529160200191612ec6565b820191906000526020600020905b815481529060010190602001808311612ea957829003601f168201915b50505050508152602001600182018054600181600116156101000203166002900480601f016020809104026020016040519081016040528092919081815260200182805460018160011615610100020316600290048015612f685780601f10612f3d57610100808354040283529160200191612f68565b820191906000526020600020905b815481529060010190602001808311612f4b57829003601f168201915b50505050508152602001600282018054600181600116156101000203166002900480601f01602080910402602001604051908101604052809291908181526020018280546001816001161561010002031660029004801561300a5780601f10612fdf5761010080835404028352916020019161300a565b820191906000526020600020905b815481529060010190602001808311612fed57829003601f168201915b5050505050815250509050806003846040516130269190614dde565b90815260200160405180910390206000016000820151816000019080519060200190613053929190613edd565b506020820151816001019080519060200190613070929190613edd565b50604082015181600201908051906020019061308d929190613edd565b5090505061309b8284613500565b6003846040516130ab9190614dde565b9081526020016040518091039020600401819055506009600501546003846040516130d69190614dde565b90815260200160405180910390206005015414156132265760001515600960060160009054906101000a900460ff161515141561321357600381602001516040516131219190614dc7565b90815260200160405180910390206009600082018160000160008201816000019080546001816001161561010002031660029004613160929190613f5d565b5060018201816001019080546001816001161561010002031660029004613188929190613f5d565b50600282018160020190805460018160011615610100020316600290046131b0929190613f5d565b50505060038201816003019080546131c9929190613fe4565b5060048201548160040155600582015481600501556006820160009054906101000a900460ff168160060160006101000a81548160ff021916908315150217905550905050613221565b6132208160200151612027565b5b6134c1565b60106005015460038460405161323c9190614dde565b908152602001604051809103902060050154141561338c5760001515601060060160009054906101000a900460ff161515141561337957600381602001516040516132879190614dc7565b908152602001604051809103902060106000820181600001600082018160000190805460018160011615610100020316600290046132c6929190613f5d565b50600182018160010190805460018160011615610100020316600290046132ee929190613f5d565b5060028201816002019080546001816001161561010002031660029004613316929190613f5d565b505050600382018160030190805461332f929190613fe4565b5060048201548160040155600582015481600501556006820160009054906101000a900460ff168160060160006101000a81548160ff021916908315150217905550905050613387565b6133868160200151612027565b5b6134c0565b60001515601760060160009054906101000a900460ff16151514156134b157600381602001516040516133bf9190614dc7565b908152602001604051809103902060176000820181600001600082018160000190805460018160011615610100020316600290046133fe929190613f5d565b5060018201816001019080546001816001161561010002031660029004613426929190613f5d565b506002820181600201908054600181600116156101000203166002900461344e929190613f5d565b5050506003820181600301908054613467929190613fe4565b5060048201548160040155600582015481600501556006820160009054906101000a900460ff168160060160006101000a81548160ff0219169083151502179055509050506134bf565b6134be8160200151612027565b5b5b5b505050565b600080600a836040015102600f846080015102600f8560a00151026005866060015102600a87602001510201010101905080915050919050565b6000806003836040516135139190614dde565b90815260200160405180910390209050600080905060008090505b60025481101561364d5761363c83600301828154811061354a57fe5b90600052602060002090600602016040518060c0016040529081600082018054600181600116156101000203166002900480601f0160208091040260200160405190810160405280929190818152602001828054600181600116156101000203166002900480156135fc5780601f106135d1576101008083540402835291602001916135fc565b820191906000526020600020905b8154815290600101906020018083116135df57829003601f168201915b50505050508152602001600182015481526020016002820154815260200160038201548152602001600482015481526020016005820154815250506134c6565b82019150808060010191505061352e565b508481019250505092915050565b60608060088360405161366e9190614dde565b90815260200160405180910390208054806020026020016040519081016040528092919081815260200182805480156136c657602002820191906000526020600020905b8154815260200190600101908083116136b2575b505050505090506060815160405190808252806020026020018201604052801561370a57816020015b6136f76140b7565b8152602001906001900390816136ef5790505b50905060008090505b8251811015613e65576006600084838151811061372c57fe5b60200260200101518152602001908152602001600020604051806080016040529081600082016040518060a001604052908160008201604051806060016040529081600082018054600181600116156101000203166002900480601f0160208091040260200160405190810160405280929190818152602001828054600181600116156101000203166002900480156138065780601f106137db57610100808354040283529160200191613806565b820191906000526020600020905b8154815290600101906020018083116137e957829003601f168201915b50505050508152602001600182018054600181600116156101000203166002900480601f0160208091040260200160405190810160405280929190818152602001828054600181600116156101000203166002900480156138a85780601f1061387d576101008083540402835291602001916138a8565b820191906000526020600020905b81548152906001019060200180831161388b57829003601f168201915b50505050508152602001600282018054600181600116156101000203166002900480601f01602080910402602001604051908101604052809291908181526020018280546001816001161561010002031660029004801561394a5780601f1061391f5761010080835404028352916020019161394a565b820191906000526020600020905b81548152906001019060200180831161392d57829003601f168201915b505050505081525050815260200160038201805480602002602001604051908101604052809291908181526020016000905b82821015613a8257838290600052602060002090600602016040518060c0016040529081600082018054600181600116156101000203166002900480601f016020809104026020016040519081016040528092919081815260200182805460018160011615610100020316600290048015613a385780601f10613a0d57610100808354040283529160200191613a38565b820191906000526020600020905b815481529060010190602001808311613a1b57829003601f168201915b50505050508152602001600182015481526020016002820154815260200160038201548152602001600482015481526020016005820154815250508152602001906001019061397c565b50505050815260200160048201548152602001600582015481526020016006820160009054906101000a900460ff1615151515815250508152602001600782016040518060a001604052908160008201604051806060016040529081600082018054600181600116156101000203166002900480601f016020809104026020016040519081016040528092919081815260200182805460018160011615610100020316600290048015613b765780601f10613b4b57610100808354040283529160200191613b76565b820191906000526020600020905b815481529060010190602001808311613b5957829003601f168201915b50505050508152602001600182018054600181600116156101000203166002900480601f016020809104026020016040519081016040528092919081815260200182805460018160011615610100020316600290048015613c185780601f10613bed57610100808354040283529160200191613c18565b820191906000526020600020905b815481529060010190602001808311613bfb57829003601f168201915b50505050508152602001600282018054600181600116156101000203166002900480601f016020809104026020016040519081016040528092919081815260200182805460018160011615610100020316600290048015613cba5780601f10613c8f57610100808354040283529160200191613cba565b820191906000526020600020905b815481529060010190602001808311613c9d57829003601f168201915b505050505081525050815260200160038201805480602002602001604051908101604052809291908181526020016000905b82821015613df257838290600052602060002090600602016040518060c0016040529081600082018054600181600116156101000203166002900480601f016020809104026020016040519081016040528092919081815260200182805460018160011615610100020316600290048015613da85780601f10613d7d57610100808354040283529160200191613da8565b820191906000526020600020905b815481529060010190602001808311613d8b57829003601f168201915b505050505081526020016001820154815260200160028201548152602001600382015481526020016004820154815260200160058201548152505081526020019060010190613cec565b50505050815260200160048201548152602001600582015481526020016006820160009054906101000a900460ff1615151515815250508152602001600e8201548152602001600f82015481525050828281518110613e4d57fe5b60200260200101819052508080600101915050613713565b508092505050919050565b6040518060a00160405280613e836140eb565b81526020016060815260200160008152602001600081526020016000151581525090565b6040518060c001604052806060815260200160008152602001600081526020016000815260200160008152602001600081525090565b828054600181600116156101000203166002900490600052602060002090601f016020900481019282601f10613f1e57805160ff1916838001178555613f4c565b82800160010185558215613f4c579182015b82811115613f4b578251825591602001919060010190613f30565b5b509050613f59919061410c565b5090565b828054600181600116156101000203166002900490600052602060002090601f016020900481019282601f10613f965780548555613fd3565b82800160010185558215613fd357600052602060002091601f016020900482015b82811115613fd2578254825591600101919060010190613fb7565b5b509050613fe0919061410c565b5090565b8280548282559060005260206000209060060281019282156140855760005260206000209160060282015b8281111561408457828260008201816000019080546001816001161561010002031660029004614040929190613f5d565b50600182015481600101556002820154816002015560038201548160030155600482015481600401556005820154816005015550509160060191906006019061400f565b5b5090506140929190614131565b5090565b60405180606001604052806060815260200160608152602001606081525090565b60405180608001604052806140ca614188565b81526020016140d7614188565b815260200160008152602001600081525090565b60405180606001604052806060815260200160608152602001606081525090565b61412e91905b8082111561412a576000816000905550600101614112565b5090565b90565b61418591905b80821115614181576000808201600061415091906141bf565b6001820160009055600282016000905560038201600090556004820160009055600582016000905550600601614137565b5090565b90565b6040518060a0016040528061419b6140eb565b81526020016060815260200160008152602001600081526020016000151581525090565b50805460018160011615610100020316600290046000825580601f106141e55750614204565b601f016020900490600052602060002090810190614203919061410c565b5b50565b600082601f83011261421857600080fd5b813561422b61422682614fb4565b614f87565b9150808252602083016020830185838301111561424757600080fd5b6142528382846150ec565b50505092915050565b600082601f83011261426c57600080fd5b813561427f61427a82614fe0565b614f87565b9150808252602083016020830185838301111561429b57600080fd5b6142a68382846150ec565b50505092915050565b600060c082840312156142c157600080fd5b6142cb60c0614f87565b9050600082013567ffffffffffffffff8111156142e757600080fd5b6142f384828501614207565b600083015250602061430784828501614363565b602083015250604061431b84828501614363565b604083015250606061432f84828501614363565b606083015250608061434384828501614363565b60808301525060a061435784828501614363565b60a08301525092915050565b6000813590506143728161513f565b92915050565b60006020828403121561438a57600080fd5b600082013567ffffffffffffffff8111156143a457600080fd5b6143b08482850161425b565b91505092915050565b600080604083850312156143cc57600080fd5b600083013567ffffffffffffffff8111156143e657600080fd5b6143f28582860161425b565b925050602083013567ffffffffffffffff81111561440f57600080fd5b61441b8582860161425b565b9150509250929050565b60008060006060848603121561443a57600080fd5b600084013567ffffffffffffffff81111561445457600080fd5b6144608682870161425b565b935050602084013567ffffffffffffffff81111561447d57600080fd5b6144898682870161425b565b925050604084013567ffffffffffffffff8111156144a657600080fd5b6144b28682870161425b565b9150509250925092565b600080604083850312156144cf57600080fd5b600083013567ffffffffffffffff8111156144e957600080fd5b6144f58582860161425b565b925050602061450685828601614363565b9150509250929050565b60008060008060008060c0878903121561452957600080fd5b600087013567ffffffffffffffff81111561454357600080fd5b61454f89828a0161425b565b965050602061456089828a01614363565b955050604061457189828a01614363565b945050606061458289828a01614363565b935050608061459389828a01614363565b92505060a06145a489828a01614363565b9150509295509295509295565b600080600080600080600060e0888a0312156145cc57600080fd5b600088013567ffffffffffffffff8111156145e657600080fd5b6145f28a828b0161425b565b97505060206146038a828b01614363565b96505060406146148a828b01614363565b95505060606146258a828b01614363565b94505060806146368a828b01614363565b93505060a06146478a828b01614363565b92505060c06146588a828b01614363565b91505092959891949750929550565b60006020828403121561467957600080fd5b600082013567ffffffffffffffff81111561469357600080fd5b61469f848285016142af565b91505092915050565b6000602082840312156146ba57600080fd5b60006146c884828501614363565b91505092915050565b600080604083850312156146e457600080fd5b60006146f285828601614363565b925050602083013567ffffffffffffffff81111561470f57600080fd5b61471b8582860161425b565b9150509250929050565b600080600080600080600060e0888a03121561474057600080fd5b600061474e8a828b01614363565b975050602061475f8a828b01614363565b96505060406147708a828b01614363565b95505060606147818a828b01614363565b94505060806147928a828b01614363565b93505060a06147a38a828b01614363565b92505060c06147b48a828b01614363565b91505092959891949750929550565b60006147cf8383614b5e565b905092915050565b60006147e38383614be7565b905092915050565b60006147f682615041565b6148008185615087565b9350836020820285016148128561500c565b8060005b8581101561484e578484038952815161482f85826147c3565b945061483a8361506d565b925060208a01995050600181019050614816565b50829750879550505050505092915050565b600061486b8261504c565b6148758185615098565b9350836020820285016148878561501c565b8060005b858110156148c357848403895281516148a485826147d7565b94506148af8361507a565b925060208a0199505060018101905061488b565b50829750879550505050505092915050565b6148de816150d6565b82525050565b6148ed816150d6565b82525050565b60006148fe82615062565b61490881856150cb565b93506149188185602086016150fb565b80840191505092915050565b600061492f82615057565b61493981856150a9565b93506149498185602086016150fb565b6149528161512e565b840191505092915050565b600061496882615057565b61497281856150ba565b93506149828185602086016150fb565b61498b8161512e565b840191505092915050565b60006149a182615057565b6149ab81856150cb565b93506149bb8185602086016150fb565b80840191505092915050565b6000815460018116600081146149e45760018114614a0957614a4d565b607f60028304166149f581876150cb565b955060ff1983168652808601935050614a4d565b60028204614a1781876150cb565b9550614a228561502c565b60005b82811015614a4457815481890152600182019150602081019050614a25565b82880195505050505b505092915050565b6000614a626014836150ba565b91507f7573657220616c6c7265616479206578736973740000000000000000000000006000830152602082019050919050565b6000614aa26018836150ba565b91507f70617373776f7264206973206e6f7420636f72726563742000000000000000006000830152602082019050919050565b600060c0830160008301518482036000860152614af28282614924565b9150506020830151614b076020860182614da9565b506040830151614b1a6040860182614da9565b506060830151614b2d6060860182614da9565b506080830151614b406080860182614da9565b5060a0830151614b5360a0860182614da9565b508091505092915050565b600060c0830160008301518482036000860152614b7b8282614924565b9150506020830151614b906020860182614da9565b506040830151614ba36040860182614da9565b506060830151614bb66060860182614da9565b506080830151614bc96080860182614da9565b5060a0830151614bdc60a0860182614da9565b508091505092915050565b60006080830160008301518482036000860152614c048282614cce565b91505060208301518482036020860152614c1e8282614cce565b9150506040830151614c336040860182614da9565b506060830151614c466060860182614da9565b508091505092915050565b600060a0830160008301518482036000860152614c6e8282614d4b565b91505060208301518482036020860152614c8882826147eb565b9150506040830151614c9d6040860182614da9565b506060830151614cb06060860182614da9565b506080830151614cc360808601826148d5565b508091505092915050565b600060a0830160008301518482036000860152614ceb8282614d4b565b91505060208301518482036020860152614d0582826147eb565b9150506040830151614d1a6040860182614da9565b506060830151614d2d6060860182614da9565b506080830151614d4060808601826148d5565b508091505092915050565b60006060830160008301518482036000860152614d688282614924565b91505060208301518482036020860152614d828282614924565b91505060408301518482036040860152614d9c8282614924565b9150508091505092915050565b614db2816150e2565b82525050565b614dc1816150e2565b82525050565b6000614dd38284614996565b915081905092915050565b6000614dea82846148f3565b915081905092915050565b6000614e0182846149c7565b915081905092915050565b60006020820190508181036000830152614e268184614860565b905092915050565b6000602082019050614e4360008301846148e4565b92915050565b60006060820190508181036000830152614e63818661495d565b90508181036020830152614e77818561495d565b90508181036040830152614e8b818461495d565b9050949350505050565b60006020820190508181036000830152614eae81614a55565b9050919050565b60006020820190508181036000830152614ece81614a95565b9050919050565b60006020820190508181036000830152614eef8184614ad5565b905092915050565b60006020820190508181036000830152614f118184614c51565b905092915050565b60006080820190508181036000830152614f338187614c51565b9050614f4260208301866148e4565b8181036040830152614f548185614c51565b9050614f6360608301846148e4565b95945050505050565b6000602082019050614f816000830184614db8565b92915050565b6000604051905081810181811067ffffffffffffffff82111715614faa57600080fd5b8060405250919050565b600067ffffffffffffffff821115614fcb57600080fd5b601f19601f8301169050602081019050919050565b600067ffffffffffffffff821115614ff757600080fd5b601f19601f8301169050602081019050919050565b6000819050602082019050919050565b6000819050602082019050919050565b60008190508160005260206000209050919050565b600081519050919050565b600081519050919050565b600081519050919050565b600081519050919050565b6000602082019050919050565b6000602082019050919050565b600082825260208201905092915050565b600082825260208201905092915050565b600082825260208201905092915050565b600082825260208201905092915050565b600081905092915050565b60008115159050919050565b6000819050919050565b82818337600083830152505050565b60005b838110156151195780820151818401526020810190506150fe565b83811115615128576000848401525b50505050565b6000601f19601f8301169050919050565b615148816150e2565b811461515357600080fd5b5056fea365627a7a72315820904e999e29787a233d1dfc0e88ba993b789d59fe2496806d1555d097c3d364806c6578706572696d656e74616cf564736f6c63430005100040",
  "source": "// SPDX-License-Identifier: MIT\r\npragma solidity >=0.4.0 < 0.8.0;\r\npragma experimental ABIEncoderV2;\r\n\r\ncontract NBA_gembller{\r\n    struct User{\r\n        string firtsName;\r\n        string username;\r\n        string password;\r\n         //address userAddress;\r\n    }\r\n    \r\n struct BPlayer{\r\n      string name;\r\n      uint rebounds;\r\n      uint asists;\r\n      uint points;\r\n      uint blocks;\r\n      uint steals;\r\n\r\n    }\r\n    \r\n    \r\n  struct  UserGamble{\r\n        User user;\r\n        BPlayer []  players;\r\n        uint gambleAmount; \r\n        uint initialPrice;\r\n        bool valid;\r\n    }\r\n    \r\n   \r\n    struct GamblingBattle{\r\n        UserGamble userGamble1;\r\n        UserGamble userGamble2;\r\n        uint scoreUserGamble1;\r\n        uint scoreUserGamble2;\r\n    }\r\n\r\n      uint GamblingBattleNum;\r\n      User [] public userWhoWantToGambller;\r\n      uint  numberOfPlayers=2;\r\n      mapping(string => UserGamble)  userGambles;\r\n       mapping(string => BPlayer)  players;\r\n      mapping(string => User) usersMapping;\r\n      mapping(uint => GamblingBattle) gamblingBattles;\r\n      mapping(string => bool) userExists;\r\n      mapping(string=>uint[]) userNameToBattle;\r\n      UserGamble userWaits_0;\r\n      UserGamble userWaits_500;\r\n      UserGamble userWaits_1000;\r\n\r\n        \r\n\r\n      constructor() public {\r\n        \r\n        GamblingBattleNum=0;\r\n        userWaits_0.valid=false;\r\n        userWaits_500.valid=false;\r\n        userWaits_1000.valid=false;\r\n        userWaits_0.initialPrice=0;\r\n        userWaits_500.initialPrice=500;\r\n        userWaits_1000.initialPrice=1000;\r\n      } \r\n      \r\n      //return true if the user exsist and the password is correct \r\n      function login(string memory _username,string memory _password) public view returns (bool)  {\r\n         User memory _user=usersMapping[_username];\r\n         require(keccak256(abi.encodePacked((_user.password))) == keccak256(abi.encodePacked((_password))),\"password is not correct \");\r\n         return userExists[_username];\r\n         \r\n        }\r\n       \r\n      function register(string memory firtsName,string  memory username,string  memory password) public  {\r\n        User memory _user=User(firtsName,username,password);\r\n        require(!userExists[_user.username],\"user allready exsist\");\r\n        usersMapping[username]=_user;\r\n        userExists[_user.username] = true;  \r\n        }\r\n     \r\n\r\n    function createPlayer( string memory _playerName,\r\n    uint _rebounds,uint _asists,uint _points ,uint _blocks,uint _steals) public {\r\n      BPlayer memory _player=BPlayer(_playerName,_rebounds,_asists,_points,_blocks,_steals);\r\n      players[_playerName]=_player;\r\n    }\r\n\r\n\r\n    function addPlayerToUser(string memory _username,string memory  _playerName) public \r\n      {\r\n       BPlayer memory _player=players[_playerName];\r\n      userGambles[_username].players.push(_player);\r\n\r\n      }\r\n    function addUserGambling(string memory _username,uint _initialPrice) public  {        \r\n          userGambles[_username].initialPrice=_initialPrice;\r\n          userGambles[_username].valid=true;\r\n          User memory _user=usersMapping[_username];\r\n          userGambles[_username].user=_user;\r\n          userGambles[_username].gambleAmount=calculateGamblePriceWinner(_initialPrice, _username);       \r\n\r\n          if(userGambles[_username].initialPrice==userWaits_0.initialPrice){\r\n               if (userWaits_0.valid==false){\r\n               userWaits_0=userGambles[_user.username];\r\n          }else{\r\n             createBattle(_user.username);\r\n           }\r\n          \r\n          }else if(userGambles[_username].initialPrice==userWaits_500.initialPrice){\r\n            if (userWaits_500.valid==false){\r\n               userWaits_500=userGambles[_user.username];\r\n          }else{\r\n             createBattle(_user.username);\r\n           }\r\n        \r\n\r\n          }else{\r\n            if (userWaits_1000.valid==false){\r\n               userWaits_1000=userGambles[_user.username];\r\n          }else{\r\n             createBattle(_user.username);\r\n          }\r\n        }\r\n     }\r\n    \r\n      function createBattle(string memory userName)public  {    \r\n        gamblingBattles[GamblingBattleNum].userGamble1= userGambles[userName];  //get the userGamble1\r\n        if ( gamblingBattles[GamblingBattleNum].userGamble1.initialPrice==0){\r\n        gamblingBattles[GamblingBattleNum].userGamble2= userWaits_0;//get the usergamble2\r\n        userWaits_0.valid=false;\r\n        userNameToBattle[userName].push(GamblingBattleNum);\r\n        userNameToBattle[userWaits_0.user.username].push(GamblingBattleNum);\r\n        GamblingBattleNum+=1;\r\n        \r\n        }else if(gamblingBattles[GamblingBattleNum].userGamble1.initialPrice==500){\r\n        gamblingBattles[GamblingBattleNum].userGamble2= userWaits_500;//get the usergamble2   \r\n        userWaits_0.valid=false;\r\n        userNameToBattle[userName].push(GamblingBattleNum);\r\n        userNameToBattle[userWaits_500.user.username].push(GamblingBattleNum);\r\n        GamblingBattleNum+=1;\r\n\r\n        }else{\r\n          gamblingBattles[GamblingBattleNum].userGamble2= userWaits_1000;//get the usergamble2\r\n          userWaits_1000.valid=false;\r\n          userNameToBattle[userName].push(GamblingBattleNum);\r\n          userNameToBattle[userWaits_1000.user.username].push(GamblingBattleNum);\r\n          GamblingBattleNum+=1;\r\n        }\r\n      }\r\n      \r\n    function calculateGamblePriceWinner(uint _price,string memory _username)public view returns(uint){\r\n      UserGamble storage _userGamble=userGambles[_username];\r\n       uint sum=0;\r\n      //check if there is length function of the array\r\n     \r\n      for (uint i=0;i<numberOfPlayers;i++){\r\n       sum+=calculataPlayerSum(_userGamble.players[i]);\r\n      }      \r\n      return sum+_price;\r\n      \r\n    }\r\n    \r\n\r\n    function calculataPlayerSum(BPlayer memory player) public view returns(uint)\r\n    {\r\n    \r\n       uint priceOfPlayer=player.rebounds*10+player.points*5+player.steals*15+player.blocks*15\r\n       +player.asists*10;\r\n       return priceOfPlayer;\r\n      \r\n    }\r\n          \r\n      \r\n      function calculateDayStatisticsOfPlayer(uint gambllerNum,uint battleNum,uint rebounds,uint asists,uint points ,\r\n      uint blocks,uint steals) public \r\n      {\r\n        GamblingBattle storage  battle = gamblingBattles[battleNum];\r\n        uint score= rebounds*5+asists *5 +points *10 +blocks* 7+steals *8;\r\n        if (gambllerNum==1){\r\n          battle.scoreUserGamble1+=score; \r\n        }else{\r\n           battle.scoreUserGamble2+=score; \r\n        }\r\n      }\r\n      \r\n\r\n      function winner(uint battleNum) public view returns(UserGamble memory,bool,UserGamble memory,bool)\r\n      {\r\n        GamblingBattle storage  battle = gamblingBattles[battleNum];\r\n         if(battle.scoreUserGamble1>battle.scoreUserGamble2){\r\n           return (battle.userGamble1,true,battle.userGamble2,false);\r\n         }else if(battle.scoreUserGamble1< battle.scoreUserGamble2){\r\n           return (battle.userGamble1,false,battle.userGamble2,true);\r\n         }\r\n           return (battle.userGamble1,false,battle.userGamble2,false);     \r\n       }\r\n\r\n   function updateStatisticOfPlayer(string memory _playerName,\r\n    uint _rebounds,uint _asists,uint _points ,uint _blocks,uint _steals,uint _price) public {\r\n     \r\n      players[_playerName].rebounds+=_rebounds;\r\n      players[_playerName].asists+=_asists;\r\n      players[_playerName].points+=_points;\r\n      players[_playerName].blocks+=_blocks;\r\n      players[_playerName].steals+=_steals;\r\n      \r\n    }\r\n\r\n    //------just for test-----\r\n    \r\n    function getPlayer(string  memory _playername) public view returns(BPlayer memory ){\r\n     return players[_playername];\r\n    }\r\n     function getUserGambllerByUserName(string memory _username)public view returns(UserGamble memory){\r\n\r\n          UserGamble memory _userGamble= userGambles[_username];\r\n          return _userGamble;\r\n    }\r\n     function getGamblingBattle(string memory username)public view returns(GamblingBattle[] memory){\r\n        \r\n        uint[] memory gamblingNumbers=userNameToBattle[username];\r\n        GamblingBattle[] memory battles=new GamblingBattle[](gamblingNumbers.length);\r\n        for (uint i=0;i<gamblingNumbers.length;i++){\r\n          battles[i]=gamblingBattles[gamblingNumbers[i]];\r\n        }\r\n        return battles;\r\n      }\r\n\r\n    \r\n}",
  "sourcePath": "C:/blockchain frontend new/contracts/NBA_gembller.sol",
  "compiler": {
    "name": "solc",
    "version": "0.5.16+commit.9c3226ce.Emscripten.clang"
  },
  "schemaVersion": "3.3.4",
  "updatedAt": "2021-03-13T20:58:45.554Z",
  "networkType": "ethereum",
  "devdoc": {
    "methods": {}
  },
  "userdoc": {
    "methods": {}
  }
}