{
  "contractName": "NBA_gembller",
  "abi": [
    {
      "inputs": [],
      "payable": false,
      "stateMutability": "nonpayable",
      "type": "constructor"
    },
    {
      "constant": true,
      "inputs": [
        {
          "internalType": "uint256",
          "name": "",
          "type": "uint256"
        }
      ],
      "name": "userWhoWantToGambller",
      "outputs": [
        {
          "internalType": "string",
          "name": "firtsName",
          "type": "string"
        },
        {
          "internalType": "string",
          "name": "username",
          "type": "string"
        },
        {
          "internalType": "string",
          "name": "password",
          "type": "string"
        }
      ],
      "payable": false,
      "stateMutability": "view",
      "type": "function"
    },
    {
      "constant": true,
      "inputs": [
        {
          "internalType": "string",
          "name": "username",
          "type": "string"
        }
      ],
      "name": "login",
      "outputs": [
        {
          "internalType": "bool",
          "name": "",
          "type": "bool"
        }
      ],
      "payable": false,
      "stateMutability": "view",
      "type": "function"
    },
    {
      "constant": false,
      "inputs": [
        {
          "internalType": "string",
          "name": "firtsName",
          "type": "string"
        },
        {
          "internalType": "string",
          "name": "username",
          "type": "string"
        },
        {
          "internalType": "string",
          "name": "password",
          "type": "string"
        }
      ],
      "name": "register",
      "outputs": [],
      "payable": false,
      "stateMutability": "nonpayable",
      "type": "function"
    },
    {
      "constant": false,
      "inputs": [
        {
          "internalType": "string",
          "name": "username",
          "type": "string"
        },
        {
          "internalType": "string",
          "name": "playerName",
          "type": "string"
        },
        {
          "internalType": "uint256",
          "name": "rebounds",
          "type": "uint256"
        },
        {
          "internalType": "uint256",
          "name": "asists",
          "type": "uint256"
        },
        {
          "internalType": "uint256",
          "name": "point",
          "type": "uint256"
        },
        {
          "internalType": "uint256",
          "name": "blocks",
          "type": "uint256"
        },
        {
          "internalType": "uint256",
          "name": "steals",
          "type": "uint256"
        },
        {
          "internalType": "uint256",
          "name": "price",
          "type": "uint256"
        }
      ],
      "name": "addPlayerToUser",
      "outputs": [],
      "payable": false,
      "stateMutability": "nonpayable",
      "type": "function"
    },
    {
      "constant": false,
      "inputs": [
        {
          "internalType": "string",
          "name": "username",
          "type": "string"
        },
        {
          "internalType": "uint256",
          "name": "_initalPrice",
          "type": "uint256"
        }
      ],
      "name": "addUserGambling",
      "outputs": [],
      "payable": false,
      "stateMutability": "nonpayable",
      "type": "function"
    },
    {
      "constant": false,
      "inputs": [
        {
          "internalType": "string",
          "name": "userName",
          "type": "string"
        }
      ],
      "name": "createBattle",
      "outputs": [],
      "payable": false,
      "stateMutability": "nonpayable",
      "type": "function"
    },
    {
      "constant": true,
      "inputs": [
        {
          "internalType": "string",
          "name": "username",
          "type": "string"
        }
      ],
      "name": "getGamblingBattle",
      "outputs": [
        {
          "components": [
            {
              "components": [
                {
                  "components": [
                    {
                      "internalType": "string",
                      "name": "firtsName",
                      "type": "string"
                    },
                    {
                      "internalType": "string",
                      "name": "username",
                      "type": "string"
                    },
                    {
                      "internalType": "string",
                      "name": "password",
                      "type": "string"
                    }
                  ],
                  "internalType": "struct NBA_gembller.User",
                  "name": "user",
                  "type": "tuple"
                },
                {
                  "components": [
                    {
                      "internalType": "string",
                      "name": "name",
                      "type": "string"
                    },
                    {
                      "internalType": "uint256",
                      "name": "rebounds",
                      "type": "uint256"
                    },
                    {
                      "internalType": "uint256",
                      "name": "asists",
                      "type": "uint256"
                    },
                    {
                      "internalType": "uint256",
                      "name": "pointes",
                      "type": "uint256"
                    },
                    {
                      "internalType": "uint256",
                      "name": "blocks",
                      "type": "uint256"
                    },
                    {
                      "internalType": "uint256",
                      "name": "steals",
                      "type": "uint256"
                    },
                    {
                      "internalType": "uint256",
                      "name": "price",
                      "type": "uint256"
                    }
                  ],
                  "internalType": "struct NBA_gembller.BPlayer[]",
                  "name": "players",
                  "type": "tuple[]"
                },
                {
                  "internalType": "uint256",
                  "name": "gambleSum",
                  "type": "uint256"
                },
                {
                  "internalType": "uint256",
                  "name": "initialPrice",
                  "type": "uint256"
                },
                {
                  "internalType": "bool",
                  "name": "valid",
                  "type": "bool"
                }
              ],
              "internalType": "struct NBA_gembller.UserGamble",
              "name": "userGamble1",
              "type": "tuple"
            },
            {
              "components": [
                {
                  "components": [
                    {
                      "internalType": "string",
                      "name": "firtsName",
                      "type": "string"
                    },
                    {
                      "internalType": "string",
                      "name": "username",
                      "type": "string"
                    },
                    {
                      "internalType": "string",
                      "name": "password",
                      "type": "string"
                    }
                  ],
                  "internalType": "struct NBA_gembller.User",
                  "name": "user",
                  "type": "tuple"
                },
                {
                  "components": [
                    {
                      "internalType": "string",
                      "name": "name",
                      "type": "string"
                    },
                    {
                      "internalType": "uint256",
                      "name": "rebounds",
                      "type": "uint256"
                    },
                    {
                      "internalType": "uint256",
                      "name": "asists",
                      "type": "uint256"
                    },
                    {
                      "internalType": "uint256",
                      "name": "pointes",
                      "type": "uint256"
                    },
                    {
                      "internalType": "uint256",
                      "name": "blocks",
                      "type": "uint256"
                    },
                    {
                      "internalType": "uint256",
                      "name": "steals",
                      "type": "uint256"
                    },
                    {
                      "internalType": "uint256",
                      "name": "price",
                      "type": "uint256"
                    }
                  ],
                  "internalType": "struct NBA_gembller.BPlayer[]",
                  "name": "players",
                  "type": "tuple[]"
                },
                {
                  "internalType": "uint256",
                  "name": "gambleSum",
                  "type": "uint256"
                },
                {
                  "internalType": "uint256",
                  "name": "initialPrice",
                  "type": "uint256"
                },
                {
                  "internalType": "bool",
                  "name": "valid",
                  "type": "bool"
                }
              ],
              "internalType": "struct NBA_gembller.UserGamble",
              "name": "userGamble2",
              "type": "tuple"
            }
          ],
          "internalType": "struct NBA_gembller.GamblingBattle[]",
          "name": "",
          "type": "tuple[]"
        }
      ],
      "payable": false,
      "stateMutability": "view",
      "type": "function"
    }
  ],
  "bytecode": "0x608060405234801561001057600080fd5b50600080819055506000600760060160006101000a81548160ff0219169083151502179055506000600e60060160006101000a81548160ff0219169083151502179055506000601560060160006101000a81548160ff02191690831515021790555060006007600501819055506000600e6005018190555060006015600501819055506128ac806100a26000396000f3fe608060405234801561001057600080fd5b506004361061007d5760003560e01c80633a7d280c1161005b5780633a7d280c146100ec5780634cd08d031461011c5780639b45976b14610138578063e2d7f71e146101545761007d565b80632bc33d90146100825780632ca04522146100b45780633a50c4d4146100d0575b600080fd5b61009c60048036036100979190810190612113565b610184565b6040516100ab9392919061265a565b60405180910390f35b6100ce60048036036100c99190810190611f05565b610383565b005b6100ea60048036036100e59190810190611fdd565b610a28565b005b61010660048036036101019190810190611f05565b610b19565b604051610113919061263f565b60405180910390f35b61013660048036036101319190810190611f46565b610b4e565b005b610152600480360361014d91908101906120bf565b610c9d565b005b61016e60048036036101699190810190611f05565b61131c565b60405161017b919061261d565b60405180910390f35b6001818154811061019157fe5b9060005260206000209060030201600091509050806000018054600181600116156101000203166002900480601f01602080910402602001604051908101604052809291908181526020018280546001816001161561010002031660029004801561023d5780601f106102125761010080835404028352916020019161023d565b820191906000526020600020905b81548152906001019060200180831161022057829003601f168201915b505050505090806001018054600181600116156101000203166002900480601f0160208091040260200160405190810160405280929190818152602001828054600181600116156101000203166002900480156102db5780601f106102b0576101008083540402835291602001916102db565b820191906000526020600020905b8154815290600101906020018083116102be57829003601f168201915b505050505090806002018054600181600116156101000203166002900480601f0160208091040260200160405190810160405280929190818152602001828054600181600116156101000203166002900480156103795780601f1061034e57610100808354040283529160200191610379565b820191906000526020600020905b81548152906001019060200180831161035c57829003601f168201915b5050505050905083565b60028160405161039391906125ef565b908152602001604051809103902060046000805481526020019081526020016000206000016000820181600001600082018160000190805460018160011615610100020316600290046103e7929190611b31565b506001820181600101908054600181600116156101000203166002900461040f929190611b31565b5060028201816002019080546001816001161561010002031660029004610437929190611b31565b5050506003820181600301908054610450929190611bb8565b5060048201548160040155600582015481600501556006820160009054906101000a900460ff168160060160006101000a81548160ff0219169083151502179055509050506000600460008054815260200190815260200160002060000160050154141561067c5760076004600080548152602001908152602001600020600701600082018160000160008201816000019080546001816001161561010002031660029004610500929190611b31565b5060018201816001019080546001816001161561010002031660029004610528929190611b31565b5060028201816002019080546001816001161561010002031660029004610550929190611b31565b5050506003820181600301908054610569929190611bb8565b5060048201548160040155600582015481600501556006820160009054906101000a900460ff168160060160006101000a81548160ff0219169083151502179055509050506000600760060160006101000a81548160ff0219169083151502179055506006816040516105dc91906125ef565b908152602001604051809103902060005490806001815401808255809150509060018203906000526020600020016000909192909190915055506006600760000160010160405161062d9190612606565b9081526020016040518091039020600054908060018154018082558091505090600182039060005260206000200160009091929091909150555060016000808282540192505081905550610a25565b6101f4600460008054815260200190815260200160002060000160050154141561086457600e60046000805481526020019081526020016000206007016000820181600001600082018160000190805460018160011615610100020316600290046106e8929190611b31565b5060018201816001019080546001816001161561010002031660029004610710929190611b31565b5060028201816002019080546001816001161561010002031660029004610738929190611b31565b5050506003820181600301908054610751929190611bb8565b5060048201548160040155600582015481600501556006820160009054906101000a900460ff168160060160006101000a81548160ff0219169083151502179055509050506000600760060160006101000a81548160ff0219169083151502179055506006816040516107c491906125ef565b908152602001604051809103902060005490806001815401808255809150509060018203906000526020600020016000909192909190915055506006600e6000016001016040516108159190612606565b9081526020016040518091039020600054908060018154018082558091505090600182039060005260206000200160009091929091909150555060016000808282540192505081905550610a24565b601560046000805481526020019081526020016000206007016000820181600001600082018160000190805460018160011615610100020316600290046108ac929190611b31565b50600182018160010190805460018160011615610100020316600290046108d4929190611b31565b50600282018160020190805460018160011615610100020316600290046108fc929190611b31565b5050506003820181600301908054610915929190611bb8565b5060048201548160040155600582015481600501556006820160009054906101000a900460ff168160060160006101000a81548160ff0219169083151502179055509050506000601560060160006101000a81548160ff02191690831515021790555060068160405161098891906125ef565b90815260200160405180910390206000549080600181540180825580915050906001820390600052602060002001600090919290919091505550600660156000016001016040516109d99190612606565b90815260200160405180910390206000549080600181540180825580915050906001820390600052602060002001600090919290919091505550600160008082825401925050819055505b5b50565b610a30611c74565b6040518060e00160405280898152602001888152602001878152602001868152602001858152602001848152602001838152509050600289604051610a7591906125ef565b908152602001604051809103902060030181908060018154018082558091505090600182039060005260206000209060070201600090919290919091506000820151816000019080519060200190610ace929190611cb1565b506020820151816001015560408201518160020155606082015181600301556080820151816004015560a0820151816005015560c08201518160060155505050505050505050505050565b6000600582604051610b2b91906125ef565b908152602001604051809103902060009054906101000a900460ff169050919050565b610b56611d31565b604051806060016040528085815260200184815260200183815250905060058160200151604051610b8791906125d8565b908152602001604051809103902060009054906101000a900460ff1615610be3576040517f08c379a0000000000000000000000000000000000000000000000000000000008152600401610bda906126a6565b60405180910390fd5b80600384604051610bf491906125ef565b90815260200160405180910390206000820151816000019080519060200190610c1e929190611cb1565b506020820151816001019080519060200190610c3b929190611cb1565b506040820151816002019080519060200190610c58929190611cb1565b50905050600160058260200151604051610c7291906125d8565b908152602001604051809103902060006101000a81548160ff02191690831515021790555050505050565b80600283604051610cae91906125ef565b9081526020016040518091039020600501819055506001600283604051610cd591906125ef565b908152602001604051809103902060060160006101000a81548160ff021916908315150217905550610d05611d31565b600383604051610d1591906125ef565b9081526020016040518091039020604051806060016040529081600082018054600181600116156101000203166002900480601f016020809104026020016040519081016040528092919081815260200182805460018160011615610100020316600290048015610dc75780601f10610d9c57610100808354040283529160200191610dc7565b820191906000526020600020905b815481529060010190602001808311610daa57829003601f168201915b50505050508152602001600182018054600181600116156101000203166002900480601f016020809104026020016040519081016040528092919081815260200182805460018160011615610100020316600290048015610e695780601f10610e3e57610100808354040283529160200191610e69565b820191906000526020600020905b815481529060010190602001808311610e4c57829003601f168201915b50505050508152602001600282018054600181600116156101000203166002900480601f016020809104026020016040519081016040528092919081815260200182805460018160011615610100020316600290048015610f0b5780601f10610ee057610100808354040283529160200191610f0b565b820191906000526020600020905b815481529060010190602001808311610eee57829003601f168201915b5050505050815250509050600760050154600284604051610f2c91906125ef565b908152602001604051809103902060050154141561107c5760001515600760060160009054906101000a900460ff16151514156110695760028160200151604051610f7791906125d8565b90815260200160405180910390206007600082018160000160008201816000019080546001816001161561010002031660029004610fb6929190611b31565b5060018201816001019080546001816001161561010002031660029004610fde929190611b31565b5060028201816002019080546001816001161561010002031660029004611006929190611b31565b505050600382018160030190805461101f929190611bb8565b5060048201548160040155600582015481600501556006820160009054906101000a900460ff168160060160006101000a81548160ff021916908315150217905550905050611077565b6110768160200151610383565b5b611317565b600e6005015460028460405161109291906125ef565b90815260200160405180910390206005015414156111e25760001515600e60060160009054906101000a900460ff16151514156111cf57600281602001516040516110dd91906125d8565b9081526020016040518091039020600e60008201816000016000820181600001908054600181600116156101000203166002900461111c929190611b31565b5060018201816001019080546001816001161561010002031660029004611144929190611b31565b506002820181600201908054600181600116156101000203166002900461116c929190611b31565b5050506003820181600301908054611185929190611bb8565b5060048201548160040155600582015481600501556006820160009054906101000a900460ff168160060160006101000a81548160ff0219169083151502179055509050506111dd565b6111dc8160200151610383565b5b611316565b60001515601560060160009054906101000a900460ff1615151415611307576002816020015160405161121591906125d8565b90815260200160405180910390206015600082018160000160008201816000019080546001816001161561010002031660029004611254929190611b31565b506001820181600101908054600181600116156101000203166002900461127c929190611b31565b50600282018160020190805460018160011615610100020316600290046112a4929190611b31565b50505060038201816003019080546112bd929190611bb8565b5060048201548160040155600582015481600501556006820160009054906101000a900460ff168160060160006101000a81548160ff021916908315150217905550905050611315565b6113148160200151610383565b5b5b5b505050565b60608060068360405161132f91906125ef565b908152602001604051809103902080548060200260200160405190810160405280929190818152602001828054801561138757602002820191906000526020600020905b815481526020019060010190808311611373575b50505050509050606081516040519080825280602002602001820160405280156113cb57816020015b6113b8611d52565b8152602001906001900390816113b05790505b50905060008090505b8251811015611b2657600460008483815181106113ed57fe5b60200260200101518152602001908152602001600020604051806040016040529081600082016040518060a001604052908160008201604051806060016040529081600082018054600181600116156101000203166002900480601f0160208091040260200160405190810160405280929190818152602001828054600181600116156101000203166002900480156114c75780601f1061149c576101008083540402835291602001916114c7565b820191906000526020600020905b8154815290600101906020018083116114aa57829003601f168201915b50505050508152602001600182018054600181600116156101000203166002900480601f0160208091040260200160405190810160405280929190818152602001828054600181600116156101000203166002900480156115695780601f1061153e57610100808354040283529160200191611569565b820191906000526020600020905b81548152906001019060200180831161154c57829003601f168201915b50505050508152602001600282018054600181600116156101000203166002900480601f01602080910402602001604051908101604052809291908181526020018280546001816001161561010002031660029004801561160b5780601f106115e05761010080835404028352916020019161160b565b820191906000526020600020905b8154815290600101906020018083116115ee57829003601f168201915b505050505081525050815260200160038201805480602002602001604051908101604052809291908181526020016000905b8282101561174d57838290600052602060002090600702016040518060e0016040529081600082018054600181600116156101000203166002900480601f0160208091040260200160405190810160405280929190818152602001828054600181600116156101000203166002900480156116f95780601f106116ce576101008083540402835291602001916116f9565b820191906000526020600020905b8154815290600101906020018083116116dc57829003601f168201915b5050505050815260200160018201548152602001600282015481526020016003820154815260200160048201548152602001600582015481526020016006820154815250508152602001906001019061163d565b50505050815260200160048201548152602001600582015481526020016006820160009054906101000a900460ff1615151515815250508152602001600782016040518060a001604052908160008201604051806060016040529081600082018054600181600116156101000203166002900480601f0160208091040260200160405190810160405280929190818152602001828054600181600116156101000203166002900480156118415780601f1061181657610100808354040283529160200191611841565b820191906000526020600020905b81548152906001019060200180831161182457829003601f168201915b50505050508152602001600182018054600181600116156101000203166002900480601f0160208091040260200160405190810160405280929190818152602001828054600181600116156101000203166002900480156118e35780601f106118b8576101008083540402835291602001916118e3565b820191906000526020600020905b8154815290600101906020018083116118c657829003601f168201915b50505050508152602001600282018054600181600116156101000203166002900480601f0160208091040260200160405190810160405280929190818152602001828054600181600116156101000203166002900480156119855780601f1061195a57610100808354040283529160200191611985565b820191906000526020600020905b81548152906001019060200180831161196857829003601f168201915b505050505081525050815260200160038201805480602002602001604051908101604052809291908181526020016000905b82821015611ac757838290600052602060002090600702016040518060e0016040529081600082018054600181600116156101000203166002900480601f016020809104026020016040519081016040528092919081815260200182805460018160011615610100020316600290048015611a735780601f10611a4857610100808354040283529160200191611a73565b820191906000526020600020905b815481529060010190602001808311611a5657829003601f168201915b505050505081526020016001820154815260200160028201548152602001600382015481526020016004820154815260200160058201548152602001600682015481525050815260200190600101906119b7565b50505050815260200160048201548152602001600582015481526020016006820160009054906101000a900460ff16151515158152505081525050828281518110611b0e57fe5b602002602001018190525080806001019150506113d4565b508092505050919050565b828054600181600116156101000203166002900490600052602060002090601f016020900481019282601f10611b6a5780548555611ba7565b82800160010185558215611ba757600052602060002091601f016020900482015b82811115611ba6578254825591600101919060010190611b8b565b5b509050611bb49190611d78565b5090565b828054828255906000526020600020906007028101928215611c635760005260206000209160070282015b82811115611c6257828260008201816000019080546001816001161561010002031660029004611c14929190611b31565b50600182015481600101556002820154816002015560038201548160030155600482015481600401556005820154816005015560068201548160060155505091600701919060070190611be3565b5b509050611c709190611d9d565b5090565b6040518060e00160405280606081526020016000815260200160008152602001600081526020016000815260200160008152602001600081525090565b828054600181600116156101000203166002900490600052602060002090601f016020900481019282601f10611cf257805160ff1916838001178555611d20565b82800160010185558215611d20579182015b82811115611d1f578251825591602001919060010190611d04565b5b509050611d2d9190611d78565b5090565b60405180606001604052806060815260200160608152602001606081525090565b6040518060400160405280611d65611dfc565b8152602001611d72611dfc565b81525090565b611d9a91905b80821115611d96576000816000905550600101611d7e565b5090565b90565b611df991905b80821115611df55760008082016000611dbc9190611e33565b60018201600090556002820160009055600382016000905560048201600090556005820160009055600682016000905550600701611da3565b5090565b90565b6040518060a00160405280611e0f611e7b565b81526020016060815260200160008152602001600081526020016000151581525090565b50805460018160011615610100020316600290046000825580601f10611e595750611e78565b601f016020900490600052602060002090810190611e779190611d78565b5b50565b60405180606001604052806060815260200160608152602001606081525090565b600082601f830112611ead57600080fd5b8135611ec0611ebb826126f3565b6126c6565b91508082526020830160208301858383011115611edc57600080fd5b611ee78382846127ff565b50505092915050565b600081359050611eff81612852565b92915050565b600060208284031215611f1757600080fd5b600082013567ffffffffffffffff811115611f3157600080fd5b611f3d84828501611e9c565b91505092915050565b600080600060608486031215611f5b57600080fd5b600084013567ffffffffffffffff811115611f7557600080fd5b611f8186828701611e9c565b935050602084013567ffffffffffffffff811115611f9e57600080fd5b611faa86828701611e9c565b925050604084013567ffffffffffffffff811115611fc757600080fd5b611fd386828701611e9c565b9150509250925092565b600080600080600080600080610100898b031215611ffa57600080fd5b600089013567ffffffffffffffff81111561201457600080fd5b6120208b828c01611e9c565b985050602089013567ffffffffffffffff81111561203d57600080fd5b6120498b828c01611e9c565b975050604061205a8b828c01611ef0565b965050606061206b8b828c01611ef0565b955050608061207c8b828c01611ef0565b94505060a061208d8b828c01611ef0565b93505060c061209e8b828c01611ef0565b92505060e06120af8b828c01611ef0565b9150509295985092959890939650565b600080604083850312156120d257600080fd5b600083013567ffffffffffffffff8111156120ec57600080fd5b6120f885828601611e9c565b925050602061210985828601611ef0565b9150509250929050565b60006020828403121561212557600080fd5b600061213384828501611ef0565b91505092915050565b6000612148838361240e565b905092915050565b600061215c83836124aa565b905092915050565b600061216f82612754565b612179818561279a565b93508360208202850161218b8561271f565b8060005b858110156121c757848403895281516121a8858261213c565b94506121b383612780565b925060208a0199505060018101905061218f565b50829750879550505050505092915050565b60006121e48261275f565b6121ee81856127ab565b9350836020820285016122008561272f565b8060005b8581101561223c578484038952815161221d8582612150565b94506122288361278d565b925060208a01995050600181019050612204565b50829750879550505050505092915050565b612257816127e9565b82525050565b612266816127e9565b82525050565b600061227782612775565b61228181856127de565b935061229181856020860161280e565b80840191505092915050565b60006122a88261276a565b6122b281856127bc565b93506122c281856020860161280e565b6122cb81612841565b840191505092915050565b60006122e18261276a565b6122eb81856127cd565b93506122fb81856020860161280e565b61230481612841565b840191505092915050565b600061231a8261276a565b61232481856127de565b935061233481856020860161280e565b80840191505092915050565b60008154600181166000811461235d5760018114612382576123c6565b607f600283041661236e81876127de565b955060ff19831686528086019350506123c6565b6002820461239081876127de565b955061239b8561273f565b60005b828110156123bd5781548189015260018201915060208101905061239e565b82880195505050505b505092915050565b60006123db6014836127cd565b91507f7573657220616c6c7265616479206578736973740000000000000000000000006000830152602082019050919050565b600060e083016000830151848203600086015261242b828261229d565b915050602083015161244060208601826125c9565b50604083015161245360408601826125c9565b50606083015161246660608601826125c9565b50608083015161247960808601826125c9565b5060a083015161248c60a08601826125c9565b5060c083015161249f60c08601826125c9565b508091505092915050565b600060408301600083015184820360008601526124c782826124ee565b915050602083015184820360208601526124e182826124ee565b9150508091505092915050565b600060a083016000830151848203600086015261250b828261256b565b915050602083015184820360208601526125258282612164565b915050604083015161253a60408601826125c9565b50606083015161254d60608601826125c9565b506080830151612560608086018261224e565b508091505092915050565b60006060830160008301518482036000860152612588828261229d565b915050602083015184820360208601526125a2828261229d565b915050604083015184820360408601526125bc828261229d565b9150508091505092915050565b6125d2816127f5565b82525050565b60006125e4828461230f565b915081905092915050565b60006125fb828461226c565b915081905092915050565b60006126128284612340565b915081905092915050565b6000602082019050818103600083015261263781846121d9565b905092915050565b6000602082019050612654600083018461225d565b92915050565b6000606082019050818103600083015261267481866122d6565b9050818103602083015261268881856122d6565b9050818103604083015261269c81846122d6565b9050949350505050565b600060208201905081810360008301526126bf816123ce565b9050919050565b6000604051905081810181811067ffffffffffffffff821117156126e957600080fd5b8060405250919050565b600067ffffffffffffffff82111561270a57600080fd5b601f19601f8301169050602081019050919050565b6000819050602082019050919050565b6000819050602082019050919050565b60008190508160005260206000209050919050565b600081519050919050565b600081519050919050565b600081519050919050565b600081519050919050565b6000602082019050919050565b6000602082019050919050565b600082825260208201905092915050565b600082825260208201905092915050565b600082825260208201905092915050565b600082825260208201905092915050565b600081905092915050565b60008115159050919050565b6000819050919050565b82818337600083830152505050565b60005b8381101561282c578082015181840152602081019050612811565b8381111561283b576000848401525b50505050565b6000601f19601f8301169050919050565b61285b816127f5565b811461286657600080fd5b5056fea365627a7a7231582097a3902eb81d0da374967dc856ef031594db5fb8132caf891f8a132665e3c9706c6578706572696d656e74616cf564736f6c63430005100040",
  "source": "// SPDX-License-Identifier: MIT\r\npragma solidity >=0.4.0 < 0.8.0;\r\npragma experimental ABIEncoderV2;\r\n\r\ncontract NBA_gembller{\r\n    struct User{\r\n        string firtsName;\r\n        string username;\r\n        string password;\r\n         //address userAddress;\r\n    }\r\n    \r\n struct BPlayer{\r\n      string name;\r\n      uint rebounds;\r\n      uint asists;\r\n      uint pointes;\r\n      uint blocks;\r\n      uint steals;\r\n      uint price;\r\n    }\r\n    \r\n    \r\n  struct  UserGamble{\r\n        User user;\r\n        BPlayer []  players;\r\n        uint gambleSum; \r\n        uint initialPrice;\r\n        bool valid;\r\n    }\r\n    \r\n    struct GamblingBattle{\r\n        UserGamble userGamble1;\r\n        UserGamble userGamble2;\r\n        //DATE;\r\n        //uint daysPassed; \r\n     }\r\n      uint GamblingBattleNum;\r\n      User [] public userWhoWantToGambller;\r\n      mapping(string => UserGamble)  userGambles;\r\n      mapping(string => User) usersMapping;\r\n      mapping(uint => GamblingBattle) gamblingBattles;\r\n      mapping(string => bool) userExists;\r\n      mapping(string=>uint[]) userNameToBattle;\r\n      UserGamble userWaits_0;\r\n      UserGamble userWaits_500;\r\n      UserGamble userWaits_1000;\r\n\r\n        \r\n\r\n      constructor() public {\r\n        GamblingBattleNum=0;\r\n        userWaits_0.valid=false;\r\n        userWaits_500.valid=false;\r\n        userWaits_1000.valid=false;\r\n        userWaits_0.initialPrice=0;\r\n        userWaits_500.initialPrice=0;\r\n        userWaits_1000.initialPrice=0;\r\n      } \r\n      \r\n          \r\n      function login(string memory username) public view returns (bool)  {\r\n         return userExists[username];\r\n         //just send message to client that user exsist.\r\n         //retrun the user\r\n        }\r\n       \r\n      function register(string memory firtsName,string  memory username,string  memory password) public  {\r\n        User memory _user=User(firtsName,username,password);\r\n        require(!userExists[_user.username],\"user allready exsist\");\r\n        usersMapping[username]=_user;\r\n        userExists[_user.username] = true;  \r\n        }\r\n\r\n    function addPlayerToUser(string memory username, string memory playerName,\r\n    uint rebounds,uint asists,uint point ,uint blocks,uint steals,uint price) public \r\n      {\r\n      BPlayer memory _player=BPlayer(playerName,rebounds,asists,point,blocks,steals,price);\r\n      userGambles[username].players.push(_player);\r\n\r\n      }\r\n    function addUserGambling(string memory username,uint _initalPrice) public  {        \r\n          userGambles[username].initialPrice=_initalPrice;\r\n          userGambles[username].valid=true;\r\n          User memory _user=usersMapping[username];\r\n          //userGambles[username].gambleSum=calculateGamblePriceWinner();\r\n          if(userGambles[username].initialPrice==userWaits_0.initialPrice){\r\n               if (userWaits_0.valid==false){\r\n               userWaits_0=userGambles[_user.username];\r\n          }else{\r\n             createBattle(_user.username);\r\n           }\r\n\r\n          }else if(userGambles[username].initialPrice==userWaits_500.initialPrice){\r\n            if (userWaits_500.valid==false){\r\n               userWaits_500=userGambles[_user.username];\r\n          }else{\r\n             createBattle(_user.username);\r\n           }\r\n          \r\n          \r\n          }else{\r\n            if (userWaits_1000.valid==false){\r\n               userWaits_1000=userGambles[_user.username];\r\n          }else{\r\n             createBattle(_user.username);\r\n          }\r\n        }\r\n    }\r\n      function createBattle(string memory userName)public  {    \r\n        gamblingBattles[GamblingBattleNum].userGamble1= userGambles[userName];  //get the userGamble1\r\n        if ( gamblingBattles[GamblingBattleNum].userGamble1.initialPrice==0){\r\n        gamblingBattles[GamblingBattleNum].userGamble2= userWaits_0;//get the usergamble2\r\n        userWaits_0.valid=false;\r\n        userNameToBattle[userName].push(GamblingBattleNum);\r\n        userNameToBattle[userWaits_0.user.username].push(GamblingBattleNum);\r\n        GamblingBattleNum+=1;\r\n        \r\n        }else if(gamblingBattles[GamblingBattleNum].userGamble1.initialPrice==500){\r\n        gamblingBattles[GamblingBattleNum].userGamble2= userWaits_500;//get the usergamble2   \r\n        userWaits_0.valid=false;\r\n        userNameToBattle[userName].push(GamblingBattleNum);\r\n        userNameToBattle[userWaits_500.user.username].push(GamblingBattleNum);\r\n        GamblingBattleNum+=1;\r\n\r\n        }else{\r\n          gamblingBattles[GamblingBattleNum].userGamble2= userWaits_1000;//get the usergamble2\r\n          userWaits_1000.valid=false;\r\n          userNameToBattle[userName].push(GamblingBattleNum);\r\n          userNameToBattle[userWaits_1000.user.username].push(GamblingBattleNum);\r\n          GamblingBattleNum+=1;\r\n        }\r\n\r\n      }\r\n      function getGamblingBattle(string memory username)public view returns(GamblingBattle[] memory){\r\n        \r\n        uint[] memory gamblingNumbers=userNameToBattle[username];\r\n        GamblingBattle[] memory battles=new GamblingBattle[](gamblingNumbers.length);\r\n        for (uint i=0;i<gamblingNumbers.length;i++){\r\n          battles[i]=gamblingBattles[gamblingNumbers[i]];\r\n        }\r\n        return battles;\r\n      }\r\n    }",
  "sourcePath": "C:/blockchain frontend new/contracts/NBA_gembller.sol",
  "compiler": {
    "name": "solc",
    "version": "0.5.16+commit.9c3226ce.Emscripten.clang"
  },
  "schemaVersion": "3.3.4",
  "updatedAt": "2021-03-12T17:13:19.017Z",
  "networkType": "ethereum",
  "devdoc": {
    "methods": {}
  },
  "userdoc": {
    "methods": {}
  }
}