{
  "contractName": "NBA_gembller",
  "abi": [
    {
      "inputs": [],
      "payable": false,
      "stateMutability": "nonpayable",
      "type": "constructor"
    },
    {
      "constant": true,
      "inputs": [
        {
          "internalType": "uint256",
          "name": "",
          "type": "uint256"
        }
      ],
      "name": "userWhoWantToGambller",
      "outputs": [
        {
          "internalType": "string",
          "name": "firtsName",
          "type": "string"
        },
        {
          "internalType": "string",
          "name": "username",
          "type": "string"
        },
        {
          "internalType": "string",
          "name": "password",
          "type": "string"
        }
      ],
      "payable": false,
      "stateMutability": "view",
      "type": "function"
    },
    {
      "constant": true,
      "inputs": [
        {
          "internalType": "string",
          "name": "_username",
          "type": "string"
        },
        {
          "internalType": "string",
          "name": "_password",
          "type": "string"
        }
      ],
      "name": "login",
      "outputs": [
        {
          "internalType": "bool",
          "name": "",
          "type": "bool"
        }
      ],
      "payable": false,
      "stateMutability": "view",
      "type": "function"
    },
    {
      "constant": false,
      "inputs": [
        {
          "internalType": "string",
          "name": "firtsName",
          "type": "string"
        },
        {
          "internalType": "string",
          "name": "username",
          "type": "string"
        },
        {
          "internalType": "string",
          "name": "password",
          "type": "string"
        }
      ],
      "name": "register",
      "outputs": [],
      "payable": false,
      "stateMutability": "nonpayable",
      "type": "function"
    },
    {
      "constant": false,
      "inputs": [
        {
          "internalType": "string",
          "name": "username",
          "type": "string"
        },
        {
          "internalType": "string",
          "name": "playerName",
          "type": "string"
        },
        {
          "internalType": "uint256",
          "name": "rebounds",
          "type": "uint256"
        },
        {
          "internalType": "uint256",
          "name": "asists",
          "type": "uint256"
        },
        {
          "internalType": "uint256",
          "name": "points",
          "type": "uint256"
        },
        {
          "internalType": "uint256",
          "name": "blocks",
          "type": "uint256"
        },
        {
          "internalType": "uint256",
          "name": "steals",
          "type": "uint256"
        },
        {
          "internalType": "uint256",
          "name": "price",
          "type": "uint256"
        }
      ],
      "name": "addPlayerToUser",
      "outputs": [],
      "payable": false,
      "stateMutability": "nonpayable",
      "type": "function"
    },
    {
      "constant": false,
      "inputs": [
        {
          "internalType": "string",
          "name": "username",
          "type": "string"
        },
        {
          "internalType": "uint256",
          "name": "_initalPrice",
          "type": "uint256"
        }
      ],
      "name": "addUserGambling",
      "outputs": [],
      "payable": false,
      "stateMutability": "nonpayable",
      "type": "function"
    },
    {
      "constant": false,
      "inputs": [
        {
          "internalType": "string",
          "name": "userName",
          "type": "string"
        }
      ],
      "name": "createBattle",
      "outputs": [],
      "payable": false,
      "stateMutability": "nonpayable",
      "type": "function"
    },
    {
      "constant": true,
      "inputs": [
        {
          "internalType": "string",
          "name": "username",
          "type": "string"
        }
      ],
      "name": "getGamblingBattle",
      "outputs": [
        {
          "components": [
            {
              "components": [
                {
                  "components": [
                    {
                      "internalType": "string",
                      "name": "firtsName",
                      "type": "string"
                    },
                    {
                      "internalType": "string",
                      "name": "username",
                      "type": "string"
                    },
                    {
                      "internalType": "string",
                      "name": "password",
                      "type": "string"
                    }
                  ],
                  "internalType": "struct NBA_gembller.User",
                  "name": "user",
                  "type": "tuple"
                },
                {
                  "components": [
                    {
                      "internalType": "string",
                      "name": "name",
                      "type": "string"
                    },
                    {
                      "internalType": "uint256",
                      "name": "rebounds",
                      "type": "uint256"
                    },
                    {
                      "internalType": "uint256",
                      "name": "asists",
                      "type": "uint256"
                    },
                    {
                      "internalType": "uint256",
                      "name": "points",
                      "type": "uint256"
                    },
                    {
                      "internalType": "uint256",
                      "name": "blocks",
                      "type": "uint256"
                    },
                    {
                      "internalType": "uint256",
                      "name": "steals",
                      "type": "uint256"
                    },
                    {
                      "internalType": "uint256",
                      "name": "price",
                      "type": "uint256"
                    }
                  ],
                  "internalType": "struct NBA_gembller.BPlayer[]",
                  "name": "players",
                  "type": "tuple[]"
                },
                {
                  "internalType": "uint256",
                  "name": "gambleSum",
                  "type": "uint256"
                },
                {
                  "internalType": "uint256",
                  "name": "initialPrice",
                  "type": "uint256"
                },
                {
                  "internalType": "bool",
                  "name": "valid",
                  "type": "bool"
                }
              ],
              "internalType": "struct NBA_gembller.UserGamble",
              "name": "userGamble1",
              "type": "tuple"
            },
            {
              "components": [
                {
                  "components": [
                    {
                      "internalType": "string",
                      "name": "firtsName",
                      "type": "string"
                    },
                    {
                      "internalType": "string",
                      "name": "username",
                      "type": "string"
                    },
                    {
                      "internalType": "string",
                      "name": "password",
                      "type": "string"
                    }
                  ],
                  "internalType": "struct NBA_gembller.User",
                  "name": "user",
                  "type": "tuple"
                },
                {
                  "components": [
                    {
                      "internalType": "string",
                      "name": "name",
                      "type": "string"
                    },
                    {
                      "internalType": "uint256",
                      "name": "rebounds",
                      "type": "uint256"
                    },
                    {
                      "internalType": "uint256",
                      "name": "asists",
                      "type": "uint256"
                    },
                    {
                      "internalType": "uint256",
                      "name": "points",
                      "type": "uint256"
                    },
                    {
                      "internalType": "uint256",
                      "name": "blocks",
                      "type": "uint256"
                    },
                    {
                      "internalType": "uint256",
                      "name": "steals",
                      "type": "uint256"
                    },
                    {
                      "internalType": "uint256",
                      "name": "price",
                      "type": "uint256"
                    }
                  ],
                  "internalType": "struct NBA_gembller.BPlayer[]",
                  "name": "players",
                  "type": "tuple[]"
                },
                {
                  "internalType": "uint256",
                  "name": "gambleSum",
                  "type": "uint256"
                },
                {
                  "internalType": "uint256",
                  "name": "initialPrice",
                  "type": "uint256"
                },
                {
                  "internalType": "bool",
                  "name": "valid",
                  "type": "bool"
                }
              ],
              "internalType": "struct NBA_gembller.UserGamble",
              "name": "userGamble2",
              "type": "tuple"
            },
            {
              "internalType": "uint256",
              "name": "scoreUserGamble1",
              "type": "uint256"
            },
            {
              "internalType": "uint256",
              "name": "scoreUserGamble2",
              "type": "uint256"
            }
          ],
          "internalType": "struct NBA_gembller.GamblingBattle[]",
          "name": "",
          "type": "tuple[]"
        }
      ],
      "payable": false,
      "stateMutability": "view",
      "type": "function"
    },
    {
      "constant": true,
      "inputs": [
        {
          "internalType": "uint256",
          "name": "_price",
          "type": "uint256"
        },
        {
          "internalType": "string",
          "name": "_username",
          "type": "string"
        }
      ],
      "name": "calculateGamblePriceWinner",
      "outputs": [
        {
          "internalType": "uint256",
          "name": "",
          "type": "uint256"
        }
      ],
      "payable": false,
      "stateMutability": "view",
      "type": "function"
    },
    {
      "constant": true,
      "inputs": [
        {
          "components": [
            {
              "internalType": "string",
              "name": "name",
              "type": "string"
            },
            {
              "internalType": "uint256",
              "name": "rebounds",
              "type": "uint256"
            },
            {
              "internalType": "uint256",
              "name": "asists",
              "type": "uint256"
            },
            {
              "internalType": "uint256",
              "name": "points",
              "type": "uint256"
            },
            {
              "internalType": "uint256",
              "name": "blocks",
              "type": "uint256"
            },
            {
              "internalType": "uint256",
              "name": "steals",
              "type": "uint256"
            },
            {
              "internalType": "uint256",
              "name": "price",
              "type": "uint256"
            }
          ],
          "internalType": "struct NBA_gembller.BPlayer",
          "name": "player",
          "type": "tuple"
        }
      ],
      "name": "calculataPlayerSum",
      "outputs": [
        {
          "internalType": "uint256",
          "name": "",
          "type": "uint256"
        }
      ],
      "payable": false,
      "stateMutability": "view",
      "type": "function"
    },
    {
      "constant": true,
      "inputs": [
        {
          "internalType": "string",
          "name": "username",
          "type": "string"
        }
      ],
      "name": "getUserGambllerByUserName",
      "outputs": [
        {
          "components": [
            {
              "components": [
                {
                  "internalType": "string",
                  "name": "firtsName",
                  "type": "string"
                },
                {
                  "internalType": "string",
                  "name": "username",
                  "type": "string"
                },
                {
                  "internalType": "string",
                  "name": "password",
                  "type": "string"
                }
              ],
              "internalType": "struct NBA_gembller.User",
              "name": "user",
              "type": "tuple"
            },
            {
              "components": [
                {
                  "internalType": "string",
                  "name": "name",
                  "type": "string"
                },
                {
                  "internalType": "uint256",
                  "name": "rebounds",
                  "type": "uint256"
                },
                {
                  "internalType": "uint256",
                  "name": "asists",
                  "type": "uint256"
                },
                {
                  "internalType": "uint256",
                  "name": "points",
                  "type": "uint256"
                },
                {
                  "internalType": "uint256",
                  "name": "blocks",
                  "type": "uint256"
                },
                {
                  "internalType": "uint256",
                  "name": "steals",
                  "type": "uint256"
                },
                {
                  "internalType": "uint256",
                  "name": "price",
                  "type": "uint256"
                }
              ],
              "internalType": "struct NBA_gembller.BPlayer[]",
              "name": "players",
              "type": "tuple[]"
            },
            {
              "internalType": "uint256",
              "name": "gambleSum",
              "type": "uint256"
            },
            {
              "internalType": "uint256",
              "name": "initialPrice",
              "type": "uint256"
            },
            {
              "internalType": "bool",
              "name": "valid",
              "type": "bool"
            }
          ],
          "internalType": "struct NBA_gembller.UserGamble",
          "name": "",
          "type": "tuple"
        }
      ],
      "payable": false,
      "stateMutability": "view",
      "type": "function"
    },
    {
      "constant": false,
      "inputs": [
        {
          "internalType": "uint256",
          "name": "gambllerNum",
          "type": "uint256"
        },
        {
          "internalType": "uint256",
          "name": "battleNum",
          "type": "uint256"
        },
        {
          "internalType": "uint256",
          "name": "rebounds",
          "type": "uint256"
        },
        {
          "internalType": "uint256",
          "name": "asists",
          "type": "uint256"
        },
        {
          "internalType": "uint256",
          "name": "points",
          "type": "uint256"
        },
        {
          "internalType": "uint256",
          "name": "blocks",
          "type": "uint256"
        },
        {
          "internalType": "uint256",
          "name": "steals",
          "type": "uint256"
        }
      ],
      "name": "calculateDayStatisticsOfPlayer",
      "outputs": [],
      "payable": false,
      "stateMutability": "nonpayable",
      "type": "function"
    },
    {
      "constant": true,
      "inputs": [
        {
          "internalType": "uint256",
          "name": "battleNum",
          "type": "uint256"
        }
      ],
      "name": "winner",
      "outputs": [
        {
          "components": [
            {
              "components": [
                {
                  "internalType": "string",
                  "name": "firtsName",
                  "type": "string"
                },
                {
                  "internalType": "string",
                  "name": "username",
                  "type": "string"
                },
                {
                  "internalType": "string",
                  "name": "password",
                  "type": "string"
                }
              ],
              "internalType": "struct NBA_gembller.User",
              "name": "user",
              "type": "tuple"
            },
            {
              "components": [
                {
                  "internalType": "string",
                  "name": "name",
                  "type": "string"
                },
                {
                  "internalType": "uint256",
                  "name": "rebounds",
                  "type": "uint256"
                },
                {
                  "internalType": "uint256",
                  "name": "asists",
                  "type": "uint256"
                },
                {
                  "internalType": "uint256",
                  "name": "points",
                  "type": "uint256"
                },
                {
                  "internalType": "uint256",
                  "name": "blocks",
                  "type": "uint256"
                },
                {
                  "internalType": "uint256",
                  "name": "steals",
                  "type": "uint256"
                },
                {
                  "internalType": "uint256",
                  "name": "price",
                  "type": "uint256"
                }
              ],
              "internalType": "struct NBA_gembller.BPlayer[]",
              "name": "players",
              "type": "tuple[]"
            },
            {
              "internalType": "uint256",
              "name": "gambleSum",
              "type": "uint256"
            },
            {
              "internalType": "uint256",
              "name": "initialPrice",
              "type": "uint256"
            },
            {
              "internalType": "bool",
              "name": "valid",
              "type": "bool"
            }
          ],
          "internalType": "struct NBA_gembller.UserGamble",
          "name": "",
          "type": "tuple"
        },
        {
          "internalType": "bool",
          "name": "",
          "type": "bool"
        }
      ],
      "payable": false,
      "stateMutability": "view",
      "type": "function"
    }
  ],
  "bytecode": "0x608060405234801561001057600080fd5b50600080819055506000600760060160006101000a81548160ff0219169083151502179055506000600e60060160006101000a81548160ff0219169083151502179055506000601560060160006101000a81548160ff02191690831515021790555060006007600501819055506000600e600501819055506000601560050181905550614182806100a26000396000f3fe608060405234801561001057600080fd5b50600436106100b45760003560e01c80633a50c4d4116100715780633a50c4d4146101b45780634cd08d03146101d057806358467dbc146101ec5780639b45976b1461021c578063d4ffd89d14610238578063e2d7f71e14610268576100b4565b806303b31cbd146100b95780631541b2c3146100e95780631cbeae5e146101055780632b8e98cc146101365780632bc33d90146101665780632ca0452214610198575b600080fd5b6100d360048036036100ce9190810190613491565b610298565b6040516100e09190613f03565b60405180910390f35b61010360048036036100fe91908101906137c9565b610636565b005b61011f600480360361011a919081019061374c565b610683565b60405161012d929190613f25565b60405180910390f35b610150600480360361014b919081019061370b565b611150565b60405161015d9190613f55565b60405180910390f35b610180600480360361017b919081019061374c565b61118a565b60405161018f93929190613e77565b60405180910390f35b6101b260048036036101ad9190810190613491565b611389565b005b6101ce60048036036101c991908101906135d5565b611a2e565b005b6101ea60048036036101e5919081019061353e565b611b1f565b005b610206600480360361020191908101906134d2565b611c6e565b6040516102139190613e5c565b60405180910390f35b610236600480360361023191908101906136b7565b611f50565b005b610252600480360361024d9190810190613775565b6125cf565b60405161025f9190613f55565b60405180910390f35b610282600480360361027d9190810190613491565b612733565b60405161028f9190613e3a565b60405180910390f35b6102a0612f5c565b6002826040516102b09190613e0c565b90815260200160405180910390206040518060a001604052908160008201604051806060016040529081600082018054600181600116156101000203166002900480601f0160208091040260200160405190810160405280929190818152602001828054600181600116156101000203166002900480156103725780601f1061034757610100808354040283529160200191610372565b820191906000526020600020905b81548152906001019060200180831161035557829003601f168201915b50505050508152602001600182018054600181600116156101000203166002900480601f0160208091040260200160405190810160405280929190818152602001828054600181600116156101000203166002900480156104145780601f106103e957610100808354040283529160200191610414565b820191906000526020600020905b8154815290600101906020018083116103f757829003601f168201915b50505050508152602001600282018054600181600116156101000203166002900480601f0160208091040260200160405190810160405280929190818152602001828054600181600116156101000203166002900480156104b65780601f1061048b576101008083540402835291602001916104b6565b820191906000526020600020905b81548152906001019060200180831161049957829003601f168201915b505050505081525050815260200160038201805480602002602001604051908101604052809291908181526020016000905b828210156105f857838290600052602060002090600702016040518060e0016040529081600082018054600181600116156101000203166002900480601f0160208091040260200160405190810160405280929190818152602001828054600181600116156101000203166002900480156105a45780601f10610579576101008083540402835291602001916105a4565b820191906000526020600020905b81548152906001019060200180831161058757829003601f168201915b505050505081526020016001820154815260200160028201548152602001600382015481526020016004820154815260200160058201548152602001600682015481525050815260200190600101906104e8565b50505050815260200160048201548152602001600582015481526020016006820160009054906101000a900460ff1615151515815250509050919050565b600060046000888152602001908152602001600020905060006008830260078502600a87026005890260058b02010101019050600189141561067757610678565b5b505050505050505050565b61068b612f5c565b60008060046000858152602001908152602001600020905080600f015481600e01541115610a3757806000016001816040518060a001604052908160008201604051806060016040529081600082018054600181600116156101000203166002900480601f01602080910402602001604051908101604052809291908181526020018280546001816001161561010002031660029004801561076e5780601f106107435761010080835404028352916020019161076e565b820191906000526020600020905b81548152906001019060200180831161075157829003601f168201915b50505050508152602001600182018054600181600116156101000203166002900480601f0160208091040260200160405190810160405280929190818152602001828054600181600116156101000203166002900480156108105780601f106107e557610100808354040283529160200191610810565b820191906000526020600020905b8154815290600101906020018083116107f357829003601f168201915b50505050508152602001600282018054600181600116156101000203166002900480601f0160208091040260200160405190810160405280929190818152602001828054600181600116156101000203166002900480156108b25780601f10610887576101008083540402835291602001916108b2565b820191906000526020600020905b81548152906001019060200180831161089557829003601f168201915b505050505081525050815260200160038201805480602002602001604051908101604052809291908181526020016000905b828210156109f457838290600052602060002090600702016040518060e0016040529081600082018054600181600116156101000203166002900480601f0160208091040260200160405190810160405280929190818152602001828054600181600116156101000203166002900480156109a05780601f10610975576101008083540402835291602001916109a0565b820191906000526020600020905b81548152906001019060200180831161098357829003601f168201915b505050505081526020016001820154815260200160028201548152602001600382015481526020016004820154815260200160058201548152602001600682015481525050815260200190600101906108e4565b50505050815260200160048201548152602001600582015481526020016006820160009054906101000a900460ff1615151515815250509150925092505061114b565b80600f015481600e01541015610dcb57806007016001816040518060a001604052908160008201604051806060016040529081600082018054600181600116156101000203166002900480601f016020809104026020016040519081016040528092919081815260200182805460018160011615610100020316600290048015610b025780601f10610ad757610100808354040283529160200191610b02565b820191906000526020600020905b815481529060010190602001808311610ae557829003601f168201915b50505050508152602001600182018054600181600116156101000203166002900480601f016020809104026020016040519081016040528092919081815260200182805460018160011615610100020316600290048015610ba45780601f10610b7957610100808354040283529160200191610ba4565b820191906000526020600020905b815481529060010190602001808311610b8757829003601f168201915b50505050508152602001600282018054600181600116156101000203166002900480601f016020809104026020016040519081016040528092919081815260200182805460018160011615610100020316600290048015610c465780601f10610c1b57610100808354040283529160200191610c46565b820191906000526020600020905b815481529060010190602001808311610c2957829003601f168201915b505050505081525050815260200160038201805480602002602001604051908101604052809291908181526020016000905b82821015610d8857838290600052602060002090600702016040518060e0016040529081600082018054600181600116156101000203166002900480601f016020809104026020016040519081016040528092919081815260200182805460018160011615610100020316600290048015610d345780601f10610d0957610100808354040283529160200191610d34565b820191906000526020600020905b815481529060010190602001808311610d1757829003601f168201915b50505050508152602001600182015481526020016002820154815260200160038201548152602001600482015481526020016005820154815260200160068201548152505081526020019060010190610c78565b50505050815260200160048201548152602001600582015481526020016006820160009054906101000a900460ff1615151515815250509150925092505061114b565b806000016000816040518060a001604052908160008201604051806060016040529081600082018054600181600116156101000203166002900480601f016020809104026020016040519081016040528092919081815260200182805460018160011615610100020316600290048015610e865780601f10610e5b57610100808354040283529160200191610e86565b820191906000526020600020905b815481529060010190602001808311610e6957829003601f168201915b50505050508152602001600182018054600181600116156101000203166002900480601f016020809104026020016040519081016040528092919081815260200182805460018160011615610100020316600290048015610f285780601f10610efd57610100808354040283529160200191610f28565b820191906000526020600020905b815481529060010190602001808311610f0b57829003601f168201915b50505050508152602001600282018054600181600116156101000203166002900480601f016020809104026020016040519081016040528092919081815260200182805460018160011615610100020316600290048015610fca5780601f10610f9f57610100808354040283529160200191610fca565b820191906000526020600020905b815481529060010190602001808311610fad57829003601f168201915b505050505081525050815260200160038201805480602002602001604051908101604052809291908181526020016000905b8282101561110c57838290600052602060002090600702016040518060e0016040529081600082018054600181600116156101000203166002900480601f0160208091040260200160405190810160405280929190818152602001828054600181600116156101000203166002900480156110b85780601f1061108d576101008083540402835291602001916110b8565b820191906000526020600020905b81548152906001019060200180831161109b57829003601f168201915b50505050508152602001600182015481526020016002820154815260200160038201548152602001600482015481526020016005820154815260200160068201548152505081526020019060010190610ffc565b50505050815260200160048201548152602001600582015481526020016006820160009054906101000a900460ff161515151581525050915092509250505b915091565b600080600a836040015102600f846080015102600f8560a00151026005866060015102600a87602001510201010101905080915050919050565b6001818154811061119757fe5b9060005260206000209060030201600091509050806000018054600181600116156101000203166002900480601f0160208091040260200160405190810160405280929190818152602001828054600181600116156101000203166002900480156112435780601f1061121857610100808354040283529160200191611243565b820191906000526020600020905b81548152906001019060200180831161122657829003601f168201915b505050505090806001018054600181600116156101000203166002900480601f0160208091040260200160405190810160405280929190818152602001828054600181600116156101000203166002900480156112e15780601f106112b6576101008083540402835291602001916112e1565b820191906000526020600020905b8154815290600101906020018083116112c457829003601f168201915b505050505090806002018054600181600116156101000203166002900480601f01602080910402602001604051908101604052809291908181526020018280546001816001161561010002031660029004801561137f5780601f106113545761010080835404028352916020019161137f565b820191906000526020600020905b81548152906001019060200180831161136257829003601f168201915b5050505050905083565b6002816040516113999190613e0c565b908152602001604051809103902060046000805481526020019081526020016000206000016000820181600001600082018160000190805460018160011615610100020316600290046113ed929190612f93565b5060018201816001019080546001816001161561010002031660029004611415929190612f93565b506002820181600201908054600181600116156101000203166002900461143d929190612f93565b505050600382018160030190805461145692919061301a565b5060048201548160040155600582015481600501556006820160009054906101000a900460ff168160060160006101000a81548160ff021916908315150217905550905050600060046000805481526020019081526020016000206000016005015414156116825760076004600080548152602001908152602001600020600701600082018160000160008201816000019080546001816001161561010002031660029004611506929190612f93565b506001820181600101908054600181600116156101000203166002900461152e929190612f93565b5060028201816002019080546001816001161561010002031660029004611556929190612f93565b505050600382018160030190805461156f92919061301a565b5060048201548160040155600582015481600501556006820160009054906101000a900460ff168160060160006101000a81548160ff0219169083151502179055509050506000600760060160006101000a81548160ff0219169083151502179055506006816040516115e29190613e0c565b90815260200160405180910390206000549080600181540180825580915050906001820390600052602060002001600090919290919091505550600660076000016001016040516116339190613e23565b9081526020016040518091039020600054908060018154018082558091505090600182039060005260206000200160009091929091909150555060016000808282540192505081905550611a2b565b6101f4600460008054815260200190815260200160002060000160050154141561186a57600e60046000805481526020019081526020016000206007016000820181600001600082018160000190805460018160011615610100020316600290046116ee929190612f93565b5060018201816001019080546001816001161561010002031660029004611716929190612f93565b506002820181600201908054600181600116156101000203166002900461173e929190612f93565b505050600382018160030190805461175792919061301a565b5060048201548160040155600582015481600501556006820160009054906101000a900460ff168160060160006101000a81548160ff0219169083151502179055509050506000600760060160006101000a81548160ff0219169083151502179055506006816040516117ca9190613e0c565b908152602001604051809103902060005490806001815401808255809150509060018203906000526020600020016000909192909190915055506006600e60000160010160405161181b9190613e23565b9081526020016040518091039020600054908060018154018082558091505090600182039060005260206000200160009091929091909150555060016000808282540192505081905550611a2a565b601560046000805481526020019081526020016000206007016000820181600001600082018160000190805460018160011615610100020316600290046118b2929190612f93565b50600182018160010190805460018160011615610100020316600290046118da929190612f93565b5060028201816002019080546001816001161561010002031660029004611902929190612f93565b505050600382018160030190805461191b92919061301a565b5060048201548160040155600582015481600501556006820160009054906101000a900460ff168160060160006101000a81548160ff0219169083151502179055509050506000601560060160006101000a81548160ff02191690831515021790555060068160405161198e9190613e0c565b90815260200160405180910390206000549080600181540180825580915050906001820390600052602060002001600090919290919091505550600660156000016001016040516119df9190613e23565b90815260200160405180910390206000549080600181540180825580915050906001820390600052602060002001600090919290919091505550600160008082825401925050819055505b5b50565b611a366130d6565b6040518060e00160405280898152602001888152602001878152602001868152602001858152602001848152602001838152509050600289604051611a7b9190613e0c565b908152602001604051809103902060030181908060018154018082558091505090600182039060005260206000209060070201600090919290919091506000820151816000019080519060200190611ad4929190613113565b506020820151816001015560408201518160020155606082015181600301556080820151816004015560a0820151816005015560c08201518160060155505050505050505050505050565b611b27613193565b604051806060016040528085815260200184815260200183815250905060058160200151604051611b589190613df5565b908152602001604051809103902060009054906101000a900460ff1615611bb4576040517f08c379a0000000000000000000000000000000000000000000000000000000008152600401611bab90613ec3565b60405180910390fd5b80600384604051611bc59190613e0c565b90815260200160405180910390206000820151816000019080519060200190611bef929190613113565b506020820151816001019080519060200190611c0c929190613113565b506040820151816002019080519060200190611c29929190613113565b50905050600160058260200151604051611c439190613df5565b908152602001604051809103902060006101000a81548160ff02191690831515021790555050505050565b6000611c78613193565b600384604051611c889190613e0c565b9081526020016040518091039020604051806060016040529081600082018054600181600116156101000203166002900480601f016020809104026020016040519081016040528092919081815260200182805460018160011615610100020316600290048015611d3a5780601f10611d0f57610100808354040283529160200191611d3a565b820191906000526020600020905b815481529060010190602001808311611d1d57829003601f168201915b50505050508152602001600182018054600181600116156101000203166002900480601f016020809104026020016040519081016040528092919081815260200182805460018160011615610100020316600290048015611ddc5780601f10611db157610100808354040283529160200191611ddc565b820191906000526020600020905b815481529060010190602001808311611dbf57829003601f168201915b50505050508152602001600282018054600181600116156101000203166002900480601f016020809104026020016040519081016040528092919081815260200182805460018160011615610100020316600290048015611e7e5780601f10611e5357610100808354040283529160200191611e7e565b820191906000526020600020905b815481529060010190602001808311611e6157829003601f168201915b505050505081525050905082604051602001611e9a9190613e0c565b604051602081830303815290604052805190602001208160400151604051602001611ec59190613df5565b6040516020818303038152906040528051906020012014611f1b576040517f08c379a0000000000000000000000000000000000000000000000000000000008152600401611f1290613ee3565b60405180910390fd5b600584604051611f2b9190613e0c565b908152602001604051809103902060009054906101000a900460ff1691505092915050565b80600283604051611f619190613e0c565b9081526020016040518091039020600501819055506001600283604051611f889190613e0c565b908152602001604051809103902060060160006101000a81548160ff021916908315150217905550611fb8613193565b600383604051611fc89190613e0c565b9081526020016040518091039020604051806060016040529081600082018054600181600116156101000203166002900480601f01602080910402602001604051908101604052809291908181526020018280546001816001161561010002031660029004801561207a5780601f1061204f5761010080835404028352916020019161207a565b820191906000526020600020905b81548152906001019060200180831161205d57829003601f168201915b50505050508152602001600182018054600181600116156101000203166002900480601f01602080910402602001604051908101604052809291908181526020018280546001816001161561010002031660029004801561211c5780601f106120f15761010080835404028352916020019161211c565b820191906000526020600020905b8154815290600101906020018083116120ff57829003601f168201915b50505050508152602001600282018054600181600116156101000203166002900480601f0160208091040260200160405190810160405280929190818152602001828054600181600116156101000203166002900480156121be5780601f10612193576101008083540402835291602001916121be565b820191906000526020600020905b8154815290600101906020018083116121a157829003601f168201915b50505050508152505090506007600501546002846040516121df9190613e0c565b908152602001604051809103902060050154141561232f5760001515600760060160009054906101000a900460ff161515141561231c576002816020015160405161222a9190613df5565b90815260200160405180910390206007600082018160000160008201816000019080546001816001161561010002031660029004612269929190612f93565b5060018201816001019080546001816001161561010002031660029004612291929190612f93565b50600282018160020190805460018160011615610100020316600290046122b9929190612f93565b50505060038201816003019080546122d292919061301a565b5060048201548160040155600582015481600501556006820160009054906101000a900460ff168160060160006101000a81548160ff02191690831515021790555090505061232a565b6123298160200151611389565b5b6125ca565b600e600501546002846040516123459190613e0c565b90815260200160405180910390206005015414156124955760001515600e60060160009054906101000a900460ff161515141561248257600281602001516040516123909190613df5565b9081526020016040518091039020600e6000820181600001600082018160000190805460018160011615610100020316600290046123cf929190612f93565b50600182018160010190805460018160011615610100020316600290046123f7929190612f93565b506002820181600201908054600181600116156101000203166002900461241f929190612f93565b505050600382018160030190805461243892919061301a565b5060048201548160040155600582015481600501556006820160009054906101000a900460ff168160060160006101000a81548160ff021916908315150217905550905050612490565b61248f8160200151611389565b5b6125c9565b60001515601560060160009054906101000a900460ff16151514156125ba57600281602001516040516124c89190613df5565b90815260200160405180910390206015600082018160000160008201816000019080546001816001161561010002031660029004612507929190612f93565b506001820181600101908054600181600116156101000203166002900461252f929190612f93565b5060028201816002019080546001816001161561010002031660029004612557929190612f93565b505050600382018160030190805461257092919061301a565b5060048201548160040155600582015481600501556006820160009054906101000a900460ff168160060160006101000a81548160ff0219169083151502179055509050506125c8565b6125c78160200151611389565b5b5b5b505050565b6000806002836040516125e29190613e0c565b90815260200160405180910390209050600080905060008090505b60058110156127255761271483600301828154811061261857fe5b90600052602060002090600702016040518060e0016040529081600082018054600181600116156101000203166002900480601f0160208091040260200160405190810160405280929190818152602001828054600181600116156101000203166002900480156126ca5780601f1061269f576101008083540402835291602001916126ca565b820191906000526020600020905b8154815290600101906020018083116126ad57829003601f168201915b505050505081526020016001820154815260200160028201548152602001600382015481526020016004820154815260200160058201548152602001600682015481525050611150565b8201915080806001019150506125fd565b508481019250505092915050565b6060806006836040516127469190613e0c565b908152602001604051809103902080548060200260200160405190810160405280929190818152602001828054801561279e57602002820191906000526020600020905b81548152602001906001019080831161278a575b50505050509050606081516040519080825280602002602001820160405280156127e257816020015b6127cf6131b4565b8152602001906001900390816127c75790505b50905060008090505b8251811015612f51576004600084838151811061280457fe5b60200260200101518152602001908152602001600020604051806080016040529081600082016040518060a001604052908160008201604051806060016040529081600082018054600181600116156101000203166002900480601f0160208091040260200160405190810160405280929190818152602001828054600181600116156101000203166002900480156128de5780601f106128b3576101008083540402835291602001916128de565b820191906000526020600020905b8154815290600101906020018083116128c157829003601f168201915b50505050508152602001600182018054600181600116156101000203166002900480601f0160208091040260200160405190810160405280929190818152602001828054600181600116156101000203166002900480156129805780601f1061295557610100808354040283529160200191612980565b820191906000526020600020905b81548152906001019060200180831161296357829003601f168201915b50505050508152602001600282018054600181600116156101000203166002900480601f016020809104026020016040519081016040528092919081815260200182805460018160011615610100020316600290048015612a225780601f106129f757610100808354040283529160200191612a22565b820191906000526020600020905b815481529060010190602001808311612a0557829003601f168201915b505050505081525050815260200160038201805480602002602001604051908101604052809291908181526020016000905b82821015612b6457838290600052602060002090600702016040518060e0016040529081600082018054600181600116156101000203166002900480601f016020809104026020016040519081016040528092919081815260200182805460018160011615610100020316600290048015612b105780601f10612ae557610100808354040283529160200191612b10565b820191906000526020600020905b815481529060010190602001808311612af357829003601f168201915b50505050508152602001600182015481526020016002820154815260200160038201548152602001600482015481526020016005820154815260200160068201548152505081526020019060010190612a54565b50505050815260200160048201548152602001600582015481526020016006820160009054906101000a900460ff1615151515815250508152602001600782016040518060a001604052908160008201604051806060016040529081600082018054600181600116156101000203166002900480601f016020809104026020016040519081016040528092919081815260200182805460018160011615610100020316600290048015612c585780601f10612c2d57610100808354040283529160200191612c58565b820191906000526020600020905b815481529060010190602001808311612c3b57829003601f168201915b50505050508152602001600182018054600181600116156101000203166002900480601f016020809104026020016040519081016040528092919081815260200182805460018160011615610100020316600290048015612cfa5780601f10612ccf57610100808354040283529160200191612cfa565b820191906000526020600020905b815481529060010190602001808311612cdd57829003601f168201915b50505050508152602001600282018054600181600116156101000203166002900480601f016020809104026020016040519081016040528092919081815260200182805460018160011615610100020316600290048015612d9c5780601f10612d7157610100808354040283529160200191612d9c565b820191906000526020600020905b815481529060010190602001808311612d7f57829003601f168201915b505050505081525050815260200160038201805480602002602001604051908101604052809291908181526020016000905b82821015612ede57838290600052602060002090600702016040518060e0016040529081600082018054600181600116156101000203166002900480601f016020809104026020016040519081016040528092919081815260200182805460018160011615610100020316600290048015612e8a5780601f10612e5f57610100808354040283529160200191612e8a565b820191906000526020600020905b815481529060010190602001808311612e6d57829003601f168201915b50505050508152602001600182015481526020016002820154815260200160038201548152602001600482015481526020016005820154815260200160068201548152505081526020019060010190612dce565b50505050815260200160048201548152602001600582015481526020016006820160009054906101000a900460ff1615151515815250508152602001600e8201548152602001600f82015481525050828281518110612f3957fe5b602002602001018190525080806001019150506127eb565b508092505050919050565b6040518060a00160405280612f6f6131e8565b81526020016060815260200160008152602001600081526020016000151581525090565b828054600181600116156101000203166002900490600052602060002090601f016020900481019282601f10612fcc5780548555613009565b8280016001018555821561300957600052602060002091601f016020900482015b82811115613008578254825591600101919060010190612fed565b5b5090506130169190613209565b5090565b8280548282559060005260206000209060070281019282156130c55760005260206000209160070282015b828111156130c457828260008201816000019080546001816001161561010002031660029004613076929190612f93565b50600182015481600101556002820154816002015560038201548160030155600482015481600401556005820154816005015560068201548160060155505091600701919060070190613045565b5b5090506130d2919061322e565b5090565b6040518060e00160405280606081526020016000815260200160008152602001600081526020016000815260200160008152602001600081525090565b828054600181600116156101000203166002900490600052602060002090601f016020900481019282601f1061315457805160ff1916838001178555613182565b82800160010185558215613182579182015b82811115613181578251825591602001919060010190613166565b5b50905061318f9190613209565b5090565b60405180606001604052806060815260200160608152602001606081525090565b60405180608001604052806131c761328d565b81526020016131d461328d565b815260200160008152602001600081525090565b60405180606001604052806060815260200160608152602001606081525090565b61322b91905b8082111561322757600081600090555060010161320f565b5090565b90565b61328a91905b80821115613286576000808201600061324d91906132c4565b60018201600090556002820160009055600382016000905560048201600090556005820160009055600682016000905550600701613234565b5090565b90565b6040518060a001604052806132a06131e8565b81526020016060815260200160008152602001600081526020016000151581525090565b50805460018160011615610100020316600290046000825580601f106132ea5750613309565b601f0160209004906000526020600020908101906133089190613209565b5b50565b600082601f83011261331d57600080fd5b813561333061332b82613f9d565b613f70565b9150808252602083016020830185838301111561334c57600080fd5b6133578382846140d5565b50505092915050565b600082601f83011261337157600080fd5b813561338461337f82613fc9565b613f70565b915080825260208301602083018583830111156133a057600080fd5b6133ab8382846140d5565b50505092915050565b600060e082840312156133c657600080fd5b6133d060e0613f70565b9050600082013567ffffffffffffffff8111156133ec57600080fd5b6133f88482850161330c565b600083015250602061340c8482850161347c565b60208301525060406134208482850161347c565b60408301525060606134348482850161347c565b60608301525060806134488482850161347c565b60808301525060a061345c8482850161347c565b60a08301525060c06134708482850161347c565b60c08301525092915050565b60008135905061348b81614128565b92915050565b6000602082840312156134a357600080fd5b600082013567ffffffffffffffff8111156134bd57600080fd5b6134c984828501613360565b91505092915050565b600080604083850312156134e557600080fd5b600083013567ffffffffffffffff8111156134ff57600080fd5b61350b85828601613360565b925050602083013567ffffffffffffffff81111561352857600080fd5b61353485828601613360565b9150509250929050565b60008060006060848603121561355357600080fd5b600084013567ffffffffffffffff81111561356d57600080fd5b61357986828701613360565b935050602084013567ffffffffffffffff81111561359657600080fd5b6135a286828701613360565b925050604084013567ffffffffffffffff8111156135bf57600080fd5b6135cb86828701613360565b9150509250925092565b600080600080600080600080610100898b0312156135f257600080fd5b600089013567ffffffffffffffff81111561360c57600080fd5b6136188b828c01613360565b985050602089013567ffffffffffffffff81111561363557600080fd5b6136418b828c01613360565b97505060406136528b828c0161347c565b96505060606136638b828c0161347c565b95505060806136748b828c0161347c565b94505060a06136858b828c0161347c565b93505060c06136968b828c0161347c565b92505060e06136a78b828c0161347c565b9150509295985092959890939650565b600080604083850312156136ca57600080fd5b600083013567ffffffffffffffff8111156136e457600080fd5b6136f085828601613360565b92505060206137018582860161347c565b9150509250929050565b60006020828403121561371d57600080fd5b600082013567ffffffffffffffff81111561373757600080fd5b613743848285016133b4565b91505092915050565b60006020828403121561375e57600080fd5b600061376c8482850161347c565b91505092915050565b6000806040838503121561378857600080fd5b60006137968582860161347c565b925050602083013567ffffffffffffffff8111156137b357600080fd5b6137bf85828601613360565b9150509250929050565b600080600080600080600060e0888a0312156137e457600080fd5b60006137f28a828b0161347c565b97505060206138038a828b0161347c565b96505060406138148a828b0161347c565b95505060606138258a828b0161347c565b94505060806138368a828b0161347c565b93505060a06138478a828b0161347c565b92505060c06138588a828b0161347c565b91505092959891949750929550565b60006138738383613b79565b905092915050565b60006138878383613c15565b905092915050565b600061389a8261402a565b6138a48185614070565b9350836020820285016138b685613ff5565b8060005b858110156138f257848403895281516138d38582613867565b94506138de83614056565b925060208a019950506001810190506138ba565b50829750879550505050505092915050565b600061390f82614035565b6139198185614081565b93508360208202850161392b85614005565b8060005b858110156139675784840389528151613948858261387b565b945061395383614063565b925060208a0199505060018101905061392f565b50829750879550505050505092915050565b613982816140bf565b82525050565b613991816140bf565b82525050565b60006139a28261404b565b6139ac81856140b4565b93506139bc8185602086016140e4565b80840191505092915050565b60006139d382614040565b6139dd8185614092565b93506139ed8185602086016140e4565b6139f681614117565b840191505092915050565b6000613a0c82614040565b613a1681856140a3565b9350613a268185602086016140e4565b613a2f81614117565b840191505092915050565b6000613a4582614040565b613a4f81856140b4565b9350613a5f8185602086016140e4565b80840191505092915050565b600081546001811660008114613a885760018114613aad57613af1565b607f6002830416613a9981876140b4565b955060ff1983168652808601935050613af1565b60028204613abb81876140b4565b9550613ac685614015565b60005b82811015613ae857815481890152600182019150602081019050613ac9565b82880195505050505b505092915050565b6000613b066014836140a3565b91507f7573657220616c6c7265616479206578736973740000000000000000000000006000830152602082019050919050565b6000613b466018836140a3565b91507f70617373776f7264206973206e6f7420636f72726563742000000000000000006000830152602082019050919050565b600060e0830160008301518482036000860152613b9682826139c8565b9150506020830151613bab6020860182613dd7565b506040830151613bbe6040860182613dd7565b506060830151613bd16060860182613dd7565b506080830151613be46080860182613dd7565b5060a0830151613bf760a0860182613dd7565b5060c0830151613c0a60c0860182613dd7565b508091505092915050565b60006080830160008301518482036000860152613c328282613cfc565b91505060208301518482036020860152613c4c8282613cfc565b9150506040830151613c616040860182613dd7565b506060830151613c746060860182613dd7565b508091505092915050565b600060a0830160008301518482036000860152613c9c8282613d79565b91505060208301518482036020860152613cb6828261388f565b9150506040830151613ccb6040860182613dd7565b506060830151613cde6060860182613dd7565b506080830151613cf16080860182613979565b508091505092915050565b600060a0830160008301518482036000860152613d198282613d79565b91505060208301518482036020860152613d33828261388f565b9150506040830151613d486040860182613dd7565b506060830151613d5b6060860182613dd7565b506080830151613d6e6080860182613979565b508091505092915050565b60006060830160008301518482036000860152613d9682826139c8565b91505060208301518482036020860152613db082826139c8565b91505060408301518482036040860152613dca82826139c8565b9150508091505092915050565b613de0816140cb565b82525050565b613def816140cb565b82525050565b6000613e018284613a3a565b915081905092915050565b6000613e188284613997565b915081905092915050565b6000613e2f8284613a6b565b915081905092915050565b60006020820190508181036000830152613e548184613904565b905092915050565b6000602082019050613e716000830184613988565b92915050565b60006060820190508181036000830152613e918186613a01565b90508181036020830152613ea58185613a01565b90508181036040830152613eb98184613a01565b9050949350505050565b60006020820190508181036000830152613edc81613af9565b9050919050565b60006020820190508181036000830152613efc81613b39565b9050919050565b60006020820190508181036000830152613f1d8184613c7f565b905092915050565b60006040820190508181036000830152613f3f8185613c7f565b9050613f4e6020830184613988565b9392505050565b6000602082019050613f6a6000830184613de6565b92915050565b6000604051905081810181811067ffffffffffffffff82111715613f9357600080fd5b8060405250919050565b600067ffffffffffffffff821115613fb457600080fd5b601f19601f8301169050602081019050919050565b600067ffffffffffffffff821115613fe057600080fd5b601f19601f8301169050602081019050919050565b6000819050602082019050919050565b6000819050602082019050919050565b60008190508160005260206000209050919050565b600081519050919050565b600081519050919050565b600081519050919050565b600081519050919050565b6000602082019050919050565b6000602082019050919050565b600082825260208201905092915050565b600082825260208201905092915050565b600082825260208201905092915050565b600082825260208201905092915050565b600081905092915050565b60008115159050919050565b6000819050919050565b82818337600083830152505050565b60005b838110156141025780820151818401526020810190506140e7565b83811115614111576000848401525b50505050565b6000601f19601f8301169050919050565b614131816140cb565b811461413c57600080fd5b5056fea365627a7a72315820d41b0ed8381a413cae27578ffdb6d9aeae811a64ba46025e46c329b8a33dcf696c6578706572696d656e74616cf564736f6c63430005100040",
  "source": "// SPDX-License-Identifier: MIT\r\npragma solidity >=0.4.0 < 0.8.0;\r\npragma experimental ABIEncoderV2;\r\n\r\ncontract NBA_gembller{\r\n    struct User{\r\n        string firtsName;\r\n        string username;\r\n        string password;\r\n         //address userAddress;\r\n    }\r\n    \r\n struct BPlayer{\r\n      string name;\r\n      uint rebounds;\r\n      uint asists;\r\n      uint points;\r\n      uint blocks;\r\n      uint steals;\r\n      uint price;\r\n    }\r\n    \r\n    \r\n  struct  UserGamble{\r\n        User user;\r\n        BPlayer []  players;\r\n        uint gambleSum; \r\n        uint initialPrice;\r\n        bool valid;\r\n    }\r\n    \r\n   \r\n    struct GamblingBattle{\r\n        UserGamble userGamble1;\r\n        UserGamble userGamble2;\r\n        uint scoreUserGamble1;\r\n        uint scoreUserGamble2;\r\n    }\r\n\r\n      uint GamblingBattleNum;\r\n      User [] public userWhoWantToGambller;\r\n      mapping(string => UserGamble)  userGambles;\r\n      mapping(string => User) usersMapping;\r\n      mapping(uint => GamblingBattle) gamblingBattles;\r\n      mapping(string => bool) userExists;\r\n      mapping(string=>uint[]) userNameToBattle;\r\n      UserGamble userWaits_0;\r\n      UserGamble userWaits_500;\r\n      UserGamble userWaits_1000;\r\n\r\n        \r\n\r\n      constructor() public {\r\n        GamblingBattleNum=0;\r\n        userWaits_0.valid=false;\r\n        userWaits_500.valid=false;\r\n        userWaits_1000.valid=false;\r\n        userWaits_0.initialPrice=0;\r\n        userWaits_500.initialPrice=0;\r\n        userWaits_1000.initialPrice=0;\r\n      } \r\n      \r\n      //return true if the user exsist and the password is correct \r\n      function login(string memory _username,string memory _password) public view returns (bool)  {\r\n         User memory _user=usersMapping[_username];\r\n         require(keccak256(abi.encodePacked((_user.password))) == keccak256(abi.encodePacked((_password))),\"password is not correct \");\r\n         return userExists[_username];\r\n         \r\n        }\r\n       \r\n      function register(string memory firtsName,string  memory username,string  memory password) public  {\r\n        User memory _user=User(firtsName,username,password);\r\n        require(!userExists[_user.username],\"user allready exsist\");\r\n        usersMapping[username]=_user;\r\n        userExists[_user.username] = true;  \r\n        }\r\n\r\n    function addPlayerToUser(string memory username, string memory playerName,\r\n    uint rebounds,uint asists,uint points ,uint blocks,uint steals,uint price) public \r\n      {\r\n      BPlayer memory _player=BPlayer(playerName,rebounds,asists,points,blocks,steals,price);\r\n      userGambles[username].players.push(_player);\r\n\r\n      }\r\n    function addUserGambling(string memory username,uint _initalPrice) public  {        \r\n          userGambles[username].initialPrice=_initalPrice;\r\n          userGambles[username].valid=true;\r\n          User memory _user=usersMapping[username];\r\n          //userGambles[username].gambleSum=calculateGamblePriceWinner();\r\n          if(userGambles[username].initialPrice==userWaits_0.initialPrice){\r\n               if (userWaits_0.valid==false){\r\n               userWaits_0=userGambles[_user.username];\r\n          }else{\r\n             createBattle(_user.username);\r\n           }\r\n\r\n          }else if(userGambles[username].initialPrice==userWaits_500.initialPrice){\r\n            if (userWaits_500.valid==false){\r\n               userWaits_500=userGambles[_user.username];\r\n          }else{\r\n             createBattle(_user.username);\r\n           }\r\n          \r\n          \r\n          }else{\r\n            if (userWaits_1000.valid==false){\r\n               userWaits_1000=userGambles[_user.username];\r\n          }else{\r\n             createBattle(_user.username);\r\n          }\r\n        }\r\n    }\r\n      function createBattle(string memory userName)public  {    \r\n        gamblingBattles[GamblingBattleNum].userGamble1= userGambles[userName];  //get the userGamble1\r\n        if ( gamblingBattles[GamblingBattleNum].userGamble1.initialPrice==0){\r\n        gamblingBattles[GamblingBattleNum].userGamble2= userWaits_0;//get the usergamble2\r\n        userWaits_0.valid=false;\r\n        userNameToBattle[userName].push(GamblingBattleNum);\r\n        userNameToBattle[userWaits_0.user.username].push(GamblingBattleNum);\r\n        GamblingBattleNum+=1;\r\n        \r\n        }else if(gamblingBattles[GamblingBattleNum].userGamble1.initialPrice==500){\r\n        gamblingBattles[GamblingBattleNum].userGamble2= userWaits_500;//get the usergamble2   \r\n        userWaits_0.valid=false;\r\n        userNameToBattle[userName].push(GamblingBattleNum);\r\n        userNameToBattle[userWaits_500.user.username].push(GamblingBattleNum);\r\n        GamblingBattleNum+=1;\r\n\r\n        }else{\r\n          gamblingBattles[GamblingBattleNum].userGamble2= userWaits_1000;//get the usergamble2\r\n          userWaits_1000.valid=false;\r\n          userNameToBattle[userName].push(GamblingBattleNum);\r\n          userNameToBattle[userWaits_1000.user.username].push(GamblingBattleNum);\r\n          GamblingBattleNum+=1;\r\n        }\r\n\r\n      }\r\n      function getGamblingBattle(string memory username)public view returns(GamblingBattle[] memory){\r\n        \r\n        uint[] memory gamblingNumbers=userNameToBattle[username];\r\n        GamblingBattle[] memory battles=new GamblingBattle[](gamblingNumbers.length);\r\n        for (uint i=0;i<gamblingNumbers.length;i++){\r\n          battles[i]=gamblingBattles[gamblingNumbers[i]];\r\n        }\r\n        return battles;\r\n      }\r\n\r\n    \r\n    function calculateGamblePriceWinner(uint _price,string memory _username)public view returns(uint){\r\n      UserGamble storage userGamble=userGambles[_username];\r\n      //check if there is length function of the array\r\n      uint sum=0;\r\n      for (uint i=0;i<5;i++){\r\n       sum=sum+calculataPlayerSum(userGamble.players[i]);\r\n      }\r\n      return sum+_price;\r\n    }\r\n    \r\n    function calculataPlayerSum(BPlayer memory player) public view returns(uint)\r\n    {\r\n       uint priceOfPlayer=player.rebounds*10+player.points*5+player.steals*15+player.blocks*15\r\n       +player.asists*10;\r\n       return priceOfPlayer;\r\n    }\r\n     function getUserGambllerByUserName(string memory username)public view returns(UserGamble memory){\r\n          return userGambles[username];\r\n    }\r\n   \r\n      \r\n      \r\n      function calculateDayStatisticsOfPlayer(uint gambllerNum,uint battleNum,uint rebounds,uint asists,uint points ,\r\n      uint blocks,uint steals) public \r\n      {\r\n        GamblingBattle storage  battle = gamblingBattles[battleNum];\r\n        uint score= rebounds*5+asists *5 +points *10 +blocks* 7+steals *8;\r\n        if (gambllerNum==1){\r\n          //battle.scoreUserGamble1+=score; \r\n        }else{\r\n           //battle.scoreUserGamble2+=score; \r\n        }\r\n      }\r\n      \r\n\r\n      function winner(uint battleNum) public view returns(UserGamble memory,bool)\r\n      {\r\n        GamblingBattle storage  battle = gamblingBattles[battleNum];\r\n         if(battle.scoreUserGamble1>battle.scoreUserGamble2){\r\n           return (battle.userGamble1,true);\r\n         }else if(battle.scoreUserGamble1< battle.scoreUserGamble2){\r\n           return (battle.userGamble2,true);\r\n         }\r\n           return (battle.userGamble1,false);     \r\n       }\r\n\r\n    }\r\n    //function updatePlayerDetails",
  "sourcePath": "C:/blockchain frontend new/contracts/NBA_gembller.sol",
  "compiler": {
    "name": "solc",
    "version": "0.5.16+commit.9c3226ce.Emscripten.clang"
  },
  "schemaVersion": "3.3.4",
  "updatedAt": "2021-03-13T10:45:26.389Z",
  "networkType": "ethereum",
  "devdoc": {
    "methods": {}
  },
  "userdoc": {
    "methods": {}
  }
}