{
  "contractName": "NBA_gembller",
  "abi": [
    {
      "inputs": [],
      "payable": false,
      "stateMutability": "nonpayable",
      "type": "constructor"
    },
    {
      "constant": true,
      "inputs": [
        {
          "internalType": "uint256",
          "name": "",
          "type": "uint256"
        }
      ],
      "name": "userWhoWantToGambller",
      "outputs": [
        {
          "internalType": "string",
          "name": "firtsName",
          "type": "string"
        },
        {
          "internalType": "string",
          "name": "username",
          "type": "string"
        },
        {
          "internalType": "string",
          "name": "password",
          "type": "string"
        },
        {
          "internalType": "address",
          "name": "userAddress",
          "type": "address"
        }
      ],
      "payable": false,
      "stateMutability": "view",
      "type": "function"
    },
    {
      "constant": false,
      "inputs": [
        {
          "internalType": "string",
          "name": "_firtsName",
          "type": "string"
        },
        {
          "internalType": "string",
          "name": "_username",
          "type": "string"
        },
        {
          "internalType": "string",
          "name": "_password",
          "type": "string"
        }
      ],
      "name": "register",
      "outputs": [],
      "payable": false,
      "stateMutability": "nonpayable",
      "type": "function"
    },
    {
      "constant": true,
      "inputs": [
        {
          "internalType": "string",
          "name": "_username",
          "type": "string"
        },
        {
          "internalType": "string",
          "name": "_password",
          "type": "string"
        }
      ],
      "name": "login",
      "outputs": [
        {
          "internalType": "bool",
          "name": "",
          "type": "bool"
        }
      ],
      "payable": false,
      "stateMutability": "view",
      "type": "function"
    },
    {
      "constant": true,
      "inputs": [
        {
          "internalType": "address",
          "name": "_userAddress",
          "type": "address"
        }
      ],
      "name": "loginWithAddress",
      "outputs": [
        {
          "internalType": "bool",
          "name": "",
          "type": "bool"
        }
      ],
      "payable": false,
      "stateMutability": "view",
      "type": "function"
    },
    {
      "constant": false,
      "inputs": [
        {
          "internalType": "string",
          "name": "_playerName",
          "type": "string"
        },
        {
          "internalType": "uint256",
          "name": "_rebounds",
          "type": "uint256"
        },
        {
          "internalType": "uint256",
          "name": "_asists",
          "type": "uint256"
        },
        {
          "internalType": "uint256",
          "name": "_points",
          "type": "uint256"
        },
        {
          "internalType": "uint256",
          "name": "_blocks",
          "type": "uint256"
        },
        {
          "internalType": "uint256",
          "name": "_steals",
          "type": "uint256"
        }
      ],
      "name": "createPlayer",
      "outputs": [],
      "payable": false,
      "stateMutability": "nonpayable",
      "type": "function"
    },
    {
      "constant": false,
      "inputs": [
        {
          "internalType": "string",
          "name": "_username",
          "type": "string"
        },
        {
          "internalType": "string",
          "name": "_playerName",
          "type": "string"
        }
      ],
      "name": "addPlayerToUser",
      "outputs": [],
      "payable": false,
      "stateMutability": "nonpayable",
      "type": "function"
    },
    {
      "constant": false,
      "inputs": [
        {
          "internalType": "string",
          "name": "_username",
          "type": "string"
        },
        {
          "internalType": "uint256",
          "name": "_initialPrice",
          "type": "uint256"
        }
      ],
      "name": "addUserGambling",
      "outputs": [
        {
          "internalType": "bool",
          "name": "",
          "type": "bool"
        }
      ],
      "payable": false,
      "stateMutability": "nonpayable",
      "type": "function"
    },
    {
      "constant": false,
      "inputs": [
        {
          "internalType": "string",
          "name": "_username",
          "type": "string"
        }
      ],
      "name": "createBattle",
      "outputs": [],
      "payable": false,
      "stateMutability": "nonpayable",
      "type": "function"
    },
    {
      "constant": true,
      "inputs": [
        {
          "internalType": "uint256",
          "name": "_price",
          "type": "uint256"
        },
        {
          "internalType": "string",
          "name": "_username",
          "type": "string"
        }
      ],
      "name": "calculateGamblePriceWinner",
      "outputs": [
        {
          "internalType": "uint256",
          "name": "",
          "type": "uint256"
        }
      ],
      "payable": false,
      "stateMutability": "view",
      "type": "function"
    },
    {
      "constant": true,
      "inputs": [
        {
          "components": [
            {
              "internalType": "string",
              "name": "name",
              "type": "string"
            },
            {
              "internalType": "uint256",
              "name": "rebounds",
              "type": "uint256"
            },
            {
              "internalType": "uint256",
              "name": "asists",
              "type": "uint256"
            },
            {
              "internalType": "uint256",
              "name": "points",
              "type": "uint256"
            },
            {
              "internalType": "uint256",
              "name": "blocks",
              "type": "uint256"
            },
            {
              "internalType": "uint256",
              "name": "steals",
              "type": "uint256"
            }
          ],
          "internalType": "struct NBA_gembller.BPlayer",
          "name": "player",
          "type": "tuple"
        }
      ],
      "name": "calculataPlayerSum",
      "outputs": [
        {
          "internalType": "uint256",
          "name": "",
          "type": "uint256"
        }
      ],
      "payable": false,
      "stateMutability": "view",
      "type": "function"
    },
    {
      "constant": false,
      "inputs": [
        {
          "internalType": "uint256",
          "name": "gambllerNum",
          "type": "uint256"
        },
        {
          "internalType": "uint256",
          "name": "battleNum",
          "type": "uint256"
        },
        {
          "internalType": "uint256",
          "name": "rebounds",
          "type": "uint256"
        },
        {
          "internalType": "uint256",
          "name": "asists",
          "type": "uint256"
        },
        {
          "internalType": "uint256",
          "name": "points",
          "type": "uint256"
        },
        {
          "internalType": "uint256",
          "name": "blocks",
          "type": "uint256"
        },
        {
          "internalType": "uint256",
          "name": "steals",
          "type": "uint256"
        }
      ],
      "name": "calculateDayStatisticsOfPlayer",
      "outputs": [],
      "payable": false,
      "stateMutability": "nonpayable",
      "type": "function"
    },
    {
      "constant": true,
      "inputs": [
        {
          "internalType": "uint256",
          "name": "battleNum",
          "type": "uint256"
        }
      ],
      "name": "winner",
      "outputs": [
        {
          "internalType": "bool",
          "name": "",
          "type": "bool"
        },
        {
          "components": [
            {
              "internalType": "string",
              "name": "firtsName",
              "type": "string"
            },
            {
              "internalType": "string",
              "name": "username",
              "type": "string"
            },
            {
              "internalType": "string",
              "name": "password",
              "type": "string"
            },
            {
              "internalType": "address",
              "name": "userAddress",
              "type": "address"
            }
          ],
          "internalType": "struct NBA_gembller.User",
          "name": "",
          "type": "tuple"
        },
        {
          "internalType": "bool",
          "name": "",
          "type": "bool"
        },
        {
          "components": [
            {
              "internalType": "string",
              "name": "firtsName",
              "type": "string"
            },
            {
              "internalType": "string",
              "name": "username",
              "type": "string"
            },
            {
              "internalType": "string",
              "name": "password",
              "type": "string"
            },
            {
              "internalType": "address",
              "name": "userAddress",
              "type": "address"
            }
          ],
          "internalType": "struct NBA_gembller.User",
          "name": "",
          "type": "tuple"
        }
      ],
      "payable": false,
      "stateMutability": "view",
      "type": "function"
    },
    {
      "constant": false,
      "inputs": [
        {
          "internalType": "string",
          "name": "_playerName",
          "type": "string"
        },
        {
          "internalType": "uint256",
          "name": "_rebounds",
          "type": "uint256"
        },
        {
          "internalType": "uint256",
          "name": "_asists",
          "type": "uint256"
        },
        {
          "internalType": "uint256",
          "name": "_points",
          "type": "uint256"
        },
        {
          "internalType": "uint256",
          "name": "_blocks",
          "type": "uint256"
        },
        {
          "internalType": "uint256",
          "name": "_steals",
          "type": "uint256"
        }
      ],
      "name": "updateStatisticOfPlayer",
      "outputs": [],
      "payable": false,
      "stateMutability": "nonpayable",
      "type": "function"
    },
    {
      "constant": false,
      "inputs": [
        {
          "internalType": "string",
          "name": "username",
          "type": "string"
        }
      ],
      "name": "getBattleNumbers",
      "outputs": [
        {
          "internalType": "uint256[]",
          "name": "",
          "type": "uint256[]"
        }
      ],
      "payable": false,
      "stateMutability": "nonpayable",
      "type": "function"
    },
    {
      "constant": true,
      "inputs": [
        {
          "internalType": "string",
          "name": "_playername",
          "type": "string"
        }
      ],
      "name": "getPlayer",
      "outputs": [
        {
          "components": [
            {
              "internalType": "string",
              "name": "name",
              "type": "string"
            },
            {
              "internalType": "uint256",
              "name": "rebounds",
              "type": "uint256"
            },
            {
              "internalType": "uint256",
              "name": "asists",
              "type": "uint256"
            },
            {
              "internalType": "uint256",
              "name": "points",
              "type": "uint256"
            },
            {
              "internalType": "uint256",
              "name": "blocks",
              "type": "uint256"
            },
            {
              "internalType": "uint256",
              "name": "steals",
              "type": "uint256"
            }
          ],
          "internalType": "struct NBA_gembller.BPlayer",
          "name": "",
          "type": "tuple"
        }
      ],
      "payable": false,
      "stateMutability": "view",
      "type": "function"
    },
    {
      "constant": true,
      "inputs": [
        {
          "internalType": "string",
          "name": "_username",
          "type": "string"
        }
      ],
      "name": "getUserGambllerByUserName",
      "outputs": [
        {
          "components": [
            {
              "components": [
                {
                  "internalType": "string",
                  "name": "firtsName",
                  "type": "string"
                },
                {
                  "internalType": "string",
                  "name": "username",
                  "type": "string"
                },
                {
                  "internalType": "string",
                  "name": "password",
                  "type": "string"
                },
                {
                  "internalType": "address",
                  "name": "userAddress",
                  "type": "address"
                }
              ],
              "internalType": "struct NBA_gembller.User",
              "name": "user",
              "type": "tuple"
            },
            {
              "components": [
                {
                  "internalType": "string",
                  "name": "name",
                  "type": "string"
                },
                {
                  "internalType": "uint256",
                  "name": "rebounds",
                  "type": "uint256"
                },
                {
                  "internalType": "uint256",
                  "name": "asists",
                  "type": "uint256"
                },
                {
                  "internalType": "uint256",
                  "name": "points",
                  "type": "uint256"
                },
                {
                  "internalType": "uint256",
                  "name": "blocks",
                  "type": "uint256"
                },
                {
                  "internalType": "uint256",
                  "name": "steals",
                  "type": "uint256"
                }
              ],
              "internalType": "struct NBA_gembller.BPlayer[]",
              "name": "players",
              "type": "tuple[]"
            },
            {
              "internalType": "uint256",
              "name": "gambleAmount",
              "type": "uint256"
            },
            {
              "internalType": "uint256",
              "name": "initialPrice",
              "type": "uint256"
            },
            {
              "internalType": "bool",
              "name": "valid",
              "type": "bool"
            }
          ],
          "internalType": "struct NBA_gembller.UserGamble",
          "name": "",
          "type": "tuple"
        }
      ],
      "payable": false,
      "stateMutability": "view",
      "type": "function"
    },
    {
      "constant": true,
      "inputs": [
        {
          "internalType": "uint256",
          "name": "battleNum",
          "type": "uint256"
        }
      ],
      "name": "getGamblingBattle",
      "outputs": [
        {
          "components": [
            {
              "components": [
                {
                  "components": [
                    {
                      "internalType": "string",
                      "name": "firtsName",
                      "type": "string"
                    },
                    {
                      "internalType": "string",
                      "name": "username",
                      "type": "string"
                    },
                    {
                      "internalType": "string",
                      "name": "password",
                      "type": "string"
                    },
                    {
                      "internalType": "address",
                      "name": "userAddress",
                      "type": "address"
                    }
                  ],
                  "internalType": "struct NBA_gembller.User",
                  "name": "user",
                  "type": "tuple"
                },
                {
                  "components": [
                    {
                      "internalType": "string",
                      "name": "name",
                      "type": "string"
                    },
                    {
                      "internalType": "uint256",
                      "name": "rebounds",
                      "type": "uint256"
                    },
                    {
                      "internalType": "uint256",
                      "name": "asists",
                      "type": "uint256"
                    },
                    {
                      "internalType": "uint256",
                      "name": "points",
                      "type": "uint256"
                    },
                    {
                      "internalType": "uint256",
                      "name": "blocks",
                      "type": "uint256"
                    },
                    {
                      "internalType": "uint256",
                      "name": "steals",
                      "type": "uint256"
                    }
                  ],
                  "internalType": "struct NBA_gembller.BPlayer[]",
                  "name": "players",
                  "type": "tuple[]"
                },
                {
                  "internalType": "uint256",
                  "name": "gambleAmount",
                  "type": "uint256"
                },
                {
                  "internalType": "uint256",
                  "name": "initialPrice",
                  "type": "uint256"
                },
                {
                  "internalType": "bool",
                  "name": "valid",
                  "type": "bool"
                }
              ],
              "internalType": "struct NBA_gembller.UserGamble",
              "name": "userGamble1",
              "type": "tuple"
            },
            {
              "components": [
                {
                  "components": [
                    {
                      "internalType": "string",
                      "name": "firtsName",
                      "type": "string"
                    },
                    {
                      "internalType": "string",
                      "name": "username",
                      "type": "string"
                    },
                    {
                      "internalType": "string",
                      "name": "password",
                      "type": "string"
                    },
                    {
                      "internalType": "address",
                      "name": "userAddress",
                      "type": "address"
                    }
                  ],
                  "internalType": "struct NBA_gembller.User",
                  "name": "user",
                  "type": "tuple"
                },
                {
                  "components": [
                    {
                      "internalType": "string",
                      "name": "name",
                      "type": "string"
                    },
                    {
                      "internalType": "uint256",
                      "name": "rebounds",
                      "type": "uint256"
                    },
                    {
                      "internalType": "uint256",
                      "name": "asists",
                      "type": "uint256"
                    },
                    {
                      "internalType": "uint256",
                      "name": "points",
                      "type": "uint256"
                    },
                    {
                      "internalType": "uint256",
                      "name": "blocks",
                      "type": "uint256"
                    },
                    {
                      "internalType": "uint256",
                      "name": "steals",
                      "type": "uint256"
                    }
                  ],
                  "internalType": "struct NBA_gembller.BPlayer[]",
                  "name": "players",
                  "type": "tuple[]"
                },
                {
                  "internalType": "uint256",
                  "name": "gambleAmount",
                  "type": "uint256"
                },
                {
                  "internalType": "uint256",
                  "name": "initialPrice",
                  "type": "uint256"
                },
                {
                  "internalType": "bool",
                  "name": "valid",
                  "type": "bool"
                }
              ],
              "internalType": "struct NBA_gembller.UserGamble",
              "name": "userGamble2",
              "type": "tuple"
            },
            {
              "internalType": "uint256",
              "name": "scoreUserGamble1",
              "type": "uint256"
            },
            {
              "internalType": "uint256",
              "name": "scoreUserGamble2",
              "type": "uint256"
            }
          ],
          "internalType": "struct NBA_gembller.GamblingBattle",
          "name": "",
          "type": "tuple"
        }
      ],
      "payable": false,
      "stateMutability": "view",
      "type": "function"
    },
    {
      "constant": true,
      "inputs": [
        {
          "internalType": "address",
          "name": "_userAddress",
          "type": "address"
        }
      ],
      "name": "getUserNameByAddress",
      "outputs": [
        {
          "internalType": "string",
          "name": "",
          "type": "string"
        }
      ],
      "payable": false,
      "stateMutability": "view",
      "type": "function"
    },
    {
      "constant": true,
      "inputs": [
        {
          "internalType": "string",
          "name": "username",
          "type": "string"
        }
      ],
      "name": "getUserAddressByUsername",
      "outputs": [
        {
          "internalType": "address",
          "name": "userAddress",
          "type": "address"
        }
      ],
      "payable": false,
      "stateMutability": "view",
      "type": "function"
    }
  ],
  "bytecode": "0x60806040526002805534801561001457600080fd5b5060016000819055506000600b60070160006101000a81548160ff0219169083151502179055506000601360070160006101000a81548160ff0219169083151502179055506000601b60070160006101000a81548160ff0219169083151502179055506000600b600601819055506101f46013600601819055506103e8601b6006018190555061574680620000aa6000396000f3fe608060405234801561001057600080fd5b50600436106101215760003560e01c80634cd08d03116100ad578063d01772ce11610071578063d01772ce14610368578063d4ffd89d14610398578063df9c43a4146103c8578063dfda4a57146103f8578063e47c5e331461041457610121565b80634cd08d03146102a057806355940c4f146102bc57806358467dbc146102d85780636423e2d5146103085780639b45976b1461033857610121565b80631cbeae5e116100f45780631cbeae5e146101be5780631f11b24f146101f15780632bc33d90146102215780632ca045221461025457806337edf7f01461027057610121565b806303b31cbd1461012657806310fe472b146101565780631541b2c31461018657806319343efb146101a2575b600080fd5b610140600480360361013b919081019061485d565b610444565b60405161014d91906154ae565b60405180910390f35b610170600480360361016b9190810190614834565b61083a565b60405161017d91906153ae565b60405180910390f35b6101a0600480360361019b9190810190614b54565b61091e565b005b6101bc60048036036101b791908101906149f5565b61098f565b005b6101d860048036036101d39190810190614ad7565b610a40565b6040516101e8949392919061535b565b60405180910390f35b61020b6004803603610206919081019061485d565b6118aa565b604051610218919061546a565b60405180910390f35b61023b60048036036102369190810190614ad7565b6119b6565b60405161024b94939291906153d0565b60405180910390f35b61026e6004803603610269919081019061485d565b611bdb565b005b61028a6004803603610285919081019061485d565b61241c565b604051610297919061531e565b60405180910390f35b6102ba60048036036102b5919081019061490a565b612492565b005b6102d660048036036102d1919081019061489e565b61277d565b005b6102f260048036036102ed919081019061489e565b612928565b6040516102ff9190615340565b60405180910390f35b610322600480360361031d9190810190614ad7565b612c60565b60405161032f919061548c565b60405180910390f35b610352600480360361034d91908101906149a1565b613439565b60405161035f9190615340565b60405180910390f35b610382600480360361037d9190810190614a96565b613d23565b60405161038f91906154d0565b60405180910390f35b6103b260048036036103ad9190810190614b00565b613d5d565b6040516103bf91906154d0565b60405180910390f35b6103e260048036036103dd9190810190614834565b613eb8565b6040516103ef9190615340565b60405180910390f35b610412600480360361040d91908101906149f5565b61419f565b005b61042e6004803603610429919081019061485d565b614292565b60405161043b9190615303565b60405180910390f35b61044c6142dd565b6104546142dd565b60038360405161046491906152d5565b90815260200160405180910390206040518060a001604052908160008201604051806080016040529081600082018054600181600116156101000203166002900480601f0160208091040260200160405190810160405280929190818152602001828054600181600116156101000203166002900480156105265780601f106104fb57610100808354040283529160200191610526565b820191906000526020600020905b81548152906001019060200180831161050957829003601f168201915b50505050508152602001600182018054600181600116156101000203166002900480601f0160208091040260200160405190810160405280929190818152602001828054600181600116156101000203166002900480156105c85780601f1061059d576101008083540402835291602001916105c8565b820191906000526020600020905b8154815290600101906020018083116105ab57829003601f168201915b50505050508152602001600282018054600181600116156101000203166002900480601f01602080910402602001604051908101604052809291908181526020018280546001816001161561010002031660029004801561066a5780601f1061063f5761010080835404028352916020019161066a565b820191906000526020600020905b81548152906001019060200180831161064d57829003601f168201915b505050505081526020016003820160009054906101000a900473ffffffffffffffffffffffffffffffffffffffff1673ffffffffffffffffffffffffffffffffffffffff1673ffffffffffffffffffffffffffffffffffffffff1681525050815260200160048201805480602002602001604051908101604052809291908181526020016000905b828210156107f857838290600052602060002090600602016040518060c0016040529081600082018054600181600116156101000203166002900480601f0160208091040260200160405190810160405280929190818152602001828054600181600116156101000203166002900480156107ae5780601f10610783576101008083540402835291602001916107ae565b820191906000526020600020905b81548152906001019060200180831161079157829003601f168201915b5050505050815260200160018201548152602001600282015481526020016003820154815260200160048201548152602001600582015481525050815260200190600101906106f2565b50505050815260200160058201548152602001600682015481526020016007820160009054906101000a900460ff161515151581525050905080915050919050565b6060600660008373ffffffffffffffffffffffffffffffffffffffff1673ffffffffffffffffffffffffffffffffffffffff1681526020019081526020016000206001018054600181600116156101000203166002900480601f0160208091040260200160405190810160405280929190818152602001828054600181600116156101000203166002900480156109125780601f106108e757610100808354040283529160200191610912565b820191906000526020600020905b8154815290600101906020018083116108f557829003601f168201915b50505050509050919050565b600060076000888152602001908152602001600020905060006008830260078502600a87026005890260058b02010101019050600189141561097157808260100160008282540192505081905550610984565b8082601101600082825401925050819055505b505050505050505050565b610997614314565b6040518060c00160405280888152602001878152602001868152602001858152602001848152602001838152509050806004886040516109d791906152d5565b90815260200160405180910390206000820151816000019080519060200190610a0192919061434a565b506020820151816001015560408201518160020155606082015181600301556080820151816004015560a0820151816005015590505050505050505050565b6000610a4a6143ca565b6000610a546143ca565b6000600760008781526020019081526020016000209050806011015481601001541115610f2f5760018160000160000160008360080160000182604051806080016040529081600082018054600181600116156101000203166002900480601f016020809104026020016040519081016040528092919081815260200182805460018160011615610100020316600290048015610b325780601f10610b0757610100808354040283529160200191610b32565b820191906000526020600020905b815481529060010190602001808311610b1557829003601f168201915b50505050508152602001600182018054600181600116156101000203166002900480601f016020809104026020016040519081016040528092919081815260200182805460018160011615610100020316600290048015610bd45780601f10610ba957610100808354040283529160200191610bd4565b820191906000526020600020905b815481529060010190602001808311610bb757829003601f168201915b50505050508152602001600282018054600181600116156101000203166002900480601f016020809104026020016040519081016040528092919081815260200182805460018160011615610100020316600290048015610c765780601f10610c4b57610100808354040283529160200191610c76565b820191906000526020600020905b815481529060010190602001808311610c5957829003601f168201915b505050505081526020016003820160009054906101000a900473ffffffffffffffffffffffffffffffffffffffff1673ffffffffffffffffffffffffffffffffffffffff1673ffffffffffffffffffffffffffffffffffffffff1681525050925080604051806080016040529081600082018054600181600116156101000203166002900480601f016020809104026020016040519081016040528092919081815260200182805460018160011615610100020316600290048015610d7c5780601f10610d5157610100808354040283529160200191610d7c565b820191906000526020600020905b815481529060010190602001808311610d5f57829003601f168201915b50505050508152602001600182018054600181600116156101000203166002900480601f016020809104026020016040519081016040528092919081815260200182805460018160011615610100020316600290048015610e1e5780601f10610df357610100808354040283529160200191610e1e565b820191906000526020600020905b815481529060010190602001808311610e0157829003601f168201915b50505050508152602001600282018054600181600116156101000203166002900480601f016020809104026020016040519081016040528092919081815260200182805460018160011615610100020316600290048015610ec05780601f10610e9557610100808354040283529160200191610ec0565b820191906000526020600020905b815481529060010190602001808311610ea357829003601f168201915b505050505081526020016003820160009054906101000a900473ffffffffffffffffffffffffffffffffffffffff1673ffffffffffffffffffffffffffffffffffffffff1673ffffffffffffffffffffffffffffffffffffffff168152505090509450945094509450506118a3565b8060110154816010015410156113f35760008160000160000160018360080160000182604051806080016040529081600082018054600181600116156101000203166002900480601f016020809104026020016040519081016040528092919081815260200182805460018160011615610100020316600290048015610ff65780601f10610fcb57610100808354040283529160200191610ff6565b820191906000526020600020905b815481529060010190602001808311610fd957829003601f168201915b50505050508152602001600182018054600181600116156101000203166002900480601f0160208091040260200160405190810160405280929190818152602001828054600181600116156101000203166002900480156110985780601f1061106d57610100808354040283529160200191611098565b820191906000526020600020905b81548152906001019060200180831161107b57829003601f168201915b50505050508152602001600282018054600181600116156101000203166002900480601f01602080910402602001604051908101604052809291908181526020018280546001816001161561010002031660029004801561113a5780601f1061110f5761010080835404028352916020019161113a565b820191906000526020600020905b81548152906001019060200180831161111d57829003601f168201915b505050505081526020016003820160009054906101000a900473ffffffffffffffffffffffffffffffffffffffff1673ffffffffffffffffffffffffffffffffffffffff1673ffffffffffffffffffffffffffffffffffffffff1681525050925080604051806080016040529081600082018054600181600116156101000203166002900480601f0160208091040260200160405190810160405280929190818152602001828054600181600116156101000203166002900480156112405780601f1061121557610100808354040283529160200191611240565b820191906000526020600020905b81548152906001019060200180831161122357829003601f168201915b50505050508152602001600182018054600181600116156101000203166002900480601f0160208091040260200160405190810160405280929190818152602001828054600181600116156101000203166002900480156112e25780601f106112b7576101008083540402835291602001916112e2565b820191906000526020600020905b8154815290600101906020018083116112c557829003601f168201915b50505050508152602001600282018054600181600116156101000203166002900480601f0160208091040260200160405190810160405280929190818152602001828054600181600116156101000203166002900480156113845780601f1061135957610100808354040283529160200191611384565b820191906000526020600020905b81548152906001019060200180831161136757829003601f168201915b505050505081526020016003820160009054906101000a900473ffffffffffffffffffffffffffffffffffffffff1673ffffffffffffffffffffffffffffffffffffffff1673ffffffffffffffffffffffffffffffffffffffff168152505090509450945094509450506118a3565b60008160000160000160008360080160000182604051806080016040529081600082018054600181600116156101000203166002900480601f0160208091040260200160405190810160405280929190818152602001828054600181600116156101000203166002900480156114aa5780601f1061147f576101008083540402835291602001916114aa565b820191906000526020600020905b81548152906001019060200180831161148d57829003601f168201915b50505050508152602001600182018054600181600116156101000203166002900480601f01602080910402602001604051908101604052809291908181526020018280546001816001161561010002031660029004801561154c5780601f106115215761010080835404028352916020019161154c565b820191906000526020600020905b81548152906001019060200180831161152f57829003601f168201915b50505050508152602001600282018054600181600116156101000203166002900480601f0160208091040260200160405190810160405280929190818152602001828054600181600116156101000203166002900480156115ee5780601f106115c3576101008083540402835291602001916115ee565b820191906000526020600020905b8154815290600101906020018083116115d157829003601f168201915b505050505081526020016003820160009054906101000a900473ffffffffffffffffffffffffffffffffffffffff1673ffffffffffffffffffffffffffffffffffffffff1673ffffffffffffffffffffffffffffffffffffffff1681525050925080604051806080016040529081600082018054600181600116156101000203166002900480601f0160208091040260200160405190810160405280929190818152602001828054600181600116156101000203166002900480156116f45780601f106116c9576101008083540402835291602001916116f4565b820191906000526020600020905b8154815290600101906020018083116116d757829003601f168201915b50505050508152602001600182018054600181600116156101000203166002900480601f0160208091040260200160405190810160405280929190818152602001828054600181600116156101000203166002900480156117965780601f1061176b57610100808354040283529160200191611796565b820191906000526020600020905b81548152906001019060200180831161177957829003601f168201915b50505050508152602001600282018054600181600116156101000203166002900480601f0160208091040260200160405190810160405280929190818152602001828054600181600116156101000203166002900480156118385780601f1061180d57610100808354040283529160200191611838565b820191906000526020600020905b81548152906001019060200180831161181b57829003601f168201915b505050505081526020016003820160009054906101000a900473ffffffffffffffffffffffffffffffffffffffff1673ffffffffffffffffffffffffffffffffffffffff1673ffffffffffffffffffffffffffffffffffffffff168152505090509450945094509450505b9193509193565b6118b2614314565b6004826040516118c291906152d5565b90815260200160405180910390206040518060c0016040529081600082018054600181600116156101000203166002900480601f0160208091040260200160405190810160405280929190818152602001828054600181600116156101000203166002900480156119745780601f1061194957610100808354040283529160200191611974565b820191906000526020600020905b81548152906001019060200180831161195757829003601f168201915b50505050508152602001600182015481526020016002820154815260200160038201548152602001600482015481526020016005820154815250509050919050565b600181815481106119c357fe5b9060005260206000209060040201600091509050806000018054600181600116156101000203166002900480601f016020809104026020016040519081016040528092919081815260200182805460018160011615610100020316600290048015611a6f5780601f10611a4457610100808354040283529160200191611a6f565b820191906000526020600020905b815481529060010190602001808311611a5257829003601f168201915b505050505090806001018054600181600116156101000203166002900480601f016020809104026020016040519081016040528092919081815260200182805460018160011615610100020316600290048015611b0d5780601f10611ae257610100808354040283529160200191611b0d565b820191906000526020600020905b815481529060010190602001808311611af057829003601f168201915b505050505090806002018054600181600116156101000203166002900480601f016020809104026020016040519081016040528092919081815260200182805460018160011615610100020316600290048015611bab5780601f10611b8057610100808354040283529160200191611bab565b820191906000526020600020905b815481529060010190602001808311611b8e57829003601f168201915b5050505050908060030160009054906101000a900473ffffffffffffffffffffffffffffffffffffffff16905084565b600381604051611beb91906152d5565b90815260200160405180910390206007600080548152602001908152602001600020600001600082018160000160008201816000019080546001816001161561010002031660029004611c3f929190614408565b5060018201816001019080546001816001161561010002031660029004611c67929190614408565b5060028201816002019080546001816001161561010002031660029004611c8f929190614408565b506003820160009054906101000a900473ffffffffffffffffffffffffffffffffffffffff168160030160006101000a81548173ffffffffffffffffffffffffffffffffffffffff021916908373ffffffffffffffffffffffffffffffffffffffff16021790555050506004820181600401908054611d0f92919061448f565b5060058201548160050155600682015481600601556007820160009054906101000a900460ff168160070160006101000a81548160ff02191690831515021790555090505060006007600080548152602001908152602001600020600001600601541415611fa257600b6007600080548152602001908152602001600020600801600082018160000160008201816000019080546001816001161561010002031660029004611dbf929190614408565b5060018201816001019080546001816001161561010002031660029004611de7929190614408565b5060028201816002019080546001816001161561010002031660029004611e0f929190614408565b506003820160009054906101000a900473ffffffffffffffffffffffffffffffffffffffff168160030160006101000a81548173ffffffffffffffffffffffffffffffffffffffff021916908373ffffffffffffffffffffffffffffffffffffffff16021790555050506004820181600401908054611e8f92919061448f565b5060058201548160050155600682015481600601556007820160009054906101000a900460ff168160070160006101000a81548160ff0219169083151502179055509050506000600b60070160006101000a81548160ff021916908315150217905550600a81604051611f0291906152d5565b90815260200160405180910390206000549080600181540180825580915050906001820390600052602060002001600090919290919091505550600a600b600001600101604051611f5391906152ec565b9081526020016040518091039020600054908060018154018082558091505090600182039060005260206000200160009091929091909150555060016000808282540192505081905550612419565b6101f460076000805481526020019081526020016000206000016006015414156121f1576013600760008054815260200190815260200160002060080160008201816000016000820181600001908054600181600116156101000203166002900461200e929190614408565b5060018201816001019080546001816001161561010002031660029004612036929190614408565b506002820181600201908054600181600116156101000203166002900461205e929190614408565b506003820160009054906101000a900473ffffffffffffffffffffffffffffffffffffffff168160030160006101000a81548173ffffffffffffffffffffffffffffffffffffffff021916908373ffffffffffffffffffffffffffffffffffffffff160217905550505060048201816004019080546120de92919061448f565b5060058201548160050155600682015481600601556007820160009054906101000a900460ff168160070160006101000a81548160ff0219169083151502179055509050506000600b60070160006101000a81548160ff021916908315150217905550600a8160405161215191906152d5565b90815260200160405180910390206000549080600181540180825580915050906001820390600052602060002001600090919290919091505550600a60136000016001016040516121a291906152ec565b9081526020016040518091039020600054908060018154018082558091505090600182039060005260206000200160009091929091909150555060016000808282540192505081905550612418565b601b6007600080548152602001908152602001600020600801600082018160000160008201816000019080546001816001161561010002031660029004612239929190614408565b5060018201816001019080546001816001161561010002031660029004612261929190614408565b5060028201816002019080546001816001161561010002031660029004612289929190614408565b506003820160009054906101000a900473ffffffffffffffffffffffffffffffffffffffff168160030160006101000a81548173ffffffffffffffffffffffffffffffffffffffff021916908373ffffffffffffffffffffffffffffffffffffffff1602179055505050600482018160040190805461230992919061448f565b5060058201548160050155600682015481600601556007820160009054906101000a900460ff168160070160006101000a81548160ff0219169083151502179055509050506000601b60070160006101000a81548160ff021916908315150217905550600a8160405161237c91906152d5565b90815260200160405180910390206000549080600181540180825580915050906001820390600052602060002001600090919290919091505550600a601b6000016001016040516123cd91906152ec565b90815260200160405180910390206000549080600181540180825580915050906001820390600052602060002001600090919290919091505550600160008082825401925050819055505b5b50565b6060600a8260405161242e91906152d5565b908152602001604051809103902080548060200260200160405190810160405280929190818152602001828054801561248657602002820191906000526020600020905b815481526020019060010190808311612472575b50505050509050919050565b61249a6143ca565b60405180608001604052808581526020018481526020018381526020013373ffffffffffffffffffffffffffffffffffffffff168152509050600881602001516040516124e791906152be565b908152602001604051809103902060009054906101000a900460ff1615612543576040517f08c379a000000000000000000000000000000000000000000000000000000000815260040161253a9061542a565b60405180910390fd5b8060058460405161255491906152d5565b9081526020016040518091039020600082015181600001908051906020019061257e92919061434a565b50602082015181600101908051906020019061259b92919061434a565b5060408201518160020190805190602001906125b892919061434a565b5060608201518160030160006101000a81548173ffffffffffffffffffffffffffffffffffffffff021916908373ffffffffffffffffffffffffffffffffffffffff16021790555090505080600660003373ffffffffffffffffffffffffffffffffffffffff1673ffffffffffffffffffffffffffffffffffffffff168152602001908152602001600020600082015181600001908051906020019061265f92919061434a565b50602082015181600101908051906020019061267c92919061434a565b50604082015181600201908051906020019061269992919061434a565b5060608201518160030160006101000a81548173ffffffffffffffffffffffffffffffffffffffff021916908373ffffffffffffffffffffffffffffffffffffffff1602179055509050506001600882602001516040516126fa91906152be565b908152602001604051809103902060006101000a81548160ff0219169083151502179055506001600960003373ffffffffffffffffffffffffffffffffffffffff1673ffffffffffffffffffffffffffffffffffffffff16815260200190815260200160002060006101000a81548160ff02191690831515021790555050505050565b612785614314565b60048260405161279591906152d5565b90815260200160405180910390206040518060c0016040529081600082018054600181600116156101000203166002900480601f0160208091040260200160405190810160405280929190818152602001828054600181600116156101000203166002900480156128475780601f1061281c57610100808354040283529160200191612847565b820191906000526020600020905b81548152906001019060200180831161282a57829003601f168201915b5050505050815260200160018201548152602001600282015481526020016003820154815260200160048201548152602001600582015481525050905060038360405161289491906152d5565b9081526020016040518091039020600401819080600181540180825580915050906001820390600052602060002090600602016000909192909190915060008201518160000190805190602001906128ed92919061434a565b506020820151816001015560408201518160020155606082015181600301556080820151816004015560a08201518160050155505050505050565b60006129326143ca565b60058460405161294291906152d5565b9081526020016040518091039020604051806080016040529081600082018054600181600116156101000203166002900480601f0160208091040260200160405190810160405280929190818152602001828054600181600116156101000203166002900480156129f45780601f106129c9576101008083540402835291602001916129f4565b820191906000526020600020905b8154815290600101906020018083116129d757829003601f168201915b50505050508152602001600182018054600181600116156101000203166002900480601f016020809104026020016040519081016040528092919081815260200182805460018160011615610100020316600290048015612a965780601f10612a6b57610100808354040283529160200191612a96565b820191906000526020600020905b815481529060010190602001808311612a7957829003601f168201915b50505050508152602001600282018054600181600116156101000203166002900480601f016020809104026020016040519081016040528092919081815260200182805460018160011615610100020316600290048015612b385780601f10612b0d57610100808354040283529160200191612b38565b820191906000526020600020905b815481529060010190602001808311612b1b57829003601f168201915b505050505081526020016003820160009054906101000a900473ffffffffffffffffffffffffffffffffffffffff1673ffffffffffffffffffffffffffffffffffffffff1673ffffffffffffffffffffffffffffffffffffffff1681525050905082604051602001612baa91906152d5565b604051602081830303815290604052805190602001208160400151604051602001612bd591906152be565b6040516020818303038152906040528051906020012014612c2b576040517f08c379a0000000000000000000000000000000000000000000000000000000008152600401612c229061544a565b60405180910390fd5b600884604051612c3b91906152d5565b908152602001604051809103902060009054906101000a900460ff1691505092915050565b612c68614541565b612c70614541565b60076000848152602001908152602001600020604051806080016040529081600082016040518060a001604052908160008201604051806080016040529081600082018054600181600116156101000203166002900480601f016020809104026020016040519081016040528092919081815260200182805460018160011615610100020316600290048015612d475780601f10612d1c57610100808354040283529160200191612d47565b820191906000526020600020905b815481529060010190602001808311612d2a57829003601f168201915b50505050508152602001600182018054600181600116156101000203166002900480601f016020809104026020016040519081016040528092919081815260200182805460018160011615610100020316600290048015612de95780601f10612dbe57610100808354040283529160200191612de9565b820191906000526020600020905b815481529060010190602001808311612dcc57829003601f168201915b50505050508152602001600282018054600181600116156101000203166002900480601f016020809104026020016040519081016040528092919081815260200182805460018160011615610100020316600290048015612e8b5780601f10612e6057610100808354040283529160200191612e8b565b820191906000526020600020905b815481529060010190602001808311612e6e57829003601f168201915b505050505081526020016003820160009054906101000a900473ffffffffffffffffffffffffffffffffffffffff1673ffffffffffffffffffffffffffffffffffffffff1673ffffffffffffffffffffffffffffffffffffffff1681525050815260200160048201805480602002602001604051908101604052809291908181526020016000905b8282101561301957838290600052602060002090600602016040518060c0016040529081600082018054600181600116156101000203166002900480601f016020809104026020016040519081016040528092919081815260200182805460018160011615610100020316600290048015612fcf5780601f10612fa457610100808354040283529160200191612fcf565b820191906000526020600020905b815481529060010190602001808311612fb257829003601f168201915b505050505081526020016001820154815260200160028201548152602001600382015481526020016004820154815260200160058201548152505081526020019060010190612f13565b50505050815260200160058201548152602001600682015481526020016007820160009054906101000a900460ff1615151515815250508152602001600882016040518060a001604052908160008201604051806080016040529081600082018054600181600116156101000203166002900480601f01602080910402602001604051908101604052809291908181526020018280546001816001161561010002031660029004801561310d5780601f106130e25761010080835404028352916020019161310d565b820191906000526020600020905b8154815290600101906020018083116130f057829003601f168201915b50505050508152602001600182018054600181600116156101000203166002900480601f0160208091040260200160405190810160405280929190818152602001828054600181600116156101000203166002900480156131af5780601f10613184576101008083540402835291602001916131af565b820191906000526020600020905b81548152906001019060200180831161319257829003601f168201915b50505050508152602001600282018054600181600116156101000203166002900480601f0160208091040260200160405190810160405280929190818152602001828054600181600116156101000203166002900480156132515780601f1061322657610100808354040283529160200191613251565b820191906000526020600020905b81548152906001019060200180831161323457829003601f168201915b505050505081526020016003820160009054906101000a900473ffffffffffffffffffffffffffffffffffffffff1673ffffffffffffffffffffffffffffffffffffffff1673ffffffffffffffffffffffffffffffffffffffff1681525050815260200160048201805480602002602001604051908101604052809291908181526020016000905b828210156133df57838290600052602060002090600602016040518060c0016040529081600082018054600181600116156101000203166002900480601f0160208091040260200160405190810160405280929190818152602001828054600181600116156101000203166002900480156133955780601f1061336a57610100808354040283529160200191613395565b820191906000526020600020905b81548152906001019060200180831161337857829003601f168201915b5050505050815260200160018201548152602001600282015481526020016003820154815260200160048201548152602001600582015481525050815260200190600101906132d9565b50505050815260200160058201548152602001600682015481526020016007820160009054906101000a900460ff161515151581525050815260200160108201548152602001601182015481525050905080915050919050565b60008160038460405161344c91906152d5565b908152602001604051809103902060060181905550600160038460405161347391906152d5565b908152602001604051809103902060070160006101000a81548160ff0219169083151502179055506134a36143ca565b6005846040516134b391906152d5565b9081526020016040518091039020604051806080016040529081600082018054600181600116156101000203166002900480601f0160208091040260200160405190810160405280929190818152602001828054600181600116156101000203166002900480156135655780601f1061353a57610100808354040283529160200191613565565b820191906000526020600020905b81548152906001019060200180831161354857829003601f168201915b50505050508152602001600182018054600181600116156101000203166002900480601f0160208091040260200160405190810160405280929190818152602001828054600181600116156101000203166002900480156136075780601f106135dc57610100808354040283529160200191613607565b820191906000526020600020905b8154815290600101906020018083116135ea57829003601f168201915b50505050508152602001600282018054600181600116156101000203166002900480601f0160208091040260200160405190810160405280929190818152602001828054600181600116156101000203166002900480156136a95780601f1061367e576101008083540402835291602001916136a9565b820191906000526020600020905b81548152906001019060200180831161368c57829003601f168201915b505050505081526020016003820160009054906101000a900473ffffffffffffffffffffffffffffffffffffffff1673ffffffffffffffffffffffffffffffffffffffff1673ffffffffffffffffffffffffffffffffffffffff168152505090508060038560405161371b91906152d5565b9081526020016040518091039020600001600082015181600001908051906020019061374892919061434a565b50602082015181600101908051906020019061376592919061434a565b50604082015181600201908051906020019061378292919061434a565b5060608201518160030160006101000a81548173ffffffffffffffffffffffffffffffffffffffff021916908373ffffffffffffffffffffffffffffffffffffffff1602179055509050506137d78385613d5d565b6003856040516137e791906152d5565b908152602001604051809103902060050181905550600b6006015460038560405161381291906152d5565b90815260200160405180910390206006015414156139c05760001515600b60070160009054906101000a900460ff16151514156139bb576003816020015160405161385d91906152be565b9081526020016040518091039020600b60008201816000016000820181600001908054600181600116156101000203166002900461389c929190614408565b50600182018160010190805460018160011615610100020316600290046138c4929190614408565b50600282018160020190805460018160011615610100020316600290046138ec929190614408565b506003820160009054906101000a900473ffffffffffffffffffffffffffffffffffffffff168160030160006101000a81548173ffffffffffffffffffffffffffffffffffffffff021916908373ffffffffffffffffffffffffffffffffffffffff1602179055505050600482018160040190805461396c92919061448f565b5060058201548160050155600682015481600601556007820160009054906101000a900460ff168160070160006101000a81548160ff0219169083151502179055509050506000915050613d1d565b613d17565b6013600601546003856040516139d691906152d5565b9081526020016040518091039020600601541415613b845760001515601360070160009054906101000a900460ff1615151415613b7f5760038160200151604051613a2191906152be565b90815260200160405180910390206013600082018160000160008201816000019080546001816001161561010002031660029004613a60929190614408565b5060018201816001019080546001816001161561010002031660029004613a88929190614408565b5060028201816002019080546001816001161561010002031660029004613ab0929190614408565b506003820160009054906101000a900473ffffffffffffffffffffffffffffffffffffffff168160030160006101000a81548173ffffffffffffffffffffffffffffffffffffffff021916908373ffffffffffffffffffffffffffffffffffffffff16021790555050506004820181600401908054613b3092919061448f565b5060058201548160050155600682015481600601556007820160009054906101000a900460ff168160070160006101000a81548160ff0219169083151502179055509050506000915050613d1d565b613d16565b60001515601b60070160009054906101000a900460ff1615151415613d155760038160200151604051613bb791906152be565b9081526020016040518091039020601b600082018160000160008201816000019080546001816001161561010002031660029004613bf6929190614408565b5060018201816001019080546001816001161561010002031660029004613c1e929190614408565b5060028201816002019080546001816001161561010002031660029004613c46929190614408565b506003820160009054906101000a900473ffffffffffffffffffffffffffffffffffffffff168160030160006101000a81548173ffffffffffffffffffffffffffffffffffffffff021916908373ffffffffffffffffffffffffffffffffffffffff16021790555050506004820181600401908054613cc692919061448f565b5060058201548160050155600682015481600601556007820160009054906101000a900460ff168160070160006101000a81548160ff0219169083151502179055509050506000915050613d1d565b5b5b60019150505b92915050565b600080600a836040015102600f846080015102600f8560a00151026005866060015102600a87602001510201010101905080915050919050565b600080600383604051613d7091906152d5565b90815260200160405180910390209050600080905060008090505b600254811015613eaa57613e99836004018281548110613da757fe5b90600052602060002090600602016040518060c0016040529081600082018054600181600116156101000203166002900480601f016020809104026020016040519081016040528092919081815260200182805460018160011615610100020316600290048015613e595780601f10613e2e57610100808354040283529160200191613e59565b820191906000526020600020905b815481529060010190602001808311613e3c57829003601f168201915b5050505050815260200160018201548152602001600282015481526020016003820154815260200160048201548152602001600582015481525050613d23565b820191508080600101915050613d8b565b508481019250505092915050565b6000613ec26143ca565b600660008473ffffffffffffffffffffffffffffffffffffffff1673ffffffffffffffffffffffffffffffffffffffff168152602001908152602001600020604051806080016040529081600082018054600181600116156101000203166002900480601f016020809104026020016040519081016040528092919081815260200182805460018160011615610100020316600290048015613fa55780601f10613f7a57610100808354040283529160200191613fa5565b820191906000526020600020905b815481529060010190602001808311613f8857829003601f168201915b50505050508152602001600182018054600181600116156101000203166002900480601f0160208091040260200160405190810160405280929190818152602001828054600181600116156101000203166002900480156140475780601f1061401c57610100808354040283529160200191614047565b820191906000526020600020905b81548152906001019060200180831161402a57829003601f168201915b50505050508152602001600282018054600181600116156101000203166002900480601f0160208091040260200160405190810160405280929190818152602001828054600181600116156101000203166002900480156140e95780601f106140be576101008083540402835291602001916140e9565b820191906000526020600020905b8154815290600101906020018083116140cc57829003601f168201915b505050505081526020016003820160009054906101000a900473ffffffffffffffffffffffffffffffffffffffff1673ffffffffffffffffffffffffffffffffffffffff1673ffffffffffffffffffffffffffffffffffffffff16815250509050600960008473ffffffffffffffffffffffffffffffffffffffff1673ffffffffffffffffffffffffffffffffffffffff16815260200190815260200160002060009054906101000a900460ff16915050919050565b846004876040516141b091906152d5565b908152602001604051809103902060010160008282540192505081905550836004876040516141df91906152d5565b9081526020016040518091039020600201600082825401925050819055508260048760405161420e91906152d5565b9081526020016040518091039020600301600082825401925050819055508160048760405161423d91906152d5565b9081526020016040518091039020600401600082825401925050819055508060048760405161426c91906152d5565b908152602001604051809103902060050160008282540192505081905550505050505050565b60006005826040516142a491906152d5565b908152602001604051809103902060030160009054906101000a900473ffffffffffffffffffffffffffffffffffffffff169050919050565b6040518060a001604052806142f0614575565b81526020016060815260200160008152602001600081526020016000151581525090565b6040518060c001604052806060815260200160008152602001600081526020016000815260200160008152602001600081525090565b828054600181600116156101000203166002900490600052602060002090601f016020900481019282601f1061438b57805160ff19168380011785556143b9565b828001600101855582156143b9579182015b828111156143b857825182559160200191906001019061439d565b5b5090506143c691906145b3565b5090565b6040518060800160405280606081526020016060815260200160608152602001600073ffffffffffffffffffffffffffffffffffffffff1681525090565b828054600181600116156101000203166002900490600052602060002090601f016020900481019282601f10614441578054855561447e565b8280016001018555821561447e57600052602060002091601f016020900482015b8281111561447d578254825591600101919060010190614462565b5b50905061448b91906145b3565b5090565b8280548282559060005260206000209060060281019282156145305760005260206000209160060282015b8281111561452f578282600082018160000190805460018160011615610100020316600290046144eb929190614408565b5060018201548160010155600282015481600201556003820154816003015560048201548160040155600582015481600501555050916006019190600601906144ba565b5b50905061453d91906145d8565b5090565b604051806080016040528061455461462f565b815260200161456161462f565b815260200160008152602001600081525090565b6040518060800160405280606081526020016060815260200160608152602001600073ffffffffffffffffffffffffffffffffffffffff1681525090565b6145d591905b808211156145d15760008160009055506001016145b9565b5090565b90565b61462c91905b8082111561462857600080820160006145f79190614666565b60018201600090556002820160009055600382016000905560048201600090556005820160009055506006016145de565b5090565b90565b6040518060a00160405280614642614575565b81526020016060815260200160008152602001600081526020016000151581525090565b50805460018160011615610100020316600290046000825580601f1061468c57506146ab565b601f0160209004906000526020600020908101906146aa91906145b3565b5b50565b6000813590506146bd816156d5565b92915050565b600082601f8301126146d457600080fd5b81356146e76146e282615518565b6154eb565b9150808252602083016020830185838301111561470357600080fd5b61470e838284615682565b50505092915050565b600082601f83011261472857600080fd5b813561473b61473682615544565b6154eb565b9150808252602083016020830185838301111561475757600080fd5b614762838284615682565b50505092915050565b600060c0828403121561477d57600080fd5b61478760c06154eb565b9050600082013567ffffffffffffffff8111156147a357600080fd5b6147af848285016146c3565b60008301525060206147c38482850161481f565b60208301525060406147d78482850161481f565b60408301525060606147eb8482850161481f565b60608301525060806147ff8482850161481f565b60808301525060a06148138482850161481f565b60a08301525092915050565b60008135905061482e816156ec565b92915050565b60006020828403121561484657600080fd5b6000614854848285016146ae565b91505092915050565b60006020828403121561486f57600080fd5b600082013567ffffffffffffffff81111561488957600080fd5b61489584828501614717565b91505092915050565b600080604083850312156148b157600080fd5b600083013567ffffffffffffffff8111156148cb57600080fd5b6148d785828601614717565b925050602083013567ffffffffffffffff8111156148f457600080fd5b61490085828601614717565b9150509250929050565b60008060006060848603121561491f57600080fd5b600084013567ffffffffffffffff81111561493957600080fd5b61494586828701614717565b935050602084013567ffffffffffffffff81111561496257600080fd5b61496e86828701614717565b925050604084013567ffffffffffffffff81111561498b57600080fd5b61499786828701614717565b9150509250925092565b600080604083850312156149b457600080fd5b600083013567ffffffffffffffff8111156149ce57600080fd5b6149da85828601614717565b92505060206149eb8582860161481f565b9150509250929050565b60008060008060008060c08789031215614a0e57600080fd5b600087013567ffffffffffffffff811115614a2857600080fd5b614a3489828a01614717565b9650506020614a4589828a0161481f565b9550506040614a5689828a0161481f565b9450506060614a6789828a0161481f565b9350506080614a7889828a0161481f565b92505060a0614a8989828a0161481f565b9150509295509295509295565b600060208284031215614aa857600080fd5b600082013567ffffffffffffffff811115614ac257600080fd5b614ace8482850161476b565b91505092915050565b600060208284031215614ae957600080fd5b6000614af78482850161481f565b91505092915050565b60008060408385031215614b1357600080fd5b6000614b218582860161481f565b925050602083013567ffffffffffffffff811115614b3e57600080fd5b614b4a85828601614717565b9150509250929050565b600080600080600080600060e0888a031215614b6f57600080fd5b6000614b7d8a828b0161481f565b9750506020614b8e8a828b0161481f565b9650506040614b9f8a828b0161481f565b9550506060614bb08a828b0161481f565b9450506080614bc18a828b0161481f565b93505060a0614bd28a828b0161481f565b92505060c0614be38a828b0161481f565b91505092959891949750929550565b6000614bfe8383614fd1565b905092915050565b6000614c1283836152a0565b60208301905092915050565b614c278161563a565b82525050565b614c368161563a565b82525050565b6000614c47826155a5565b614c5181856155eb565b935083602082028501614c6385615570565b8060005b85811015614c9f5784840389528151614c808582614bf2565b9450614c8b836155d1565b925060208a01995050600181019050614c67565b50829750879550505050505092915050565b6000614cbc826155b0565b614cc681856155fc565b9350614cd183615580565b8060005b83811015614d02578151614ce98882614c06565b9750614cf4836155de565b925050600181019050614cd5565b5085935050505092915050565b614d188161564c565b82525050565b614d278161564c565b82525050565b6000614d38826155c6565b614d42818561561e565b9350614d52818560208601615691565b614d5b816156c4565b840191505092915050565b6000614d71826155c6565b614d7b818561562f565b9350614d8b818560208601615691565b80840191505092915050565b6000614da2826155bb565b614dac818561560d565b9350614dbc818560208601615691565b614dc5816156c4565b840191505092915050565b6000614ddb826155bb565b614de5818561561e565b9350614df5818560208601615691565b614dfe816156c4565b840191505092915050565b6000614e14826155bb565b614e1e818561562f565b9350614e2e818560208601615691565b80840191505092915050565b600081546001811660008114614e575760018114614e7c57614ec0565b607f6002830416614e68818761562f565b955060ff1983168652808601935050614ec0565b60028204614e8a818761562f565b9550614e9585615590565b60005b82811015614eb757815481890152600182019150602081019050614e98565b82880195505050505b505092915050565b6000614ed560148361561e565b91507f7573657220616c6c7265616479206578736973740000000000000000000000006000830152602082019050919050565b6000614f1560188361561e565b91507f70617373776f7264206973206e6f7420636f72726563742000000000000000006000830152602082019050919050565b600060c0830160008301518482036000860152614f658282614d97565b9150506020830151614f7a60208601826152a0565b506040830151614f8d60408601826152a0565b506060830151614fa060608601826152a0565b506080830151614fb360808601826152a0565b5060a0830151614fc660a08601826152a0565b508091505092915050565b600060c0830160008301518482036000860152614fee8282614d97565b915050602083015161500360208601826152a0565b50604083015161501660408601826152a0565b50606083015161502960608601826152a0565b50608083015161503c60808601826152a0565b5060a083015161504f60a08601826152a0565b508091505092915050565b600060808301600083015184820360008601526150778282615141565b915050602083015184820360208601526150918282615141565b91505060408301516150a660408601826152a0565b5060608301516150b960608601826152a0565b508091505092915050565b600060a08301600083015184820360008601526150e1828261522f565b915050602083015184820360208601526150fb8282614c3c565b915050604083015161511060408601826152a0565b50606083015161512360608601826152a0565b5060808301516151366080860182614d0f565b508091505092915050565b600060a083016000830151848203600086015261515e828261522f565b915050602083015184820360208601526151788282614c3c565b915050604083015161518d60408601826152a0565b5060608301516151a060608601826152a0565b5060808301516151b36080860182614d0f565b508091505092915050565b600060808301600083015184820360008601526151db8282614d97565b915050602083015184820360208601526151f58282614d97565b9150506040830151848203604086015261520f8282614d97565b91505060608301516152246060860182614c1e565b508091505092915050565b6000608083016000830151848203600086015261524c8282614d97565b915050602083015184820360208601526152668282614d97565b915050604083015184820360408601526152808282614d97565b91505060608301516152956060860182614c1e565b508091505092915050565b6152a981615678565b82525050565b6152b881615678565b82525050565b60006152ca8284614e09565b915081905092915050565b60006152e18284614d66565b915081905092915050565b60006152f88284614e3a565b915081905092915050565b60006020820190506153186000830184614c2d565b92915050565b600060208201905081810360008301526153388184614cb1565b905092915050565b60006020820190506153556000830184614d1e565b92915050565b60006080820190506153706000830187614d1e565b818103602083015261538281866151be565b90506153916040830185614d1e565b81810360608301526153a381846151be565b905095945050505050565b600060208201905081810360008301526153c88184614d2d565b905092915050565b600060808201905081810360008301526153ea8187614dd0565b905081810360208301526153fe8186614dd0565b905081810360408301526154128185614dd0565b90506154216060830184614c2d565b95945050505050565b6000602082019050818103600083015261544381614ec8565b9050919050565b6000602082019050818103600083015261546381614f08565b9050919050565b600060208201905081810360008301526154848184614f48565b905092915050565b600060208201905081810360008301526154a6818461505a565b905092915050565b600060208201905081810360008301526154c881846150c4565b905092915050565b60006020820190506154e560008301846152af565b92915050565b6000604051905081810181811067ffffffffffffffff8211171561550e57600080fd5b8060405250919050565b600067ffffffffffffffff82111561552f57600080fd5b601f19601f8301169050602081019050919050565b600067ffffffffffffffff82111561555b57600080fd5b601f19601f8301169050602081019050919050565b6000819050602082019050919050565b6000819050602082019050919050565b60008190508160005260206000209050919050565b600081519050919050565b600081519050919050565b600081519050919050565b600081519050919050565b6000602082019050919050565b6000602082019050919050565b600082825260208201905092915050565b600082825260208201905092915050565b600082825260208201905092915050565b600082825260208201905092915050565b600081905092915050565b600061564582615658565b9050919050565b60008115159050919050565b600073ffffffffffffffffffffffffffffffffffffffff82169050919050565b6000819050919050565b82818337600083830152505050565b60005b838110156156af578082015181840152602081019050615694565b838111156156be576000848401525b50505050565b6000601f19601f8301169050919050565b6156de8161563a565b81146156e957600080fd5b50565b6156f581615678565b811461570057600080fd5b5056fea365627a7a72315820e9aab5efb88350afc171d4a3fc404a77d8e0e271e658574c4231af5164924a2c6c6578706572696d656e74616cf564736f6c63430005100040",
  "source": "// SPDX-License-Identifier: MIT\r\npragma solidity >=0.4.0 < 0.8.0;\r\npragma experimental ABIEncoderV2;\r\n\r\ncontract NBA_gembller{\r\n    struct User{\r\n        string firtsName;\r\n        string username;\r\n        string password;\r\n        address userAddress;\r\n    }\r\n    \r\n struct BPlayer{\r\n      string name;\r\n      uint rebounds;\r\n      uint asists;\r\n      uint points;\r\n      uint blocks;\r\n      uint steals;\r\n\r\n    }\r\n    \r\n    \r\n  struct  UserGamble{\r\n        User user;\r\n        BPlayer []  players;\r\n        uint gambleAmount; \r\n        uint initialPrice;\r\n        bool valid;\r\n    }\r\n    \r\n   \r\n    struct GamblingBattle{\r\n        UserGamble userGamble1;\r\n        UserGamble userGamble2;\r\n        uint scoreUserGamble1;\r\n        uint scoreUserGamble2;\r\n    }\r\n\r\n      uint GamblingBattleNum;\r\n      User [] public userWhoWantToGambller;\r\n      uint  numberOfPlayers=2;\r\n      mapping(string => UserGamble)  userGambles;\r\n       mapping(string => BPlayer)  players;\r\n      mapping(string => User) usersMapping;\r\n      mapping(address => User) usersAddress;\r\n\r\n      mapping(uint => GamblingBattle) gamblingBattles;\r\n      mapping(string => bool) userExists;\r\n      mapping(address => bool) userExistsWithAddress;\r\n      mapping(string=>uint[]) userNameToBattle;\r\n      UserGamble userWaits_0;\r\n      UserGamble userWaits_500;\r\n      UserGamble userWaits_1000;\r\n    \r\n\r\n\r\n      constructor() public {    \r\n        GamblingBattleNum=1;\r\n        userWaits_0.valid=false;\r\n        userWaits_500.valid=false;\r\n        userWaits_1000.valid=false;\r\n        userWaits_0.initialPrice=0;\r\n        userWaits_500.initialPrice=500;\r\n        userWaits_1000.initialPrice=1000;\r\n      } \r\n       function register(string memory _firtsName,string  memory _username,string  memory _password) public  {\r\n        User memory _user=User(_firtsName,_username,_password,msg.sender);\r\n        require(!userExists[_user.username],\"user allready exsist\");\r\n        usersMapping[_username]=_user;\r\n        usersAddress[msg.sender]=_user;\r\n        userExists[_user.username] = true; \r\n        userExistsWithAddress[msg.sender]=true; \r\n        }\r\n\r\n      //return true if the user exsist and the password is correct \r\n      function login(string memory _username,string memory _password) public view returns (bool)  {\r\n         User memory _user=usersMapping[_username];\r\n         require(keccak256(abi.encodePacked((_user.password))) == keccak256(abi.encodePacked((_password))),\"password is not correct \");\r\n         return userExists[_username];\r\n         \r\n        }\r\n\r\n        function loginWithAddress(address _userAddress) public view returns (bool)  {\r\n         User memory _user=usersAddress[_userAddress];\r\n         return userExistsWithAddress[_userAddress];\r\n         \r\n        }\r\n          \r\n    function createPlayer( string memory _playerName,\r\n    uint _rebounds,uint _asists,uint _points ,uint _blocks,uint _steals) public {\r\n      BPlayer memory _player=BPlayer(_playerName,_rebounds,_asists,_points,_blocks,_steals);\r\n      players[_playerName]=_player;\r\n    }\r\n\r\n\r\n    function addPlayerToUser(string memory _username,string memory  _playerName) public \r\n      {\r\n       BPlayer memory _player=players[_playerName];\r\n      userGambles[_username].players.push(_player);\r\n\r\n      }\r\n    function addUserGambling(string memory _username,uint _initialPrice) public  returns(bool)  {   \r\n         \r\n\r\n          userGambles[_username].initialPrice=_initialPrice;\r\n          userGambles[_username].valid=true;\r\n          User memory _user=usersMapping[_username];\r\n          userGambles[_username].user=_user;\r\n          userGambles[_username].gambleAmount=calculateGamblePriceWinner(_initialPrice, _username);       \r\n\r\n          if(userGambles[_username].initialPrice==userWaits_0.initialPrice){\r\n               if (userWaits_0.valid==false){\r\n                userWaits_0=userGambles[_user.username];\r\n               return false;\r\n               }    \r\n          }else if(userGambles[_username].initialPrice==userWaits_500.initialPrice){\r\n            if (userWaits_500.valid==false){\r\n               userWaits_500=userGambles[_user.username];\r\n               return false;\r\n            }\r\n          }else{\r\n            if (userWaits_1000.valid==false){\r\n               userWaits_1000=userGambles[_user.username];\r\n               return false;\r\n             }\r\n          }\r\n\r\n        return true;\r\n     }\r\n    \r\n\r\n      function createBattle(string memory _username)public  {    \r\n        gamblingBattles[GamblingBattleNum].userGamble1= userGambles[_username];  //get the userGamble1\r\n      \r\n        if ( gamblingBattles[GamblingBattleNum].userGamble1.initialPrice==0){\r\n        gamblingBattles[GamblingBattleNum].userGamble2= userWaits_0;//get the usergamble2\r\n        userWaits_0.valid=false;\r\n        userNameToBattle[_username].push(GamblingBattleNum);\r\n        userNameToBattle[userWaits_0.user.username].push(GamblingBattleNum);\r\n        GamblingBattleNum+=1;\r\n        \r\n        }else if(gamblingBattles[GamblingBattleNum].userGamble1.initialPrice==500){\r\n        gamblingBattles[GamblingBattleNum].userGamble2= userWaits_500;//get the usergamble2   \r\n        userWaits_0.valid=false;\r\n        userNameToBattle[_username].push(GamblingBattleNum);\r\n        userNameToBattle[userWaits_500.user.username].push(GamblingBattleNum);\r\n        GamblingBattleNum+=1;\r\n\r\n        }else{\r\n          gamblingBattles[GamblingBattleNum].userGamble2= userWaits_1000;//get the usergamble2\r\n          userWaits_1000.valid=false;\r\n          userNameToBattle[_username].push(GamblingBattleNum);\r\n          userNameToBattle[userWaits_1000.user.username].push(GamblingBattleNum);\r\n          GamblingBattleNum+=1;\r\n        }\r\n        \r\n      }\r\n\r\n      \r\n    function calculateGamblePriceWinner(uint _price,string memory _username)public view returns(uint){\r\n      UserGamble storage _userGamble=userGambles[_username];\r\n       uint sum=0;\r\n      //check if there is length function of the array\r\n     \r\n      for (uint i=0;i<numberOfPlayers;i++){\r\n       sum+=calculataPlayerSum(_userGamble.players[i]);\r\n      }      \r\n      return sum+_price; \r\n    }\r\n    \r\n\r\n    function calculataPlayerSum(BPlayer memory player) public view returns(uint)\r\n    {\r\n    \r\n       uint priceOfPlayer=player.rebounds*10+player.points*5+player.steals*15+player.blocks*15\r\n       +player.asists*10;\r\n       return priceOfPlayer;\r\n    }\r\n          \r\n      \r\n      function calculateDayStatisticsOfPlayer(uint gambllerNum,uint battleNum,uint rebounds,uint asists,uint points ,\r\n      uint blocks,uint steals) public \r\n      {\r\n        GamblingBattle storage  battle = gamblingBattles[battleNum];\r\n        uint score= rebounds*5+asists *5 +points *10 +blocks* 7+steals *8;\r\n        if (gambllerNum==1){\r\n          battle.scoreUserGamble1+=score; \r\n        }else{\r\n           battle.scoreUserGamble2+=score; \r\n        }\r\n      }\r\n      \r\n\r\n\r\n      function winner(uint battleNum) public view returns(bool,User memory,bool,User memory)\r\n      {\r\n        GamblingBattle storage  battle = gamblingBattles[battleNum];\r\n         if(battle.scoreUserGamble1>battle.scoreUserGamble2){\r\n           return (true,battle.userGamble1.user,false,battle.userGamble2.user);\r\n         }else if(battle.scoreUserGamble1< battle.scoreUserGamble2){\r\n            return (false,battle.userGamble1.user,true,battle.userGamble2.user);\r\n         }\r\n           return (false,battle.userGamble1.user,false,battle.userGamble2.user);     \r\n       }\r\n\r\n\r\n     function updateStatisticOfPlayer(string memory _playerName,\r\n    uint _rebounds,uint _asists,uint _points ,uint _blocks,uint _steals) public {\r\n     \r\n      players[_playerName].rebounds+=_rebounds;\r\n      players[_playerName].asists+=_asists;\r\n      players[_playerName].points+=_points;\r\n      players[_playerName].blocks+=_blocks;\r\n      players[_playerName].steals+=_steals;\r\n      \r\n    }\r\n   \r\n   function getBattleNumbers(string memory username) public returns(uint [] memory){\r\n     return userNameToBattle[username];\r\n   }\r\n\r\n\r\n   \r\n    //------just for test-----\r\n    \r\n    function getPlayer(string  memory _playername) public view returns(BPlayer memory ){\r\n     return players[_playername];\r\n    }\r\n     function getUserGambllerByUserName(string memory _username)public view returns(UserGamble memory){\r\n\r\n           UserGamble memory _userGamble= userGambles[_username];\r\n           return _userGamble;\r\n         \r\n    }\r\n     function getGamblingBattle(uint  battleNum)public view returns(GamblingBattle memory){\r\n        \r\n        //uint[] memory gamblingNumbers=userNameToBattle[username];\r\n        //GamblingBattle[] memory battles=new GamblingBattle[](gamblingNumbers.length);\r\n        //for (uint i=0;i<gamblingNumbers.length;i++){\r\n         GamblingBattle memory battle=gamblingBattles[battleNum];\r\n        \r\n        return battle;\r\n      }\r\n       \r\n      function getUserNameByAddress(address  _userAddress )public view returns(string memory)\r\n      {\r\n        return usersAddress[_userAddress].username;\r\n      }\r\n      function getUserAddressByUsername(string memory username) public view returns(address userAddress){\r\n        return usersMapping[username].userAddress;\r\n      }\r\n\r\n}",
  "sourcePath": "C:/blockchain frontend new/contracts/NBA_gembller.sol",
  "compiler": {
    "name": "solc",
    "version": "0.5.16+commit.9c3226ce.Emscripten.clang"
  },
  "schemaVersion": "3.3.4",
  "updatedAt": "2021-03-14T15:44:12.571Z",
  "networkType": "ethereum",
  "devdoc": {
    "methods": {}
  },
  "userdoc": {
    "methods": {}
  }
}